:020000022000DC
:1060000000000420B5620200DD620200CDA702009C
:10601000E1620200E3620200E562020000000000AB
:10602000000000000000000000000000E762020025
:10603000E962020000000000EB620200ED62020073
:1060400075C90200EF62020085C90200EF6202001A
:10605000EF620200EF6202004DC20200EF62020036
:10606000EF620200EF620200EF620200EF620200E4
:10607000EF620200EF620200EF620200EF620200D4
:10608000EF6202005D760200EF620200EF62020042
:10609000FD760200EF62020001130300EF620200CE
:1060A000EF620200EF620200EF620200EF620200A4
:1060B000EF620200EF62020000000000000000003A
:1060C000EF620200EF620200EF620200EF62020084
:1060D000EF620200EF620200EF6202006DE0020078
:1060E000EF620200EF620200EF62020000000000B7
:1060F00000000000EF62020000000000EF620200FA
:10610000000000000000000000000000000000008F
:10611000000000000000000000000000000000007F
:10612000000000000000000000000000000000006F
:10613000000000000000000000000000000000005F
:10614000000000000000000000000000000000004F
:10615000000000000000000000000000000000003F
:10616000000000000000000000000000000000002F
:10617000000000000000000000000000000000001F
:10618000000000000000000000000000000000000F
:1061900000000000000000000000000000000000FF
:1061A00000000000000000000000000000000000EF
:1061B00000000000000000000000000000000000DF
:1061C00000000000000000000000000000000000CF
:1061D00000000000000000000000000000000000BF
:1061E00000000000000000000000000000000000AF
:1061F000000000000000000000000000000000009F
:1062000010B5054C237833B9044B13B10448AFF3F0
:1062100000800123237010BD482B002000000000E7
:10622000683A030008B5034B1BB103490348AFF3B9
:10623000008008BD000000004C2B0020683A0300DD
:10624000154B002B08BF134B9D46A3F5803A002148
:106250008B460F461348144A121A0BF03BFA0F4BA9
:10626000002B00D098470E4B002B00D09847002001
:10627000002104000D000D48002802D00C48AFF3A7
:1062800000800BF0F5F92000290009F053FA0BF01B
:10629000DBF900BF0000080000000420000000003F
:1062A00000000000482B00202842002000000000D1
:1062B000000000000649074A074B9B1A03DD043B18
:1062C000C858D050FBDC05F09BF9FFF7B9FF000080
:1062D000983B0300982A0020482B0020FEE7FEE7A9
:1062E000FEE7FEE7FEE7FEE7FEE7FEE7FEE7FEE786
:1062F000704700BF00B583B0044B0093044A4023AD
:1063000000F036F803B05DF804FB00BF156302002F
:10631000682B002002B32DE9F843114B114E88463B
:10632000144643F0010903270025224608EB050126
:10633000002009F02FFB03461D444FF47A40E41A75
:1063400023B9337833B1C847013F06D001233370F6
:10635000002CEAD1BDE8F88370473770BDE8F883B8
:10636000B0230300642B0020704700BF09F0F0BB8E
:10637000F0B595B000241D460E460846174605F0B8
:106380005BF8304623460822099505A91A9D08970F
:106390000D950A948DF82C400C9405F0B1F89DF8F9
:1063A00014308DF81140DDE9061003F00302012AD4
:1063B000CDE9020128D0022A04D0304605F040F889
:1063C00015B0F0BDBDF81650C3F3C2038DF8103000
:1063D000C5F389150827082D2C4628BF08243B46FD
:1063E00022460EA9304605F08BF82D1B214608AB3E
:1063F00002AA0EA8274400F027FF002DEBD130465B
:1064000005F01EF815B0F0BDBDF81470059DC7F37A
:106410008312C3F3C2040EA93046920008238DF8FC
:106420001040C7F3831705F06BF8C5F3952508AB4B
:106430003A4628460EA9009302AB00F08DFE304686
:1064400004F0FEFF15B0F0BD08B5FFF78FFF04485C
:10645000042100F0FDFD034B01225A7108BD00BF6D
:10646000803B0300982A002038B50C4B0C480024D0
:1064700000250022C3E90045FF21C3F818249960D4
:1064800083F82024C3F8142404F08AFF044610B9CA
:10649000044805F069F8204638BD00BF782C00207C
:1064A000DC3A0300EC23030099B10E4B0E495B1A52
:1064B000DB0815D030B400220C4D02E001329342CB
:1064C0000BD035F822408442F8D151F8320030BC6C
:1064D0007047054951F830007047002030BC7047C4
:1064E00018467047803B0300F03A0300482B002019
:1064F000094B013903EBC00003290BD8DFE801F099
:106500000402080604207047022070474079704753
:106510000079704700207047F03A03002DE9F047FA
:10652000954CD4E900239A4284B063D00023C4F888
:106530001834BFF34F8FD4E9013503EA0501CA1CB3
:1065400004EB820614F82220500719D52768327808
:1065500002F00302012A43D0022A03D172880233D7
:1065600003EB921305EA0301D4F81804CA1C04EBE8
:10657000820628B99F4239D914F822205207E6D45E
:1065800004EB81015A1CC96801912A4004EB820284
:1065900001F00301D2680292022903F102062DD014
:1065A000012900F09580D4F810543DB12B6828469D
:1065B0009B689847EB681D68002DF7D16F48704BBA
:1065C0007049C01AC008000440F0020000F0E0F872
:1065D000D4E90030C01A18BF012004B0BDE8F0872C
:1065E00032880233C2F383121344BBE7676004B0FE
:1065F000BDE8F087002004B0BDE8F087BDF80630A4
:106600006148C3F38919B9F1500FC84628BF4FF04C
:10661000500868F38F1308F10801ADF8063004F054
:10662000C1FE07460028BED004F006FF0023082262
:1066300001A9384604F030FF25EA06030133B8EB20
:10664000830F4FEA830A7DD9BAF1000F00F08D80E5
:1066500005EA06010331A8EB0A0804EB81010823CF
:10666000524638465FFA88F804F016FF474942461A
:106670000AF10803384604F00FFF09F1030906EB9D
:106680009906D4F81834002B6BD1D4F8105465B1A6
:10669000EB685A7928463946002A5ED02B681B6879
:1066A0009847EB681D68002DF2D1384604F0C8FE0B
:1066B00000230DF103008DF8033004F049F8D4F8FD
:1066C000183403B966609DF8030004F067F87FE7AB
:1066D000BDF804302C48C3F38312062A28BF0622D3
:1066E000911C62F389138900ADF8043004F05AFE5E
:1066F000074600283FF457AF04F09EFE002308220F
:1067000001A9384604F0C8FEBDF8043013F4707FC8
:10671000B7D04FF00008314629404FEA88030331D3
:10672000083304EB81010422384604F0B5FEBDF8BD
:10673000043008F10108C3F38313434506F1010651
:10674000E9D89EE705EA0601033104EB81014246E0
:106750000823384604F0A0FE8FE71D68002D97D16E
:10676000A3E7384604F06CFE32E7084942460823A6
:10677000384604F091FE80E7782C0020203B03008F
:10678000F03A0300D4230300DC3A0300842C0020F9
:106790002DE9F04F644C87B0002306460DF10B0045
:1067A0008DF80B30A568019103F0D2FFD4E90123E5
:1067B00027681A440132D21B012A00F2858004F2B4
:1067C0001C4804F5836A04F214491BE0BDF80E303E
:1067D000C3F389130333090C0BEB930B4846009169
:1067E00004F0C6F9009900283ED04046C4F804B031
:1067F00004F082F9D4E90113226819440131891A9D
:10680000012962D80121404604F076F9504604F08F
:106810009FF9484604F09CF9D4E9013C03EA0C02D4
:10682000D11C04EB810014F821E01EF0040F0EF0DF
:10683000040129D104EB8202591CD268039201EAB7
:106840000C0104EB810102F00302012AC96803F183
:10685000020B32D0022AB9D000214846009104F040
:1068600087F900990028C0D14046C1E743880BEB67
:1068700093130CEA0302D11C04EB810014F82110DD
:1068800001F004010029D5D090F800E00EF0030ECD
:10689000BEF1010F0BD0BEF1020F03F1020B02F1AA
:1068A000030EE3D004EB8E000029EDD1C2E702888D
:1068B0000233C2F383121344DBE7BDF80C30C3F399
:1068C0008313090C9B4489E73A4613400333023291
:1068D00005219DF80B0044F82310226003F05EFFB1
:1068E0000021124804F0DEF880F31000F1007B1C58
:1068F0002B40019A01F038013D4004EB830341F045
:1069000001010004033540EA164641EA8221DE60B7
:1069100044F8251094F820341BB1FFF7FFFD002840
:10692000FBD107B0BDE8F08F782C00209430002018
:106930002DE9F04F684C89B0002307460DF1130094
:10694000CDE902128DF81330A56803F001FFD4E9F8
:10695000012326681A440132921B022A00F2858024
:1069600004F21C4804F5836A04F214491BE0BDF8E4
:106970001630C3F389130333090C0BEB930B484612
:10698000019104F0F5F8019900283ED04046C4F882
:1069900004B004F0B1F8D4E90113226819440131BC
:1069A000891A022962D80121404604F0A5F8504610
:1069B00004F0CEF8484604F0CBF8D4E9013C03EAF1
:1069C0000C02D11C04EB810014F821E01EF0040F2E
:1069D0000EF0040129D104EB8202591CD268059201
:1069E00001EA0C0104EB810102F00302012AC968EB
:1069F00003F1020B32D0022AB9D00021484601919E
:106A000004F0B6F801990028C0D14046C1E7438898
:106A10000BEB93130CEA0302D11C04EB810014F876
:106A2000211001F004010029D5D090F800E00EF00B
:106A3000030EBEF1010F0BD0BEF1020F03F1020BEA
:106A400002F1030EE3D004EB8E000029EDD1C2E782
:106A500002880233C2F383121344DBE7BDF814301B
:106A6000C3F38313090C9B4489E732461340033375
:106A7000033245219DF8130044F82310226003F0EF
:106A80008DFEB31C2B4004EB8303039A1348DA609A
:106A9000002104F007F880F31000F900731C2B406C
:106AA000029A01F03801354004EB830341F04101C3
:106AB0000004033540EA174741EA8221DF6044F8C9
:106AC000251094F820341BB1FFF728FD0028FBD1D6
:106AD00009B0BDE8F08F00BF782C00209430002072
:106AE0002DE9F04F6C4C89B0002607460DF11300DC
:106AF000CDE9011203938DF81360A56803F028FE19
:106B0000D4E9012326681A440132921B032A00F2B9
:106B1000858004F21C4804F5836A04F214491BE0E2
:106B2000BDF81630C3F389130333090C0BEB930B39
:106B30004846009104F01CF8009900283ED04046D9
:106B4000C4F804B003F0D8FFD4E901132268194453
:106B50000131891A032962D80121404603F0CCFF94
:106B6000504603F0F5FF484603F0F2FFD4E9013C3C
:106B700003EA0C02D11C04EB810014F821E01EF0A2
:106B8000040F0EF0040129D104EB8202591CD268D3
:106B9000059201EA0C0104EB810102F00302012AD3
:106BA000C96803F1020B32D0022AB9D0002148464D
:106BB000009103F0DDFF00990028C0D14046C1E7F5
:106BC00043880BEB93130CEA0302D11C04EB810006
:106BD00014F8211001F004010029D5D090F800E04C
:106BE0000EF0030EBEF1010F0BD0BEF1020F03F148
:106BF000020B02F1030EE3D004EB8E000029EDD16D
:106C0000C2E702880233C2F383121344DBE7BDF804
:106C10001430C3F38313090C9B4489E732461340B5
:106C20000333043285219DF8130044F823102260B9
:106C300003F0B4FDB21C2A40F31C2B4004EB82028B
:106C400004EB830C029BD3600021039B1348CCF818
:106C50000C3003F027FF80F31000F900731C2B4069
:106C6000019A01F03801354004EB830341F08101C2
:106C70000004033540EA174741EA8221DF6044F807
:106C8000251094F820341BB1FFF748FC0028FBD1F5
:106C900009B0BDE8F08F00BF782C002094300020B0
:106CA0002DE9F04F6F4C89B0002607460DF1130017
:106CB000CDE9011203938DF81360A56803F048FD38
:106CC000D4E9012326681A440132921B042A00F2F7
:106CD000858004F21C4804F5836A04F214491BE021
:106CE000BDF81630C3F389130333090C0BEB930B78
:106CF0004846009103F03CFF009900283ED04046F2
:106D0000C4F804B003F0F8FED4E901132268194472
:106D10000131891A042962D80121404603F0ECFEB2
:106D2000504603F015FF484603F012FFD4E9013C3A
:106D300003EA0C02D11C04EB810014F821E01EF0E0
:106D4000040F0EF0040129D104EB8202591CD26811
:106D5000059201EA0C0104EB810102F00302012A11
:106D6000C96803F1020B32D0022AB9D0002148468B
:106D7000009103F0FDFE00990028C0D14046C1E714
:106D800043880BEB93130CEA0302D11C04EB810044
:106D900014F8211001F004010029D5D090F800E08A
:106DA0000EF0030EBEF1010F0BD0BEF1020F03F186
:106DB000020B02F1030EE3D004EB8E000029EDD1AB
:106DC000C2E702880233C2F383121344DBE7BDF843
:106DD0001430C3F38313090C9B4489E732461340F4
:106DE00003330532C5219DF8130044F823102260B7
:106DF00003F0D4FCB01C2840F21C331D2B402A4069
:106E000004EB800004EB820204EB830C029BC36062
:106E1000039BD3600021129B1348CCF80C3003F085
:106E200041FE80F31000F900731C2B40019A01F021
:106E30003801354004EB830341F0C1010004033500
:106E400040EA174741EA8221DF6044F8251094F8B0
:106E500020341BB1FFF762FB0028FBD109B0BDE86D
:106E6000F08F00BF782C0020943000202DE9F04FE7
:106E7000754C89B0002607460DF11300CDE90112CB
:106E800003938DF81360A56803F062FCD4E9012335
:106E900026681A440132921B052A00F2858004F20A
:106EA0001C4804F5836A04F214491BE0BDF816304F
:106EB000C3F389130333090C0BEB930B4846009182
:106EC00003F056FE009900283ED04046C4F804B0B6
:106ED00003F012FED4E90113226819440131891A22
:106EE000052962D80121404603F006FE504603F012
:106EF0002FFE484603F02CFED4E9013C03EA0C02C5
:106F0000D11C04EB810014F821E01EF0040F0EF0F8
:106F1000040129D104EB8202591CD268059201EACE
:106F20000C0104EB810102F00302012AC96803F19C
:106F3000020B32D0022AB9D000214846009103F05A
:106F400017FE00990028C0D14046C1E743880BEBEB
:106F500093130CEA0302D11C04EB810014F82110F6
:106F600001F004010029D5D090F800E00EF0030EE6
:106F7000BEF1010F0BD0BEF1020F03F1020B02F1C3
:106F8000030EE3D004EB8E000029EDD1C2E70288A6
:106F90000233C2F383121344DBE7BDF81430C3F3AA
:106FA0008313090C9B4489E73246134003330632AE
:106FB00040F205119DF8130044F82310226003F0FD
:106FC000EDFBB11C06F1030C29400CEA050C321D47
:106FD000731D2B402A4004EB810104EB8C0C0298BA
:106FE000C86004EB820204EB830E039BCCF80C30E8
:106FF000129BD3600021139B1448CEF80C3003F091
:1070000051FD80F31000F90001F03801731C2B4092
:10701000019A41F48071354004EB830341F0010192
:107020000004033540EA174741EA8221DF6044F853
:10703000251094F820341BB1FFF770FA0028FBD11B
:1070400009B0BDE8F08F00BF782C002094300020FC
:1070500030B4154DD5F810140446002071B10B461C
:1070600001E01B6853B1DB681A798242F9D1013023
:107070000A28F3D14FF0FF3030BC7047E368187135
:10708000D5F810344BB1DA68E36812681A60D5F8A5
:107090001034DB681C6030BC7047C5F81044E268EF
:1070A000136030BC704700BF782C002038B5094B06
:1070B000D3F81044012583F820544CB1E3685D7186
:1070C000236820465B689847E3681C68002CF5D16C
:1070D00038BD00BF782C002030B5C38885B0044689
:1070E0000D461BBB217A05291ED0627A82B9134A4C
:1070F000A08852F8212003920021FFF7D5F9039AC6
:107100000F490346284605B0BDE8304003F0ACBD4A
:10711000A088FFF7EDF90B4B0B4953F820202846C8
:1071200003F0A2FD217AE2E705B030BD074A0092E4
:107130000749084A284603F097FDD3E7B82403001F
:107140002024030094240300503303001824030078
:1071500000240300F82303002DE9F04385B04FF02D
:10716000000C0C9C814694F80C8084F80CC00E46F0
:107170001746184621461D46FFF7AEFF062F09D8D1
:10718000DFE807F0042E343B444F1F0049462046F9
:1071900003F06AFD2B7A052B05D06B7A5BB9274982
:1071A000204603F061FD204603F052FD84F80C8078
:1071B00005B0BDE8F083224A2249204603F054FD81
:1071C000EDE7D6E90413F2680393B3680291CDE9C1
:1071D00000324946D6E90023204603F045FDD9E7B1
:1071E00032684946204603F03FFDD3E7D6E9002345
:1071F0004946204603F038FDCCE7B3680093D6E952
:1072000000234946204603F02FFDC3E7D6E90232AA
:1072100001920093D6E900234946204603F024FD5D
:10722000B8E7D6E90321B3680291CDE900324946B7
:10723000D6E90023204603F017FDABE72C2403001A
:107240001824030050330300082900D970472DE9A2
:10725000F04F9B4683B000241B7B8BF80C400D46FF
:1072600006465946104690460193DFF8D0902C4FC1
:10727000FFF732FF05E0325D013403F0F5FC082C26
:1072800009D0A54239465846F5D84946013403F09D
:10729000EBFC082CF5D12349DFF8A490224C234FB6
:1072A000584603F0E1FC4FF0000A0DE0D15D11F00B
:1072B000970F08BF2E22214658460AF1010A03F013
:1072C000D3FCBAF1080F10D0554505D916F80A209D
:1072D0007E2AEBD92E22EEE7494658460AF1010AEA
:1072E00003F0C2FCBAF1080FEED198F80830052B74
:1072F00002D098F8093063B90D49584603F0B4FC40
:10730000584603F0A5FC019B8BF80C3003B0BDE898
:10731000F08F084A0849584603F0A6FCECE700BF86
:10732000302403003C240300402403002D390300D3
:107330002C240300182403005033030038240300D6
:10734000282403002DE9F04F3D4B93F800E087B06F
:10735000BEF1000F5FD00027DFF8F08002973C46B7
:10736000012506E0029B013302939DF80840A645E3
:1073700051D9344BD8F800101E68D8F8042016F8FC
:107380003400A0F1200BC0F1200305FA0BFB25FA15
:1073900003F34BEA030305FA00FC01EA0C0902EAD5
:1073A000030A06EBC40759EA0A0B0397DAD021EA6D
:1073B0000C0122EA0303C8E9001304F037FF16F8B2
:1073C0003430214AC3F1200CD2E90067A3F1200E2A
:1073D000614600FA0EF405FA0EF225FA01F105FAFB
:1073E00003FE20FA0CFC0A430EEA060144EA0C04F0
:1073F00004913A4000FA03F1009101940592DDE90D
:107400000412DDE900BC624508BF594506D00C4BAB
:1074100093F800E0A6E707B0BDE8F08F03994A684B
:10742000002AF4D04978A1F10101B1FA81F14909AA
:10743000091AB1FA81F1490918469047E7E700BFF8
:10744000343100207031002060310020683100208C
:107450002DE9F8438046224800F0FCFBE0B9214DBD
:107460004FF0010CD5E90023A8F12004C8F1200158
:107470002CFA01F10CFA04F40C430CFA08F902EAB4
:10748000090603EA040756EA070107D022EA0902BF
:1074900023EA0404C5E90024BDE8F883404604F06B
:1074A000C5FE114B1E68A8B9586826EA090620EAED
:1074B0000400D5E900211E600C4E586042EA090222
:1074C0000C432A6031686C600548BDE8F84300222F
:1074D00000F06ABB586849EA06062043E9E700BFA6
:1074E0003C3100206831002060310020383100201C
:1074F000042A3BD92DE9F04182B0144605460E46D8
:1075000004F02CFD68B31E491E4A1F4B0D601F4836
:107510001F491C60167000230022741EC0E900235E
:10752000C1E90023E4B21EB3DFF8708005EBC404A8
:107530000027032602E0AC421AD01C46A37820782C
:107540008DF80530424601A98DF806708DF804606B
:1075500004F00EFDA4F108030028ECD002B0BDE851
:10756000F08104F0ADFC0028CDD0F7E7072070478C
:10757000084A0948002100F005FB02B0BDE8F0818F
:10758000703100203431002038310020603100207B
:107590006831002045730200CC24030051740200BE
:1075A00070B5084D2B785BB1074E0024336801217C
:1075B00013F8340004F0CEFD2B780134A342F5D843
:1075C000002070BD343100207031002000B585B03E
:1075D0000346002101AA44F20100CDE90111039301
:1075E00000F004F805B05DF804FB00BF10B572B6FA
:1075F000FFF75CFDFEF792FF0028FBD1104B114C0A
:107600001149E41AE408240444F00100FFF7C0F82B
:107610000E4B1B68DB0700D500BE0D4944F002008D
:10762000FFF7B6F8BFF34F8F0A490B4BCA6802F455
:10763000E0621343CB60BFF34F8F00BFFDE700BF95
:10764000F03A0300203B0300D0240300F0ED00E0FB
:10765000DC24030000ED00E00400FA05F8B5204941
:10766000204B0024C1F84041C1F84441C1F84841D1
:10767000C1F84C41C1F80041C1F804411B6833B363
:107680001948D1F8045501681A686D1A25F07F452C
:10769000AA4227460DD8197CDE69AD1A144419B1E7
:1076A000D3E905201F7490471EB133461A68AA42D9
:1076B000F1D90E490E4A0B7812789A4208D00D493A
:1076C0000D4A41F823404FF48013C2F80031F8BD51
:1076D000531CDBB2022B08BF00230B70EFE700BF87
:1076E0000010014094320020903200208D320020A2
:1076F0008C3200208432002000E100E02DE9F04FC0
:10770000B34AB44913780978994285B000F088816A
:107710000133DBB2022B08BF0023AF481370AF4A1E
:107720000568DFF8D08252F82310D8F800606B1893
:1077300023F07F430360002E00F0C1810020074644
:10774000044684463346AE4613E0D868DD69C3F884
:1077500000C0891A144438B10EEB040222F07F42B3
:10776000C3E90120DF611F460120002D00F05F8189
:107770002B461A688A42E8D9002800F08B81C8F8A5
:1077800000309946521A1A6001230093944B954E8B
:10779000DFF864A243F0010301934D464FF0000B64
:1077A000002F31D0D7E901303C46FF698A4ADFF823
:1077B0004CC21268991A21F07F41614500F2DD80C8
:1077C0000B18236000220121C4E90122E261217427
:1077D000002D00F0F3802A689A4280F0E880294664
:1077E00005E0D1F800E09E4580F0CF807246084663
:1077F000C9699C469B1A0029F3D12360E161C461E9
:107800002C462546002FCDD170783378984247D04A
:107810009C460CEB4C0CB27806EBCC0C591CCBB252
:107820009A429CF80420337004BF00233370022A6C
:10783000DCF8084024D0032A18D0012AE6D1227CA3
:10784000002AE3D1DCF80C306360DCF81000A060A3
:10785000DCF81410E1609AF800E0DCF81810A1617F
:10786000BEF1000FA2D0626013469FE7002DCDD07D
:1078700000232B74ED69002DFBD1C8F80050C3E73D
:1078800055B1AC4200F0BC802A4601E0944239D0A8
:107890001146D269002AF9D1002222749842B7D148
:1078A000BBF1000F01D1A94541D0002D44D04A4A77
:1078B0004D4B1468D3F804654C4FD5F800803A78E6
:1078C000351B25F07F450335002A00F0B580464A78
:1078D000A8452CBF4444641924F07F44C2F84045B5
:1078E000D2F804359B1BA41B23F07F4324F07F4474
:1078F0000333A34200F2B98000238AF8003005B0B8
:10790000BDE8F08F8C427DD0E0692268C861002814
:1079100058D0AC46036813440360AC4552D00022F3
:1079200033787078227465464FF0010BB6E7009B00
:10793000002BE1D0002DBAD12B4E2D4A284C4FF40C
:1079400000314FF480330127C2F880103C43C6F861
:1079500048334FF43C60C6F808337760A0471E4BAD
:10796000B7604FF43C601D60A047204B1D700023A2
:107970008AF8003005B0BDE8F08FD31A23F07F43BA
:1079800083420BD2C31A23601CE77244A2EB0C02A1
:107990000A602360E161C4612C4632E700230122C2
:1079A000C4E90033A360E36122743DB12A68C8F8DA
:1079B0000040D31A2B60E561254623E7C8F8004054
:1079C00025461FE7002233787078227466E700BFEF
:1079D0008C3200208D320020903200208432002032
:1079E000F024030074310020001001408132002097
:1079F00000E100E09432002080320020FEFF7F0092
:107A000029462A46D5F81CC0C8F800C0BCF1000FB2
:107A100042D0D0691268C86100287FF47BAF7CE750
:107A2000DFF8B4800027D8F800900097AEE6A946AA
:107A3000C8F800500090A9E62349244A4FF480304A
:107A4000C3F844034FF00109C3F804034FF40030B6
:107A5000C1F8800142F001020860C3F800904FF4C1
:107A60003C60904787F8009031E7184BD2F8041536
:107A7000C2F8401543F001034FF43C609847124BA5
:107A80004FF40032C3F8002100238AF8003005B01B
:107A9000BDE8F08FB14675E6CDE902210C4A0D48EC
:107AA00001239360C0F800C08AF800304FF43C60B6
:107AB000019B9847DDE90221D8F800C0A9E701231E
:107AC000B1463746009361E600E100E0F024030090
:107AD0000010014090320020943200202DE9F8433C
:107AE0001F4D204E204FDFF898804FF480334FF425
:107AF00000324FF001090024C6F8802047EA090748
:107B0000C5F848334FF43C60C5F80833C5F8049015
:107B1000B847C5F808904FF43C60C8F80040B84733
:107B2000124A134B13491C601470134B134A0C7008
:107B30000B2114701C8099704FF48012C023C6F87A
:107B4000802186F814333260C5F8084586F8113371
:107B5000D5F80435C8F800302046BDE8F88300BFEA
:107B60000010014000E100E0F02403008132002019
:107B7000943200208C320020743100208D3200209D
:107B800090320020074B9B783BB142B138B103687B
:107B9000187C10B959745A61704708207047072043
:107BA000704700BF743100202DE9F043264EB378B2
:107BB00083B0002B3AD00446002837D004290D4664
:107BC00038D9436993B3437C0027012B0DF107009B
:107BD0000CBF8846B84691468DF8077002F0B8FD94
:107BE0007378B0783278591CC9B2884208BF3946D8
:107BF0008A4223D003EB430306EBC3030120134A5D
:107C000018719C60D2F804259DF807007170C3E9D3
:107C10000325C3E9058902F0C1FD0D4B4FF4801225
:107C20003846C3F8002103B0BDE8F083082003B054
:107C3000BDE8F083072003B0BDE8F0839DF807009E
:107C400002F0ACFD0420EEE774310020001001408A
:107C500000E100E070B51B4EB37882B04BB3044630
:107C600038B343692BB3002505740DF107008DF877
:107C7000075002F06DFD7378B07831785A1CD2B29B
:107C8000904208BF2A46914216D003EB430306EB0D
:107C9000C30302219DF807009C601971727002F005
:107CA0007DFD094B4FF480122846C3F8002102B035
:107CB00070BD082002B070BD9DF8070002F06EFD97
:107CC0000420F4E77431002000E100E070B582B0D8
:107CD000154801A902F04AFE18B3144E0446306854
:107CE000206000250DF103008DF8035002F030FDF7
:107CF0000F4B10481B88026801339B1AE38029460A
:107D000002F0D0FEA0809DF8030002F047FD01A91B
:107D1000054802F059FE084B1B6801460BB130467E
:107D2000984702B070BD00BF4434002020250300F6
:107D300038330020643400209C32002070B5037872
:107D4000052B82B0044629D0002B34D1304B1D685E
:107D50003DB12B6860889B6898472B685D68002D53
:107D6000F7D12C4D002301A88DF8043002F0F0FC6F
:107D70002B6813B9284B62881A800121254802F02C
:107D8000BBFE9DF8040002F009FD244B1B6813B1F3
:107D90002046012198472B6802B070BD204BD3F8D4
:107DA0008424D3F8803413F0FF0F04D11D4BD2B2DA
:107DB000052A08BF1C461C4801A902F0D7FD05464C
:107DC0000028E9D02368036000260DF103008DF838
:107DD000036002F0BDFC104B0E481B8802680133A3
:107DE0009B1AEB80314602F05DFEA8809DF80300EF
:107DF00002F0D4FC01A90C4802F0E6FD074B1B6819
:107E00000146002BC8D02046984702B070BD00BF85
:107E10005C34002064340020383300209C32002081
:107E2000007002401C2503004434002070B5012876
:107E300082B006D00228044630D0002837D002B0E5
:107E400070BD294801A902F091FD04460028F6D032
:107E5000264E3068206000250DF103008DF8035098
:107E600002F076FC224B23481B88026801339B1AE0
:107E70002946E38002F016FEA0809DF8030002F080
:107E80008DFC01A9184802F09FFD1B4B1B680146A1
:107E9000002BD4D03046984702B070BD124801A9DB
:107EA00002F064FD04460028C9D0144ED1E70E4804
:107EB00001A902F05BFD05460028C0D0104E3068D5
:107EC00028600DF103008DF8034002F041FC084BDF
:107ED00008481B88026801339B1A2146EB8002F098
:107EE000E1FDA880C9E700BF443400201425030049
:107EF00038330020643400209C3200201825030011
:107F0000102503002DE9F04F87B0002504460F46E9
:107F100090469946029500E0013562680123566853
:107F20002146002202A8B0470028F5D18DF80600AE
:107F3000049065B3824683460AE09DF80630666881
:107F4000023B7668B0479DF806309B445D451ED9DC
:107F500062680123566821460DF1060204A8B04765
:107F600062680123566821460DF1070204A8B04754
:107F70009DF80730BB424FF00002214604A8DCD137
:107F8000D04508D00AF1010A5FFA8AFAD5E7052040
:107F900007B0BDE8F08F109A9DF80630136089F89D
:107FA000003089F801706168023B4D6809F10202F6
:107FB0002146A847002007B0BDE8F08F2DE9F04723
:107FC000484982B00546082347484FF4847202F0BE
:107FD000B5FC002874D1454805F04CFB044618B1A7
:107FE000204602B0BDE8F087414A4249424B147036
:107FF0000C604822214641481C6009F06BFB404858
:108000002146482209F066FB002D63D095E8070061
:108010003C4B83E80700002003F050FE002854D1B9
:10802000DFF8E4E09EF80830002B58D0013BDBB2CB
:108030000EF10C024FF00309DEF80480304D2F4F93
:1080400019FB03290EF1090C9CF80140CCB19CF8F6
:1080500002200CF101031344013C53FA84F46244FE
:1080600012F8013B03F00F011B0605EBC10607EBFD
:10807000C10A18D445F831E09442D8F80030736052
:10808000EED10CF1030CCC45DED10B238DF804307E
:108090001D48D8F8003001A99847044600289FD011
:1080A00005F07CFB9CE747F831E09442D8F80030BB
:1080B000CAF80430D4D10CF1030CCC45C4D1E4E7A8
:1080C0000324204602B0BDE8F0878528A8D0FFF73A
:1080D0007DFAA5E70B4BC3E900551D729BE7DEF85F
:1080E0000480D2E73C330020443400203D7D020070
:1080F000683400205434002058340020A832002076
:10810000F03200209C3200206425030010B505F0F9
:1081100055FC68B105F05AFC044648B9064803F01E
:10812000E7FD034628B1FFF751FA2346184610BD74
:108130000823184610BD00BF0C25030005F038BB0E
:1081400006F022BB4FF0804303E0D3F83824D10778
:1081500030D5D3F838249207F7D570B582B01648D9
:1081600001A902F003FC044610B3144E30682060ED
:1081700000250DF103008DF8035002F0E9FA104BD1
:1081800010481B88026801339B1AE380294602F0DD
:1081900089FCA0809DF8030002F000FB01A90648BD
:1081A00002F012FC084B1B6801460BB130469847A1
:1081B00002B070BD704700BF443400202425030086
:1081C00038330020643400209C32002030B583B066
:1081D000822316488DF8003001A902F0C7FB10B3C6
:1081E00004460098206000250DF103008DF803502F
:1081F00002F0AEFA0E4B0F481B88026801339B1A3F
:10820000E380294602F04EFCA0809DF8030002F0B6
:10821000C5FA01A9054802F0D7FB074B1B680146C8
:108220000BB16846984703B030BD00BF443400200E
:1082300038330020643400209C3200202DE9F043C4
:1082400090F8088083B0B8F1000F6CD008F1FF39C6
:108250005FFA89F300F10C024FF0030900F1090500
:10826000DFF8E8C0DFF8ECE019FB032929464F7876
:1082700000239F4201EB03021AD08C781657125D3F
:10828000002E02F00F0408DB5CF834200133002AD2
:10829000EFD0112003B0BDE8F08302F00F020133EC
:1082A0005EF83220002AF4D19F4201EB0302E4D1B0
:1082B00003314945DBD14FF0000E244FDFF894C065
:1082C000724602EB42022A44537833B300210B4634
:1082D0000AE047F8340043681B68C8F80430547853
:1082E0000131CBB29C4216D9947813441E571B5DC2
:1082F000002E03F00F0407EBC4080CEBC409E8DA06
:108300004CF8340043681B68C9F8043054780131D4
:10831000CBB29C42E8D890F808800EF1010E5FFACB
:108320008EF24245CDD30A4A13681BB11A6813680E
:10833000002BFBD1106043680B228DF804201B68D2
:1083400001A9984703B0BDE8F08300BFF0320020D8
:1083500054340020A8320020024B1878003818BF8F
:108360000120704760340020030710B5044604D58F
:108370002046BDE8104005F063BF05F0C3FC204671
:1083800005F0BAFF2046BDE8104005F059BF00BF18
:1083900006F03CB9014B1868704700BF5434002008
:1083A000F0B40E4B1F688FB13E7A96B100231C4685
:1083B0003A4602E0DCB2A6420BD9557A854203F177
:1083C000010302F10302F5D101B10C703846F0BC93
:1083D00070473B681F68002FE6D1F7E75434002050
:1083E000436811461B68184700F00F03082B0AD892
:1083F00002064CBF054A064A02EBC303186810B1D7
:1084000043681B6818471020704700BFA83200203F
:10841000F032002038B5094B1C6864B1054602E013
:1084200023681C683CB1636829461B68204698474E
:108430000628F5D038BD062038BD00BF54340020D2
:1084400038B50D46044605F035FB18B1054B1B78D1
:10845000022B01D0082038BD29462046BDE838400F
:1084600005F038BB6834002038B50D46044605F0E9
:1084700021FB18B1054B1B78022B01D0082038BD19
:1084800029462046BDE8384005F0B2BB68340020DC
:1084900070B543689B6882B006460C46154623B10A
:1084A0009847062801D002B070BD4DBB337AA34275
:1084B0002BD9093604EB440174186678EEB12B46CB
:1084C000324606E0013505F0BBFEEBB29E4214D900
:1084D00062789A4216D9A3786219D05C0307F1D466
:1084E000019005F00FFC019805F006FF0135019899
:1084F00005F0A6FEEBB2B342EAD3002002B070BD95
:108500000720D0E700231B78FFDE6B78FFDE00BF7B
:1085100043681B6903B11847184670472DE9F043BB
:108520002B4B1F6883B0002F49D097F80880B8F113
:10853000000F40D00026344607F1090505E001365A
:10854000F4B2A04505F1030535D97B689B682BB1D2
:1085500000222146384698470628F0D13B7AA342AC
:1085600030D995F80190B9F1000FE8D000242346E6
:108570004A4606E0013405F063FEE3B29945DED9D0
:108580006A78934221D2AB782A19D05C0307F1D4E0
:10859000019005F0B7FB019805F0AEFE013401989B
:1085A00005F04EFEE3B24B45EAD30136F4B2A045E6
:1085B00005F10305C9D83B681F68002FB5D103B08A
:1085C000BDE8F08300235B78FFDE00231B78FFDE2D
:1085D000543400202DE9F8431E4B1F68002F34D07F
:1085E00097F80890B9F1000F2BD04FF000084546DE
:1085F00007F109047B68DB6813B1294638469847C0
:108600003B7AAB4223D966789EB100252B46324691
:1086100093420BD2A37862190135D05C05F0F6FFC6
:10862000EBB29E4205D962789342F3D300231B78C4
:10863000FFDE08F101085FFA88F5A94504F103049B
:10864000D8D83B681F68002FCAD1BDE8F883002343
:108650005B78FFDE5434002070B503780446852B28
:1086600000F2BF80DFE813F00002B201BE003A0260
:108670006602E300EA00BD00040117012A01BD0003
:10868000BD00BD00BD003D01BD00BD00BD00BD0081
:10869000BD00BD00BD00BD00BD00BD00BD00BD00F2
:1086A000BD00BD00BD00BD00BD00BD00BD00BD00E2
:1086B000BD00BD00BD00BD00BD00BD00BD00BD00D2
:1086C000BD00BD00BD00BD00BD00BD00BD00BD00C2
:1086D000BD00BD00BD00BD00BD00BD00BD00BD00B2
:1086E000BD00BD00BD00BD00BD00BD00BD00BD00A2
:1086F000BD00BD00BD00BD00BD00BD00BD00BD0092
:10870000BD00BD00BD00BD00BD00BD00BD00BD0081
:10871000BD00BD00BD00BD00BD00BD00BD00BD0071
:10872000BD00BD00BD00BD00BD00BD00BD00BD0061
:10873000BD00BD00BD00BD00BD00BD00BD00BD0051
:10874000BD00BD00BD00BD00BD00BD00BD00BD0041
:10875000BD00BD00BD00BD00BD00BD00BD00BD0031
:10876000BD00BD00BD00BD005101860060011C02BE
:10877000E301E3008C4B8D49D3E9000290478C4B19
:108780001C684CB1894D636820461B682946984790
:1087900023681C68002CF6D1864C63680BB10D2051
:1087A0009847FFF717FF01F0CDFB834B1B68002BA9
:1087B00000F0FD810120814D05F0CCF82A78931E50
:1087C000DBB2062B00F215827D49CB5C13B103F0BE
:1087D000D5F92A78022A40F00C8205F041F90123EC
:1087E0002B7070BD754D2A78931EDBB2062B00F2FC
:1087F000CD817349CB5C13B103F0C0F92A78022A0A
:1088000040F0C48105F02CF96A4B5B6803222A70A2
:108810000BB102209847664B1D6845B16B6828462E
:108820001B68214698472B681D68002DF6D15E4BCA
:108830002146D3E90002BDE87040104790F90230AC
:108840008278002BB4BF5F4B574B02F00F0203EB53
:10885000C203D3E90002214690470028C1D0A07886
:108860000207BED00307BCD4BDE8704005F01CBAB7
:10887000504B5B680BB1082098474D4B1D68002D8D
:10888000AFD06B6828461B68214698472B681D6847
:10889000002DF6D1A5E7474B5B680BB1092098473F
:1088A000434B1D68002D9CD06B6828461B682146F1
:1088B00098472B681D68002DF6D192E73D4B5B6809
:1088C0000BB10A2098473A4B1D68002D89D06B6880
:1088D00028461B68214698472B681D68002DF6D155
:1088E0007FE7344B5B680BB10F209847304B1D6816
:1088F000002D3FF476AF6B6828461B6821469847E9
:108900002B681D68002DF6D16BE72C4C2378062BC5
:1089100000F04F8103F0FD03052B7FF462AF05F0FB
:10892000A9F80223237070BD244DFFF753FE05F014
:108930008BFD2A78931EDBB2062B31D82049CB5C05
:1089400013B103F01BF92A78022A29D105F088F81F
:10895000174B1C6800232B704CB11B4E63682046DC
:108960001B683146984723681C68002CF6D10E4BD3
:108970001549D3E9000290470E4B5B680BB10E20FE
:1089800098472B78023BDBB2062B3FF62AAF0C4A06
:10899000D35C002B3FF425AFBDE8704003F0EEB888
:1089A000082AD5D1D2E700BFF032002028250300E5
:1089B000543400209C3200205834002068340020B9
:1089C00004250300A83200202C2503009C4DFFF74E
:1089D00001FE01F0ADFA2A78931EDBB2062B00F2FD
:1089E000D9809849CB5C002B00F0D480022A03D0B8
:1089F000082A01D005F03EF8934B5B6802222A70EA
:108A00000BB101209847914B2146D3E900029047D2
:108A10008F4B1D68002D3FF4E4AE6B6828461B6841
:108A2000214698472B681D68002DF6D170BD844DF6
:108A30002B78032B00F0C68004F0D2FF00283FF40F
:108A4000D0AE2A78931EDBB2062B40F2EB80814831
:108A500003F056F82A78022A01D0082A01D104F03E
:108A6000FFFF06232B7070BD754B1B78032B00F0A6
:108A7000A580082B00F0A280734B5B680BB100202F
:108A80009847754B1D68002D3FF4ABAE6B682846C8
:108A90001B68214698472B685D68002DF6D170BD94
:108AA000674D2B78032B7FF49CAE05F067FF002801
:108AB0003FF497AE2A78931EDBB2062B00F2BB8000
:108AC0006049CB5C13B103F059F82A78022A40F0D0
:108AD000B28004F0C5FF04232B7070BD584D2A7876
:108AE000082A5CD0931EDBB2062B00F28680554923
:108AF000CB5C002B00F08180022A00F087800523E8
:108B00002B70514B5B680BB1032098474F4B2146AC
:108B1000D3E9000290474E4B1D68002D3FF461AE33
:108B20006B6828461B68214698472B681D68002DF6
:108B3000F6D170BD444B5B680BB103209847434BA3
:108B40004649D3E900029047414B1C684CB1434D64
:108B5000636820461B682946984723681C68002CD8
:108B6000F6D1374D2B78062B1ED0082B0BD09A1E32
:108B7000D2B2062A4DD833498A5C002A49D0022B4A
:108B800001D004F077FF02232B7070BD082A7FF418
:108B90003BAE37E62F4802F0B3FF2A7826E70223E0
:108BA0002B7004F071FFACE707232B7070BD207AA7
:108BB00001E604F05FFF0823237070BD2848FFF72B
:108BC0004BFD59E705F0DAFE00283FF435AF2A786F
:108BD000931EDBB2062B2BD81A49CB5C13B102F0E3
:108BE000CDFF2A78022A23D104F03AFF04232B7008
:108BF00022E7082A7FF4F3ADEFE5164802F080FF84
:108C00002B78022B02D0082B7FF479AF04F028FFD9
:108C100075E7104802F074FF2B78022BB3D0082BB5
:108C2000B1D0AEE70749CB5C002B7FF414AF0EE761
:108C3000082ADBD1D8E7082A7FF44DAF49E700BF07
:108C400068340020042503009C320020F03200200C
:108C500054340020A02A002058340020342503007A
:108C60003025030070B5294E82B03468002301938B
:108C70000CB3A588A5B1E388B3F5006F3ABF5A1CC1
:108C800092B2012205F1FF3528BF002301A8A5807B
:108C9000E280ADF80630FFF7DFFC012002B070BDC6
:108CA0002046FFF7D9FC1A491A4801F0CDFE0120F1
:108CB000356002B070BD1649164801F095FE0446B5
:108CC00030600028D5D1144B18680028E6D00DF18B
:108CD00003008DF8034001F03BFD104A0E48138855
:108CE000B3F5006F35BF5C1C2346A4B201240121FB
:108CF0001480ADF8063001F01BFF9DF8030001F071
:108D00004DFD01A8FFF7A8FC0120C7E76C34002047
:108D1000983200204434002064340020383300208E
:108D2000F0B504680E7A002C00F07884A4F21234B6
:108D30007C2C00F2C5827C2C00F2C282DFE814F0A9
:108D400074020503E302D402CB0231030E032A03AB
:108D5000C002C002C002C002C002C0026702DC0240
:108D6000C002C002C002C002CC011603EB02C00266
:108D7000C002C002F401F4039303C002C002C002A7
:108D8000C002FF00D1034F03C002C002C002C002F4
:108D9000C002C0026402C002C002C002C0021901C7
:108DA000A2039A03B2035E03C002C002C9038B038D
:108DB000BA0340036603C002C0024803DB01570345
:108DC000ED00C002C0023903DB00FB03BD00C2039B
:108DD000C002C002C002C002C002C002C002C00283
:108DE000C002C002C002C002C002C002C002C00273
:108DF000C002C002C002C900D903C002C002C00242
:108E00006E03C002C002C002C002AC00C002C002B9
:108E1000C002C002AC00C002C002C002C002C00258
:108E2000C0027D00C402C002C002C002C002B8007D
:108E3000C002C002C002C002B80001240025002AFE
:108E400000F0D38307795755A3424FF00005057111
:108E500040F28283171901343D70B04D0F7D2D68AB
:108E60002D78AF4200F0B6838F7DAF4209D1002547
:108E7000A342057140F25585254601340AB10779B0
:108E80005755DFF8A0C2A64F9CF800503F78013537
:108E9000EDB28CF800507BE1012500240AB107797E
:108EA00017554024AB42047140F28F836C1CC6E717
:108EB00001240025002AE2D1E3E701240025002A4D
:108EC00040F037848D7D0571A34240F26883013400
:108ED000FFE001250024002A00F04383077917559D
:108EE000AB424FF00504047140F28483274602EB45
:108EF000050C6C1C03E301250024002A40F01784B4
:108F00000624AB42047140F2458301350C7D0471A7
:108F1000AB4240F297836C1CD4E701250024002A61
:108F200040F009840524AB42047140F22E836C1C8E
:108F30002425A342057140F27B83651CE0E70124F0
:108F40000025002A00F00084077957554FF0000CE7
:108F5000A34280F804C040F29684651C0027AB420F
:108F600002F804C0077140F2F983541901352770E3
:108F7000F3E001250024002A00F0F5830779175556
:108F8000AB424FF02404047140F2C783274605F139
:108F9000010C002463455755047140F2AF83254608
:108FA0000CF101071024BB4202F80C50047140F28E
:108FB0009683254607F1010C01246345D5550471BC
:108FC00040F27E8325460CEB04070524BB4202F8E1
:108FD0000C50047140F26383254607F1010C2424F0
:108FE0006345D555047140F2508325460CF10107C5
:108FF0000124BB4202F80C50047140F23C83254628
:1090000007EB040C03246345D555047140F22E830D
:109010000CF1010702F80C40BB4291F816C080F831
:1090200004C040F21E837C1C0425A34202F807C042
:10903000057140F2118302EB040C2F460134242504
:109040009C428CF80070057180F001832F46651CEE
:109050001755AB424FF00204047140F2A582274637
:1090600002EB050C6C1C02259C428CF8007005710B
:1090700080F0E3822F46651C1755AB424FF0050484
:10908000047140F28282274602EB050C6C1C2425F9
:10909000A3428CF80070057140F2CA822F46651C0D
:1090A0001755AB424FF00604047140F27382571912
:1090B00001353C700F7D0771AB4240F2C3826C1CDE
:1090C0005755A3428D7D057140F26982171901340D
:1090D0003D70124D2D6851E001270024002A00F058
:1090E000468205791555BB424FF00004047140F2E9
:1090F000FB827D1C40E101250024002A40F01D83F5
:1091000002249D42047180F04F826C1C0225A34210
:10911000057140F29282651C04E700BF74340020A0
:10912000703400207234002001240025002A00F051
:109130009E8307795755A3424FF00205057140F20F
:109140005E83671C1555BB424C7E047140F2EA8277
:1091500002EB070C7D1C8CF800400024AB4204712C
:1091600040F227826C1C0AB107795755C94D91F816
:1091700014C02D682F78BC4500F02082DFF81CE376
:10918000DFF81CC36F788EF8007000258CF8005053
:10919000BD423FD3C04F3D780135EDB23D70B54281
:1091A00080F0D0810925A342057140F25B83651CE4
:1091B000002A00F0188307791755AB424FF00404DA
:1091C000047140F2BC82274602EB050C6C1C8CF843
:1091D00000700F7AB04D2D78BD4280F0B48305EB5E
:1091E000450501F10907DFF8ACC217F805E080F882
:1091F00004E03D44A342CCF8005040F28482671C56
:10920000002A7FF46EAFB2E101240025ABE701250F
:109210000024CDE70725A342057140F29881651C23
:10922000002A7FF45BAE9CE1002A00F0F182047911
:109230001470012B4FF00B04047140F229830327B3
:1092400002254FF0010C02F80C40AB4291F814C01B
:1092500080F804C040F25C820224BB4202F805C0E0
:10926000047140F24682254607F1010E022473453F
:10927000D555047140F22E8225460EF1010C0224D0
:10928000634502F80E50047140F215820CF101079B
:1092900002F80C40BB4291F819C080F804C040F2BB
:1092A000F9817C1C0025A34202F807C0057140F239
:1092B000E781171901343D70774F00253D706EE747
:1092C000002303601846F0BD002A00F0F4820579FF
:1092D00017460124C0E5002A00F0F48205794FF01A
:1092E000010C4FF0000ECAE7002A00F0ED8205796C
:1092F0004FF0010E0027B9E7002A00F0018307793B
:109300009446012463E7002A00F0D88290F804C054
:1093100001270025A0E75F4C002A00F0E7820779CB
:109320002468944601258CF8007024780F7DA742AC
:1093300000F0BA818F7DA7427FF40FAF0A24AB42C1
:10934000047140F2F8826C1CFBE5002A00F0D38225
:109350000479022701254FF0000C74E7002A00F081
:10936000AF8290F804C0012400279BE7002A00F098
:10937000C082047901250027DFF818C1D455DCF834
:109380000040AB426778077140F29F8102EB050C09
:109390000135C8E7002A00F0B1820579174601249B
:1093A00089E7002A00F08382047901274FF0000C3E
:1093B0006EE7002A00F0A78207799446012466E64A
:1093C000002A00F08D82047901274FF0000C21E67D
:1093D000002A00F0A2820779944601242FE6002A91
:1093E00000F0FF811446077927700125B5E6002AB1
:1093F00000F08E8207799446012434E6002A00F0BA
:109400007182057901274FF0000CDEE5002A00F09B
:109410005F8290F804C00124002705E61D4C012559
:10942000276800241AB190F804C002F804C03C7800
:109430000F7DA74200F0E8808F7DA7427FF431AD19
:109440000224AB42047140F271822C460135002A9D
:109450007FF425AD25E5002A00F046820579012735
:109460004FF0000CC4E5002A00F0BB81047994465B
:10947000012570E6002A00F01582057901274FF0DA
:10948000000C8FE5002A00F0468207794FF0010CAE
:1094900000257EE5743400207134002070340020F3
:1094A00072340020002A00F0318205794FF0010C5F
:1094B000002781E5002A00F00F8205794FF0010CAA
:1094C00000279FE5002A00F0F48105791746012462
:1094D000FEE5002A00F0238205794FF0010C0027F9
:1094E0007DE5002A00F0F68190F804C001250024F3
:1094F00034E5002A00F0EA810779944601248CF8CB
:109500000070C14FC14D3F682D7897F801C0AC4540
:1095100040F2168297F802C03D44A34215F80C5061
:1095200005716CD9651C7DE7002A00F0D7810579AB
:109530000127002406E6002A00F0B68104791746C8
:109540000125B6E540F2993303600120F0BD40F2F9
:109550006D3303600120F0BD4FF46173036001209F
:10956000F0BD0524AB42047144D96C1CC9E7BB4271
:10957000027140F2B9807D1CA34C2468AB4267782D
:10958000077140F2A2800135CFE640F25533036007
:109590000120F0BD40F2573303600120F0BD40F2DE
:1095A000593303600120F0BD40F2513303600120C4
:1095B000F0BD4FF44F7303600120F0BD0525A342B9
:1095C000057140F21781651CD5E440F283330360D6
:1095D0000120F0BD0D6AA3422D7805713FF64CAC19
:1095E00040F2893303600120F0BDA3420271B3D978
:1095F000013432E440F26E3303600120F0BD40F2EA
:10960000723303600120F0BD0324AB4204713FF6C6
:109610001CAF40F2773303600120F0BD08240471D1
:10962000002B7FF401AE40F2123303600120F0BD45
:1096300040F2563303600120F0BD40F25233036024
:109640000120F0BD4FF4567303600120F0BD4FF4CC
:10965000547303600120F0BD40F24F3303600120DA
:10966000F0BD4FF4537303600120F0BD40F24B3363
:1096700003600120F0BD40F24A3303600120F0BDD9
:1096800040F2193303600120F0BD40F2493303601A
:109690000120F0BD4FF4467303600120F0BD4FF48C
:1096A000527303600120F0BD0224AB42047140F20A
:1096B000F4806C1C3AE540F2173303600120F0BDE2
:1096C00040F2453303600120F0BD4FF44A7303605C
:1096D0000120F0BD40F2163303600120F0BD4FF4CD
:1096E000517303600120F0BD40F227330360012075
:1096F000F0BD40F2153303600120F0BD40F243336A
:1097000003600120F0BD40F2263303600120F0BD6C
:109710004FF4457303600120F0BD40F24233036013
:109720000120F0BD40F22E3303600120F0BD077927
:10973000B6E40779C4E407799EE4077988E440F247
:10974000213303600120F0BDA342027140F29B80EF
:1097500001340025A342057100F2938040F23533B5
:1097600003600120F0BD2424AB420471D5D96C1CE8
:109770000025A3420571C1D901341025A34205710A
:10978000ADD901340125A342057199D92C44052591
:10979000A342057183D901342425A34205717FF6C4
:1097A00074AF01340125A34205717FF664AF2C44E8
:1097B0000325A34205717FF659AF01348D7D0571F4
:1097C000A3427FF64EAF01340425A34205717FF614
:1097D00043AF013424259C420571BFF438AF651CAA
:1097E0008EE40125B9E40424AB420471A7D90F7AB1
:1097F0006C1CEFE440F2413303600120F0BD40F205
:109800002D3303600120F0BD743400207234002039
:109810000B24012B04713BD9032402250F7D077112
:10982000AB427FF675AF0225A34205717FF661AFAB
:1098300001340225A34205717FF64CAF01340225A5
:10984000A34205717FF637AF01344D7E0571A34207
:109850007FF620AF01340025A34205717FF610AFDB
:10986000013429E54FF4487303600120F0BD02255F
:10987000A3420571C3D901344D7E0571A3427FF621
:1098800051AF651C69E44FF44D7303600120F0BDD6
:1098900040F2133303600120F0BD4FF44B730360BB
:1098A0000120F0BD012468E70125FFF72FBB01244B
:1098B000CBE701240DE40124FFF7CFBA0124B2E77E
:1098C0000124C8E70124BAE70124B2E7012418E61D
:1098D000012479E701243CE7012469E70124CBE76F
:1098E00001246BE7012452E701245BE7246801258A
:1098F0001BE5012540E6022401258FE70124DBE476
:109900003746012466E40124FFF712BB012439E73E
:109910000124FFF7FBBB01242AE701245AE70124B5
:109920003AE740F28E3303600120F0BD4FF45F73DD
:1099300003600120F0BD40F2333303600120F0BD2D
:1099400000231B78FFDE024A002313601B78FFDE32
:109950007434002078B910B504460868037B202BC6
:1099600001D0062010BD00F10E010722183007F0CB
:10997000A3FE204610BD0320704700BF4360CA69A4
:109980009A4210D38A6910B40260C8690C6FC01A79
:109990001C441A44C86100380C6718BF01205DF8E8
:1099A000044B8A61704701F12802026000208B6736
:1099B000704700BF2DE9F0470B7888B00D4606468A
:1099C0000E2B14D8DFE803F008180808130D28132D
:1099D00013181308080808000024204608B0BDE842
:1099E000F0874B78DA0930D15B09012B4CD0062483
:1099F000204608B0BDE8F0870368002403F1340274
:109A00002046C3E91E44C3E920445A671C845C62B3
:109A1000DC6208B0BDE8F087027A8B78002A00F09B
:109A20006A81817A0930002900F06381F17A415C12
:109A30009942D1D01B061ED4EF7807F0FD03012B0D
:109A4000CAD0002F65D00324C7E713F0600FC3F31B
:109A5000411200F09180012AC9D18B78212BC6D107
:109A6000B1F80720072AC2D10168681C183100F03C
:109A700073FA0446B1E7EC78002C00F09D80032CCB
:109A800014BF03240024A8E78B780768202B00F07C
:109A90009B80222BABD1B1F80730002BA7D1B1F8B6
:109AA000035097F820303D8405F0010203F00103D4
:109AB0009342154690D0C3691BB1C2F10301C9B2EC
:109AC0009847002D88D1337A012B40F21081737BA7
:109AD00006F10C04002B00F00881B37BE05C04F07D
:109AE00029FC337A012B40F20281737B012B40F277
:109AF000FC80B37B23442C46587804F01BFC07F110
:109B00003403C7E91E55C7E920557D62FD627B67B6
:109B100063E73568012A05F10C0140F2E480727BAD
:109B2000012A06F10C0340F2DC800691B27B7349F6
:109B300005911344AC6A93F80180002C65D1EA6F5B
:109B4000EB6AAC67C5E91F42002B00F0B980296BB6
:109B50001846002205F1240383E803004046EA6228
:109B600005A9FEF781FC0446F369002B3FF435AFED
:109B700030460021984730E703F01F03012B7FF4A4
:109B800036AF8C78062C7FF432AF05A8039200F034
:109B900079FD03AA00920746EA78297930463B46C8
:109BA000FEF7B0F905283FF418AF039A3946681C50
:109BB00000F0D2F9044610E7F369002B3FF40CAF34
:109BC00030460121984708E7B1F80720072A7FF4BB
:109BD0000EAF3B73B1F80730DBB27B7300240DF19D
:109BE0000B000E37CDE9057307948DF80B4000F09C
:109BF000AFFD204605A9FEF723FC0446002868D0E7
:109C00009DF80B0000F0CAFDE7E6D5F88490686A7D
:109C10004C4528BF4C4605F1340A2246514607F010
:109C20004BFDE86FEA6AEF67A9EB04030AEB040156
:109C30000444C5E91D13C5F88040002A43D005F14E
:109C40002C0797E8030005F12404002284E80300B0
:109C5000EA62002B3BD091461BE0696F686A07F00F
:109C60002BFDD5E91D32A96AC5F880100B44521AA4
:109C7000C5E91D32F36913B1002130469847EB6AFC
:109C800013B397E8030084E80300AB6FC5F82C908A
:109C9000EBB1AA6A9342E0D2696F686A1A4607F08C
:109CA0000BFDD5E90932A96FE967521A0B44C5E9E2
:109CB000093253B1404605A9FEF7D6FB044653E7E7
:109CC00000236B6250E700236B6200244CE76B6A51
:109CD000EFE70B4B049603A9039300F0BFFC044687
:109CE0008EE73B78FFDE7B78FFDE2B78FFDE6B783C
:109CF000FFDE0B78FFDE5378FFDE00BF7D990200A8
:109D00005599020010B503681C8CE40784B015D582
:109D10000B46017A012916D9417B00F10C0481B16F
:109D2000817B605C91060CBF0124002401A9CDE970
:109D300001320394FEF784FB04B010BD082004B088
:109D400010BD0B78FFDE00235B78FFDE0368D3F8DD
:109D50008000704770B50468238CDB0782B035D56E
:109D6000656A16462DB1E36A002B32D0112002B08D
:109D700070BDA36F934231D2C4E90912027A012A5D
:109D80003AD9467B012E00F10C0237D9807B1C4E5C
:109D90000096104404F10C02467801926BB11A4609
:109DA0000846616F07F088FCD4E90932A16FE167CA
:109DB000521A0B44C4E90932A56730466946FEF7DA
:109DC00053FB002808BF922002B070BD082002B0EB
:109DD00070BD9220C4E90B1202B070BD0846616FDD
:109DE00007F06AFCD4E91D239B1B3244C4E91D2300
:109DF000C4F880602846BAE76B78FFDE2B78FFDE78
:109E00007D990200002070472DE9F04F4B6885B026
:109E1000CDE900020C46002B71D003F041FFE5684C
:109E2000019B9D4228BF1D468146002D7CD04FF0EE
:109E3000000A5646D3464FF00108D4E90113AB425D
:109E40001F4628BF2F46E9B13A4609EB060007F046
:109E500033FCD4E90223D21BDB1BC4E90223C4F880
:109E600004B0ED1B3E442AB3002B08BF4FF000089E
:109E7000002DE2D1009BC3F800905E60404605B023
:109E8000BDE8F08FABB120463B4650F8101B4A6846
:109E9000D2F804A009EB0602D047D4E90223D21B72
:109EA000DB1BC4E90223ED1B3E445AB14FF0010A0B
:109EB000DAE7E368BAF1000F04D15BB99846002DE8
:109EC000BBD1D7E722681268126822604FF0010AFE
:109ED000002BF3D02168F1B1CDF808B003E0A368FE
:109EE00021680133A3604B6800225F6802A8012348
:109EF000B8470028F3D12061002D9ED1BAE70B6846
:109F00001B681B68002B88D18B68002B85D10360F0
:109F100043609846B2E76160002EABD0019BB3422C
:109F200088BF4FF00008A5E72E464FF00108A1E7D3
:109F300008B50020FEF718FABDE808408020FEF7BB
:109F400013BA00BF08B50020FEF722FABDE80840AA
:109F50008020FEF71DBA00BF70B5C38893421E462D
:109F600028BF1646934284B00D4617D8002400231C
:109F70000DF1030003948DF80330CDE9015600F094
:109F8000E7FB01A98020FEF75BFA044690B19DF83B
:109F9000030000F003FC204604B070BD802014468E
:109FA00003F078FDB4FBF0F202FB1044B4FA84F441
:109FB0006409DCE703F018FF80280CD10A4A0B4B38
:109FC00092E8030083E803009DF8030000F0E6FB3D
:109FD000204604B070BD9DF8030000F0DFFB1024A4
:109FE000204604B070BD00BFAC250300A43400209F
:109FF0002DE9F04F0B780E2B8BB01CD813B3013B1F
:10A000000D2B1FD8DFE803F03612071E465A1E1E1E
:10A010001E1E12748323A24800F0AAFD30B1A14B8A
:10A0200001221A60BFF36F8FBFF34F8F00242046C9
:10A030000BB0BDE8F08F852B04D19B4B1A78032A17
:10A0400000F01181062420460BB0BDE8F08F964B3E
:10A050001A78012AEAD0954995480A78012422F015
:10A0600002021C700A70FEF7F7FA002420460BB0BB
:10A07000BDE8F08F8C4B1A78032AE3D08B498C48CB
:10A080000A78032422F002021C700A700624FEF7EC
:10A09000E3FACCE705230DF111008DF8103003F041
:10A0A00041FE9DF81130834E002203F01F04326000
:10A0B000032C7DD8DFE804F0AD7E5C50C87803281F
:10A0C0000D46BFD07B4E3368002B00F0CA800022C3
:10A0D0007168326098470446002843D13368002BEA
:10A0E00000F0D080AB78002BA0D103F041FE9EE7BA
:10A0F0006D4B1A78002A99D06C496D480A78002473
:10A1000022F002020A701C70FEF7A6FA8FE74FF0E9
:10A110008043D3F8383413F0010F634B1A7806D01C
:10A12000022A83D0614962480A78022497E7012A0B
:10A1300091D17BE75C4A1278052A00F0E381042A7A
:10A140000AD15D4B1D705C490DF111000122FFF732
:10A1500003FF0446062C03D104A8FEF75BF904466E
:10A16000002C75D003F036FE20460BB0BDE8F08F12
:10A170009DF81500020707D004A9FEF735F9062857
:10A180000446EDD19DF8113013F0600FC3F3411573
:10A190000ED19DF81230444A9DF815401278012BDB
:10A1A00000F0E080032B00F0CD80002B00F0ED806C
:10A1B0000624D7E79DF8150007A9FEF7F1F8054634
:10A1C00000285DD09DF81C1004AAFEF709F90628A6
:10A1D0000446C5D19DF8112012F0600FC2D1324B58
:10A1E0009DF81C101B78D20940F059819DF812206F
:10A1F0000B2AB7D1052B40F0F080BDF81330FF2BB0
:10A2000000F238819DF813202846FEF741F90446F4
:10A21000A6E713F0600FC3F341159DD1DB0951D1BF
:10A220009DF81230032B00F0F180092B00F0D7804D
:10A23000012B91D1BDF81330012B8DD1FEF78CF895
:10A24000002800F01981194A137823F002031370D3
:10A2500033686BB103F0C8FD044600287FF4E6AE16
:10A2600043E70E247EE7114911480A78042409E7E0
:10A2700003F0A6FD0024DAE69DF80F0000F08EFA48
:10A2800010246FE70D4B1B68082B7FF4CFAE0C4BEF
:10A290001B68002B3FF4CAAE03F092FDC7E600BF77
:10A2A000AC3400205C70024084340020A0340020D4
:10A2B00074250300A4340020B034002030010010C5
:10A2C000340100109DF81210062900F0AD80082915
:10A2D0003FF430AF00297FF43FAFC24F022238462F
:10A2E00007F0F8F9C04A3B781278900743F0010173
:10A2F00048BF43F00303397048BF3B70BDF81730C7
:10A30000022B1C4628BF0224022B00F2EF80002300
:10A3100000220DF10F00CDE9077409938DF80F208D
:10A3200000F016FA07A98020FEF78AF804460028F4
:10A3300000F091809DF80F0000F030FA062C7FF4B9
:10A3400011AF09E725073FF533AFBDF81330002BF8
:10A350007FF42EAF052A01D020073ED1204603F01E
:10A36000A3FC75E721073FF523AFBDF81330002BA1
:10A370007FF41EAF052A01D023072ED1204603F01B
:10A38000C1FC204603F0B8FF62E7052A01D023078D
:10A3900023D1204603F094FCBDF81730914F022BD7
:10A3A0001C4628BF0224022B388000F29080002334
:10A3B0000DF10F00CDE907748DF80F30099500F00D
:10A3C000C7F907A98020FEF73BF80446002842D0D1
:10A3D0009DF80F0000F0E2F9C4E60824C2E6834CC1
:10A3E0002378043B012BF8D89DF81330002B45D07F
:10A3F000012B3FD1FEF792F82378052B3FF428AFCD
:10A4000005237B482370FEF727F921E7BDF81330B9
:10A41000012B7FF4A1AEFDF79FFF68B3724A13785A
:10A4200043F00203137013E79DF81430022B00F081
:10A430008280032B69D0012B7FF48EAEBDF81730DC
:10A44000002B3FF415AF6B490DF111001222FFF7FD
:10A4500083FD04467EE603F0C7FC80287FF40CAF42
:10A46000654B93E8030086E803009DF80F0000F0B9
:10A4700095F9EDE6072475E60F2473E6FEF7AAF8D2
:10A480002378042B3FF4E4AE574A5948137804214B
:10A4900023F0020313702170FEF7DEF8D8E69DF872
:10A4A0001270002F00F0B0800A2F7FF45BAE052BF6
:10A4B00093D128460192FEF72BF84A49019A0346A8
:10A4C0000B700DF11100FFF747FD044648E68020B0
:10A4D00003F0E0FA0223B3FBF0F303FB00F3A3F174
:10A4E000020CDCF1000545EB0C0560E7802003F071
:10A4F000D1FA0223B3FBF0F303FB00F3991E4B42A6
:10A500004B4105E7374A13701DE6BDF81730002BA5
:10A510003FF4AEAEBDF815109DF8130000F0E2F860
:10A52000014600283FF418AE0A780DF11100FFF73C
:10A5300013FD04460EE6BDF81730002B3FF498AE2D
:10A54000092B28BF09230193FDF724FF002867D0BA
:10A55000A8464FF0090B0DF11C090546CDF81C80EB
:10A560000027A24600E001376A68012354682946A3
:10A5700000224846A0470028F5D12A682B7A1568A2
:10A5800054461C44BB44E4B2002DE7D1154F1B498F
:10A59000019A384607F090F83C71A7F802B0FDF731
:10A5A000DBFE18B1FB7943F02003FB71FDF7F2FEEF
:10A5B000134BBDF81710019C186000224846C3E9F0
:10A5C00002415F608DF81C2000F0C2F80D49802028
:10A5D000FDF74AFF044640B39DF81C0000F0DEF88A
:10A5E000ACE600BFB0340020A0340020843400204A
:10A5F0007425030098250300AC250300782503008B
:10A6000088340020B4250300052B7FF4E6AE114901
:10A610000DF1110002220F80FFF79EFC04469FE51A
:10A620004FF0090B0DF11C09B0E703F0DDFB8028AA
:10A6300009D1094B93E8030086E803009DF81C004C
:10A6400000F0ACF804E69DF81C0000F0A7F8102418
:10A6500088E500BFB0340020AC25030038B50546BE
:10A660000C4603F0C1FBA84207D194E80300044A5A
:10A6700082E803000023184638BD1023184638BD71
:10A68000A434002008B1402303600148704700BF94
:10A69000B034002070B54FF0805286B0D2F8A830A8
:10A6A000D2F8A42000926FEA83436FEA93430B4AE7
:10A6B0000B4E9BB202A80D2107F014F802AD002446
:10A6C00004E015F8013B06F8013B013402A807F04D
:10A6D00045F88442F5D306B070BD00BFBC25030029
:10A6E000A840002028B3052827D838B5154B185C9A
:10A6F00030B1154B53F82040ECB123780BB9A01CB6
:10A7000038BD0020FFF7BEFF2178C1B12246C4F159
:10A7100001055319DCB2234620F8141012F8011F6A
:10A720000029F6D101335B00DBB243F440730380B0
:10A7300038BD06487047204638BD0020704740F2BB
:10A740000233F4E73826030020260300CA2503005D
:10A7500070B4EFF3108472B60D4B9A68AAB90D4924
:10A760000D4E01259D60D1F8805035401D60C1F827
:10A770008060D1F884505D604FF0FF33C1F88430C1
:10A78000027004B962B670BC704701230370F8E729
:10A79000B840002000E100E0FC06FFBD094B9A68CC
:10A7A0007AB170B910B4EFF3108172B6064A1C6822
:10A7B00014605C685460986001B962B65DF8044B3F
:10A7C00070477047B840002000E100E01EF0040F21
:10A7D0001CBFEFF309800AE0EFF308800549064A41
:10A7E000884201D8904202D88D464FF00000034BBA
:10A7F000184700000000042000E0032025A8020004
:10A80000BFF34F8F0549064BCA6802F4E062134359
:10A81000CB60BFF34F8F00BFFDE700BF00ED00E04E
:10A820000400FA052DE9F04782B08046FCF73EFCB3
:10A83000FBF774FE0028FBD1344B354F9D6A354B36
:10A84000B8F1000F57D0FF1AFF083F0447F0010787
:10A85000D8F8182030493846FCF76AF8D8E90232AF
:10A8600001920093D8E900232C493846FCF7FEFA00
:10A87000D8F81C300093D8E9042329493846FCF75E
:10A880000FFA224BDB6A99071DD4DFF8A8A0DFF886
:10A89000A8900024012606FA04F32B4206D05AF8A9
:10A8A0002420494638460AB1FCF742F801341A2CF4
:10A8B000F1D12A0618D42B040AD44046FFF7A0FF92
:10A8C00002B0BDE8F08717493846FBF761FFDCE7C7
:10A8D0000E4B15499A6B3846FCF72AF84046FFF7AD
:10A8E0008FFF02B0BDE8F087084B10495A6B38461D
:10A8F000FCF71EF8DFE7FF1AFF083F0447F00107E7
:10A900000B493846FBF744FFBBE700BF00ED00E012
:10A91000503B0300F03A0300402603005826030092
:10A9200090260300EC2603005C2703003C2703006D
:10A93000B8260300582C03003027030099B110B447
:10A94000B2FBF3F403FB1424A4B244B9C0E900142D
:10A9500084608281C38120465DF8044B70470920E2
:10A960005DF8044B70470E20704700BF30B482B0D2
:10A9700050E8013F9DB2C48925448489A54228BF7F
:10A980002D1B0489A54202BFBFF32F8F002207E0D1
:10A99000C5EA030540E80154002CE9D14FF001025B
:10A9A0008DF803200193019B9DF803200B602AB1D1
:10A9B0000B880068184402B030BC704702F0FF03F7
:10A9C000184602B030BC70470A884B889A4201D0C2
:10A9D0000020704750E8012FC2EA024240E80123FC
:10A9E000002BF7D10120704730B482B050E8023F0D
:10A9F0001FFAA3F5C488A54202BFBFF32F8F002220
:10AA00000DE0C48925448489A54228BF2D1BC3EAD3
:10AA1000054540E80254002CE8D14FF001028DF8C2
:10AA200003200193019B9DF803200B602AB14B8802
:10AA30000068184402B030BC704702F0FF031846AB
:10AA400002B030BC704700BF0A884B889A4201D0E0
:10AA50000020704750E8022FC2EA224240E8022359
:10AA6000002BF7D1012070474A09012301F01F0193
:10AA700000EB820003FA01F100F022B801F01F029E
:10AA800001234909934000EB8100D94300F026B827
:10AA90004B0901F01F0150F82300C84000F00100ED
:10AAA000704700BF10B4034653E8000F0A4643E85E
:10AAB000002494F0000FF7D15DF8044B704700BFFD
:10AAC00010B4034653E8002F42EA010043E80004B3
:10AAD00094F0000FF6D15DF8044B704710B40346B4
:10AAE00053E8002F02EA010043E8000494F0000F4D
:10AAF000F6D15DF8044B704710B4034653E8002FBD
:10AB000002EB010043E8000494F0000FF6D15DF879
:10AB1000044B704710B4034653E8002FA2EB01002A
:10AB200043E8000494F0000FF6D15DF8044B704741
:10AB300010B4034653E8002F8A422CBF501A104627
:10AB400043E8000494F0000FF4D15DF8044B704723
:10AB500010B40346012253E8001F41EA020043E813
:10AB6000000494F0000FF6D15DF8044B704700BF6D
:10AB700010B40346002253E8000F00EA020143E844
:10AB8000001494F0000FF6D15DF8044B704700BF3D
:10AB9000B8B130B4D0E90112521A0468D2B2531ECF
:10ABA0002160DBB242B101680A685C1E551C0D6071
:10ABB0001370E3B2FF2BF6D103680020187130BC8C
:10ABC00070470E20704700BFF0B583B004460025E3
:10ABD0000DF107008DF80750FFF7BAFDD4E90031F9
:10ABE0001A688A4210D9511E19602168A3680F683B
:10ABF00012F8015C0A79268AE068DB1BDBB29A4214
:10AC000006FB050538BF0B719DF80700FFF7C6FD71
:10AC1000284603B0F0BD00BF30B5054683B0002321
:10AC20000DF107000C468DF80730FFF791FD2A68FB
:10AC30001368591C1160E9682A8A641AB4FBF2F49B
:10AC40001C709DF80700FFF7A9FD03B030BD00BFE1
:10AC5000826842B110B504464369016800699847AB
:10AC60000023A36010BD70470EB400B582B00399F5
:10AC700021B104AB01AA019300F0ACF802B05DF879
:10AC800004EB03B0704700BF2DE9F04F164683B0C8
:10AC9000B142DDE90C920F4605469A46C0F0958018
:10ACA0000B464FF00108B3FBF6F39E4208F1010892
:10ACB000F9D9D04538BFD04612F00103019302D133
:10ACC000B9F1000F5ED1AA68012403E00AF1FF3A4E
:10ACD00006FB04F4BAF1010FF8D8B7FBF4F39E4277
:10ACE000F6D9DFF8ECA007E0B442B4FBF6F31AD3D0
:10ACF000AA681C46B7FBF3F31AF803B0BBF10A0FBE
:10AD000004FB137728D02B68511CA96003F802B00C
:10AD1000D5E901329A42E7D32846FFF799FFB4FB01
:10AD2000F6F3B442E4D2019B9BB1B9F1000F10D00D
:10AD30002024C84509F1FF390BD2AB682A68591C99
:10AD4000A960D454D5E901329A4214D2B9F1000F66
:10AD5000EFD103B0BDE8F08F511C2B68A9604FF014
:10AD60000D019954D5E901329A42CCD32846FFF718
:10AD70006FFFAA68C7E72846FFF76AFFB9F1000F1F
:10AD8000D7D1E6E793071AD42024AA68C84502F170
:10AD9000010199D22B68A9609C54D5E901329A42ED
:10ADA00009F1FF3903D2B9F1000FEFD18CE7284642
:10ADB000FFF74EFFAA68B9F1000FE7D184E7BAF1B7
:10ADC000000F0CBF30242024DFE74FF0010870E7AC
:10ADD000C02C0300002900F054822DE9F04FDFF869
:10ADE000B8950C7885B0064690460D464FF00D0A92
:10ADF00010E00A2CB36800F0AD803268591CB160D5
:10AE0000D454D6E901329A4280F0A0802C78002CEC
:10AE100000F087800135002C00F08380252CE8D1DC
:10AE2000294600270D4611F8012B2D2A00F08880B5
:10AE3000302A00F088802B2A7AD02A2A00F09980C4
:10AE4000A2F13003092B4FF000040BD804EB84046B
:10AE500002EB440415F8012FA2F13003092BA4F1F1
:10AE60003004F3D92E2A00F09080002301E015F879
:10AE7000012F02F0FB016829F9D0252A00F0778123
:10AE8000583AD1B2202947D8202A45D8DFE812F015
:10AE900035014400440044004400440044004400A0
:10AEA00044004400440043011301440044004400B2
:10AEB00044001301440044004400440044004400A2
:10AEC000D20044004400A200440094004400440026
:10AED000350101209842024638BF1A460292002CE2
:10AEE00040F05081B80740F16E81002B40F04E8257
:10AEF0001C46BBF1000FC0F20A827A0700F11A82E9
:10AF000007F00302022A00F0EA81CDE90047594622
:10AF10000A223046FFF7B8FE01352C78002C7FF46A
:10AF200079AF337B002B40F01C8105B0BDE8F08F7A
:10AF30000D4611F8012B2D2A47F004077FF478AF56
:10AF400047F001076EE747F002076BE73046FFF76F
:10AF50007FFE5BE73268591CB16002F803A0D6E9B6
:10AF600001239342FFF449AF3046FFF771FEB36807
:10AF700043E7D8F800301A1DC8F800206A781C682A
:10AF80002E2A05F101057FF470AF6A78A2F1300333
:10AF9000092B05F101054FF000033FF66AAF03EB03
:10AFA000830302EB430315F8012FA2F130010929B5
:10AFB000A3F13003F3D95CE7D8F80020111DC8F8DD
:10AFC000001011683046CDE900470A22FFF75CFE09
:10AFD0000135A2E7D8F800301A1DC8F8002017F094
:10AFE0000107D3F800B040F0F080BBF1000F03D0B0
:10AFF000584606F0B3FB0746BC4240F24381002CA2
:10B0000000F04081202205E0BC4200F03B81002C92
:10B0100000F03881B1683368481CB0605A54D6E9F2
:10B020000130984204F1FF34EED33046FFF710FEB2
:10B030002022E9E7D8F80020131DC8F80030B368D3
:10B0400031681768581C3022B060CA54D6E9012311
:10B05000934280F0EF803268581C7821B060D15460
:10B06000D6E901329A4280F0E0800F2F03D93B46A7
:10B070001B090F2BFCD84FF0805406E00F2C4FEA31
:10B0800014137FF649AFB2681C46B7FBF4F319F806
:10B0900003B0BBF10A0F04FB137754D03368511C83
:10B0A000B16003F802B0D6E901329A42E6D33046E5
:10B0B000FFF7CEFDE2E7D8F80020111DC8F8001018
:10B0C000D2F800B08BEAEB72A2EBEB72092A7FF7A1
:10B0D00000AFDFF8C8C2012011466329ACFB02E2D1
:10B0E00000F101004FEAD202F6DC9842024638BF76
:10B0F0001A460292002C45D1F4E6D8F80020111D22
:10B10000C8F8001011683046CDE900471022FFF75B
:10B11000BBFD013501E7D8F800301A1DC8F8002042
:10B120001C78B3680A2C00F011813268591CB16098
:10B13000D454D6E901329A42FFF4EEAE3046FFF71E
:10B1400087FD0135E9E63368511CB16003F802A0C0
:10B15000D6E901329A42A1D33046FFF779FDB268B1
:10B160009CE7304605B0BDE8F04FFFF771BDB3680E
:10B170003168581CB060CA54D6E901329A42DDD217
:10B180000135CAE6BBF1000F59DB7A0757D4B8077F
:10B1900002D5002B3FF4ADAEF9073FF5AAAE94B14E
:10B1A00020220299A142BFF4A4AEB168481CB0604D
:10B1B00030684254D6E90101814204F1FF3480F045
:10B1C000D480002CEDD1002493E69BF80030002BB6
:10B1D00000F0E080B0685F46CBF101020A2B02EB81
:10B1E000070B3CD0411CB16031680B54D6E90130EB
:10B1F000984226D217F8013F002BEFD15C457FF62D
:10B200008BAE202702E05C453FF486AEB26833681F
:10B21000511CB1609F54D6E901329A4204F1FF34C7
:10B22000F1D33046FFF714FDEDE73046FFF710FD90
:10B23000B2681AE73046FFF70BFDB3680BE7013C35
:10B24000A5E730460292FFF703FD17F8013F002BF8
:10B25000D4D0029AB0680A2B02EB070BC2D1411C72
:10B26000B160316801F800A0D6E901108842B9D375
:10B270003046CDE90232FFF7EBFCDDE90232B0687F
:10B28000B0E770479BF80040002C3FF445AE0A2C15
:10B29000B0680ED03368421CB2601C54D6E901304D
:10B2A000984214D21BF8014F002C3FF435AE0A2C03
:10B2B000F0D13368421CB26003F800A0D6E9013037
:10B2C0009842E7D33046FFF7C3FCB068E2E7304668
:10B2D000FFF7BEFC1BF8014F002CD8D11CE6002B59
:10B2E0007FF413AE8CB130220299A142BFF40DAEAF
:10B2F000B168481CB06030684254D6E9010181420F
:10B3000004F1FF343BD2002CEED10024FDE5B168FE
:10B310004A1CB26032682D205054D6E90121914276
:10B32000CBF1000BFFF4ECAD30460393FFF790FC3C
:10B33000039BE5E5B1684A1CB26032682B2050548B
:10B34000D6E901219142FFF4DBADEDE73268591CEB
:10B35000B16002F803A0D6E901239342FFF4E5AE01
:10B360003046FFF775FCB368DFE630460393FFF71E
:10B370006FFC039B2022002C7FF413AF23E73046A1
:10B380000393FFF765FC039B3022BCE7F9073FF509
:10B39000B0AD18E79B4631E7C02C0300CDCCCCCC38
:10B3A000FFF7F6BB2DE9F041058A0331043D4E1944
:10B3B0008046B6FBF5F6FFF707FCA0B3F6B24FF4F4
:10B3C0008073013E0446C580C0F8008083802BD086
:10B3D0000346002508E06279AE4202F10102627183
:10B3E0003860C0F800801FD040461F46FFF7ECFBD6
:10B3F000013503460028EED16779791E17D0224621
:10B40000013399421268FBD1D2F800805FB12668FF
:10B41000002501E034463668214601354046FFF7F5
:10B42000FBFBAF42F6D800242046BDE8F08120683F
:10B430002146FFF7F1FBF6E704300121FFF75CBB83
:10B440002DE9F041012104460430FFF763FB10F0C1
:10B45000FF0301D0BDE8F0816779791E16D022463E
:10B46000013399421268FBD1D2F80080002FF1D04D
:10B470002668002501E034463668214601354046FD
:10B48000FFF7CAFBAF42F6D8BDE8F081206821463D
:10B49000BDE8F041FFF7C0BB2DE9F8430546C6887B
:10B4A0004079144606FB00F2043A04EB030C1F1D1E
:10B4B000624538BFD41ABE428846B7FBF6F106FB98
:10B4C000117002D801392D68FCD1371AA74228BF64
:10B4D00027469CB14FF000090430E41B28443A464B
:10B4E00008EB090106F0E8F8A642B9442D68374692
:10B4F0004FF0000028BF2746002CEDD1BDE8F883AF
:10B500002DE9F8430546C6884079144606FB00F24B
:10B51000043A04EB030C1F1D624538BFD41ABE4227
:10B520008846B7FBF6F106FB117002D801392D6889
:10B53000FCD1371AA74228BF27469CB14FF000091B
:10B5400004302918E41B3A4608EB090006F0B4F869
:10B55000A642B9442D6837464FF0000028BF274661
:10B56000002CEDD1BDE8F8838268002393608268E7
:10B570001361826853618268D36082685360826815
:10B580001360704701600B6843604A68934204BFD0
:10B5900000234360704700BF436843B1026891686D
:10B5A0000B4443605268934204BF002343607047DA
:10B5B000114910B4A1F5947205E052F83330984265
:10B5C00038BF21460CD28C1AE30F03EBE4035B1067
:10B5D000914202EBC304F0D808485DF8044B704771
:10B5E00002D904F10802EEE76068044B5DF8044BF1
:10B5F000002808BF1846704704320300C830030013
:10B6000010B44FF080414FF080520020C1F80C017F
:10B610005E4BC1F81001C1F83805D2F80414C3F824
:10B620002015D2F80814C3F82415D2F80C14C3F866
:10B630002815D2F81014C3F82C15D2F81414C3F836
:10B640003015D2F81814C3F83415D2F81C14C3F806
:10B650004015D2F82014C3F84415D2F82414C3F8C6
:10B660004815D2F82814C3F84C15D2F82C14C3F896
:10B670005015D2F83014C3F85415D2F83414C3F866
:10B680006015D2F83814C3F86415D2F83C04C3F836
:10B690006805D2F840043E49C3F86C050968D2F841
:10B6A0004424C3F87025082924D04FF08043D3F8F0
:10B6B0000024D20744BF6FF00102C3F80024354ACA
:10B6C000D2F8883043F47003C2F88830BFF34F8F4C
:10B6D000BFF36F8F4FF01023D3F80022002A23DB33
:10B6E000D3F80432002B1FDB2B4B2C4A1A605DF879
:10B6F000044B70472A4B1B68002BD6D129482A4A95
:10B700002A4C04602A492B4BFB20C2F818050A6812
:10B710001B68294822F00F0203F00F0313434FF474
:10B7200000720B600260C0E7244A0123C2F80435AE
:10B73000D2F80034002BFBD04FF0102312211F4A07
:10B74000C3F80012D2F80034002BFBD04FF01023C6
:10B7500012211A4AC3F80412D2F80034002BFBD08D
:10B7600000231649C2F80435D1F80034002BFBD071
:10B77000BFF34F8F0749124BCA6802F4E0621343CC
:10B78000CB60BFF34F8F00BFFDE700BF00C000409C
:10B790003001001000ED00E0A82A00200090D00346
:10B7A000340100108C56004000F000404881030036
:10B7B000E40E0040580200104096024000E00140B4
:10B7C0000400FA05074B1B5C1F2B8ABF064A4FF08B
:10B7D000A04203F01F03D2F80405D840C04300F094
:10B7E000010070470432030000030050064B1A5C4E
:10B7F0001F2A86BF054902F01F024FF0A041012316
:10B800009340C1F80C357047043203000003005028
:10B81000064B1A5C1F2A86BF054902F01F024FF033
:10B82000A04101239340C1F808357047043203005A
:10B830000003005030B44FF0A043094940254FF4B5
:10B8400080744FF400704FF48052C3F80855C3F869
:10B850000845C1F80805C3F8082530BC704700BF8B
:10B860000003005030B44FF0A043094940254FF485
:10B8700080744FF400704FF48052C3F80C55C3F835
:10B880000C45C1F80C05C3F80C2530BC704700BF4F
:10B89000000300500A4B185C1F288ABF09494FF06B
:10B8A000A04100F01F00D1F804350122824022EAB5
:10B8B00003001340C1F80805C1F80C35704700BFFC
:10B8C0000432030000030050263818BF4FF0FF3049
:10B8D000704700BFC30706D4830742BF2E4B0C221C
:10B8E000C3F81827704770B44FF08043D3F8403640
:10B8F000DA0722D44FF0A0432749032240264FF411
:10B9000080754FF40074C3F81827C3F82027C1F8D6
:10B910002427C3F83027C3F808654FF48052C3F8D2
:10B920000855C1F808458107C3F8082503D51A4B07
:10B930000C22C3F8182770BC70474FF01023D3F8BF
:10B94000043303F00703072BD4D1144B0122C3F8AF
:10B950000425D3F80024002AFBD04FF0102100204A
:10B96000D1F804230D4C22F0070242F00402C1F882
:10B970000423C3F80405D4F80034002BFBD0BFF334
:10B980004F8F0749074BCA6802F4E0621343CB604C
:10B99000BFF34F8F00BFFDE70003005000E0014000
:10B9A00000ED00E00400FA0542DF704743DF704716
:10B9B00010B568B90E4CA368012262703BB1D3E99F
:10B9C00000230020A2609847A368002BF7D110BD88
:10B9D0000128FCD1064C2369A070002BF7D0D3E9D5
:10B9E00000230120226198472369002BF7D110BD65
:10B9F000F034002070B910B5074CA36801226270C2
:10BA00003BB1D3E900230020A2609847A368002B34
:10BA1000F7D110BD704700BFF034002030B50128C9
:10BA200083B004D003281DD0B0B103B030BD224C88
:10BA300000230DF107008DF80730FEF789FE23780B
:10BA40004BB3E3689DF8070001330122E360A27065
:10BA5000FEF7A4FE03B030BD184B0122C3F88020CE
:10BA600003B030BD144C00F0ADF900230DF1070018
:10BA70008DF80730FEF76CFEE368013BE360E56894
:10BA80002DB19DF80700FEF789FE03B030BD00F030
:10BA9000AFF9A570F5E70A486360A3602361E3602E
:10BAA00000F084F905F026FC10B101232370C8E7EB
:10BAB00000F088F9F9E700BFF034002000E100E071
:10BAC000B1B9020038B50C4C237813B1852528464E
:10BAD00038BD0A486360A3602361E36000F066F943
