:020000022000DC
:1070000000F00320B5720200DD7202007DB70200BD
:10701000E1720200E3720200E5720200000000006B
:10702000000000000000000000000000E772020005
:10703000E972020000000000EB720200ED72020033
:10704000FDDD0200EF7202000DDE0200EF720200B1
:10705000EF720200EF720200D5D60200EF7202005A
:10706000EF720200EF720200EF720200EF72020094
:10707000EF720200EF720200EF720200EF72020084
:10708000EF72020055BA0200EF720200EF720200C6
:10709000EF720200EF720200092D0300EF7202008E
:1070A000EF720200EF720200EF720200EF72020054
:1070B000EF720200EF72020000000000000000000A
:1070C000EF720200EF720200EF720200EF72020034
:1070D000EF720200EF720200EF72020061F702002D
:1070E000EF720200EF720200EF7202000000000077
:1070F00000000000EF72020000000000EF720200CA
:10710000000000000000000000000000000000007F
:10711000000000000000000000000000000000006F
:10712000000000000000000000000000000000005F
:10713000000000000000000000000000000000004F
:10714000000000000000000000000000000000003F
:10715000000000000000000000000000000000002F
:10716000000000000000000000000000000000001F
:10717000000000000000000000000000000000000F
:1071800000000000000000000000000000000000FF
:1071900000000000000000000000000000000000EF
:1071A00000000000000000000000000000000000DF
:1071B00000000000000000000000000000000000CF
:1071C00000000000000000000000000000000000BF
:1071D00000000000000000000000000000000000AF
:1071E000000000000000000000000000000000009F
:1071F000000000000000000000000000000000008F
:1072000010B5054C237833B9044B13B10448AFF3E0
:1072100000800123237010BDB83000200000000062
:107220004855030008B5034B1BB103490348AFF3AE
:10723000008008BD00000000BC300020485503005D
:10724000154B002B08BF134B9D46A3F5803A002138
:107250008B460F461348144A121A0BF041FF0F4B8E
:10726000002B00D098470E4B002B00D098470020F1
:10727000002104000D000D48002802D00C48AFF397
:1072800000800BF0FBFE2000290009F055FE0BF0FA
:10729000E1FE00BF0000080000F003200000000035
:1072A00000000000B830002074F100200000000051
:1072B000000000000649074A074B9B1A03DD043B08
:1072C000C858D050FBDC05F0DFFBFFF7B9FF00002A
:1072D000B056030000300020B8300020FEE7FEE783
:1072E000FEE7FEE7FEE7FEE7FEE7FEE7FEE7FEE776
:1072F000704700BF00B583B0044B0093044A40239D
:1073000000F036F803B05DF804FB00BF157302000F
:10731000D830002002B32DE9F843114B114E8846B6
:10732000144643F0010903270025224608EB050116
:1073300000200AF013F803461D444FF47A40E41A83
:1073400023B9337833B1C847013F06D001233370E6
:10735000002CEAD1BDE8F88370473770BDE8F883A8
:10736000C03D0300D4300020704700BF0AF0D4B8FD
:10737000F0B595B000241D460E460846174605F0A8
:107380007DF9304623460822099505A91A9D0897DC
:107390000D950A948DF82C400C9405F0D3F99DF8C6
:1073A00014308DF81140DDE9061003F00302012AC4
:1073B000CDE9020128D0022A04D0304605F062F956
:1073C00015B0F0BDBDF81650C3F3C2038DF81030F0
:1073D000C5F389150827082D2C4628BF08243B46ED
:1073E00022460EA9304605F0ADF92D1B214608AB0B
:1073F00002AA0EA8274400F027FF002DEBD130464B
:1074000005F040F915B0F0BDBDF81470059DC7F347
:107410008312C3F3C2040EA93046920008238DF8EC
:107420001040C7F3831705F08DF9C5F3952508AB18
:107430003A4628460EA9009302AB00F08DFE304676
:1074400005F020F915B0F0BD08B5FFF78FFF04482F
:10745000042100F0FDFD034B01225A7108BD00BF5D
:10746000985603000030002038B50C4B0C4800241F
:1074700000250022C3E90045FF21C3F818249960C4
:1074800083F82024C3F8142405F0ACF8044610B99E
:10749000044805F08BF9204638BD00BFE8310020D4
:1074A000DC550300FC3D030099B10E4B0E495B1AFD
:1074B000DB0815D030B400220C4D02E001329342BB
:1074C0000BD035F822408442F8D151F8320030BC5C
:1074D0007047054951F830007047002030BC7047B4
:1074E0001846704798560300F0550300B830002046
:1074F000094B013903EBC00003290BD8DFE801F089
:107500000402080604207047022070474079704743
:107510000079704700207047F05503002DE9F047CF
:10752000954CD4E900239A4284B063D00023C4F878
:107530001834BFF34F8FD4E9013503EA0501CA1CA3
:1075400004EB820614F82220500719D527683278F8
:1075500002F00302012A43D0022A03D172880233C7
:1075600003EB921305EA0301D4F81804CA1C04EBD8
:10757000820628B99F4239D914F822205207E6D44E
:1075800004EB81015A1CC96801912A4004EB820274
:1075900001F00301D2680292022903F102062DD004
:1075A000012900F09580D4F810543DB12B6828468D
:1075B0009B689847EB681D68002DF7D16F48704BAA
:1075C0007049C01AC008000440F0020000F0E0F862
:1075D000D4E90030C01A18BF012004B0BDE8F0871C
:1075E00032880233C2F383121344BBE7676004B0EE
:1075F000BDE8F087002004B0BDE8F087BDF8063094
:107600006148C3F38919B9F1500FC84628BF4FF03C
:10761000500868F38F1308F10801ADF8063004F044
:10762000E3FF07460028BED005F028F80023082213
:1076300001A9384605F052F825EA06030133B8EBF4
:10764000830F4FEA830A7DD9BAF1000F00F08D80D5
:1076500005EA06010331A8EB0A0804EB81010823BF
:10766000524638465FFA88F805F038F847494246EE
:107670000AF10803384605F031F809F1030906EB71
:107680009906D4F81834002B6BD1D4F8105465B196
:10769000EB685A7928463946002A5ED02B681B6869
:1076A0009847EB681D68002DF2D1384604F0EAFFD8
:1076B00000230DF103008DF8033004F021F8D4F815
:1076C000183403B966609DF8030004F03FF87FE7C3
:1076D000BDF804302C48C3F38312062A28BF0622C3
:1076E000911C62F389138900ADF8043004F07CFF2B
:1076F000074600283FF457AF04F0C0FF00230822DC
:1077000001A9384604F0EAFFBDF8043013F4707F95
:10771000B7D04FF00008314629404FEA88030331C3
:10772000083304EB81010422384604F0D7FFBDF88A
:10773000043008F10108C3F38313434506F1010641
:10774000E9D89EE705EA0601033104EB81014246D0
:107750000823384604F0C2FF8FE71D68002D97D13B
:10776000A3E7384604F08EFF32E708494246082373
:10777000384604F0B3FF80E7E831002020560300CC
:10778000F0550300E43D0300DC550300F431002014
:107790002DE9F04F644C87B0002306460DF10B0035
:1077A0008DF80B30A568019103F0AAFFD4E90123FD
:1077B00027681A440132D21B012A00F2858004F2A4
:1077C0001C4804F5836A04F214491BE0BDF80E302E
:1077D000C3F389130333090C0BEB930B4846009159
:1077E00004F0E8FA009900283ED04046C4F804B0FE
:1077F00004F0A4FAD4E90113226819440131891A6A
:10780000012962D80121404604F098FA504604F05C
:10781000C1FA484604F0BEFAD4E9013C03EA0C027E
:10782000D11C04EB810014F821E01EF0040F0EF0CF
:10783000040129D104EB8202591CD268039201EAA7
:107840000C0104EB810102F00302012AC96803F173
:10785000020B32D0022AB9D000214846009104F030
:10786000A9FA00990028C0D14046C1E743880BEB34
:1078700093130CEA0302D11C04EB810014F82110CD
:1078800001F004010029D5D090F800E00EF0030EBD
:10789000BEF1010F0BD0BEF1020F03F1020B02F19A
:1078A000030EE3D004EB8E000029EDD1C2E702887D
:1078B0000233C2F383121344DBE7BDF80C30C3F389
:1078C0008313090C9B4489E73A4613400333023281
:1078D00005219DF80B0044F82310226003F036FFC9
:1078E0000021124804F000FA80F31000F1007B1C24
:1078F0002B40019A01F038013D4004EB830341F035
:1079000001010004033540EA164641EA8221DE60A7
:1079100044F8251094F820341BB1FFF7FFFD002830
:10792000FBD107B0BDE8F08FE8310020043600201D
:107930002DE9F04F684C89B0002307460DF1130084
:10794000CDE902128DF81330A56803F0D9FED4E911
:10795000012326681A440132921B022A00F2858014
:1079600004F21C4804F5836A04F214491BE0BDF8D4
:107970001630C3F389130333090C0BEB930B484602
:10798000019104F017FA019900283ED04046C4F84E
:1079900004B004F0D3F9D4E9011322681944013189
:1079A000891A022962D80121404604F0C7F95046DD
:1079B00004F0F0F9484604F0EDF9D4E9013C03EA9B
:1079C0000C02D11C04EB810014F821E01EF0040F1E
:1079D0000EF0040129D104EB8202591CD2680592F1
:1079E00001EA0C0104EB810102F00302012AC968DB
:1079F00003F1020B32D0022AB9D00021484601918E
:107A000004F0D8F901990028C0D14046C1E7438865
:107A10000BEB93130CEA0302D11C04EB810014F866
:107A2000211001F004010029D5D090F800E00EF0FB
:107A3000030EBEF1010F0BD0BEF1020F03F1020BDA
:107A400002F1030EE3D004EB8E000029EDD1C2E772
:107A500002880233C2F383121344DBE7BDF814300B
:107A6000C3F38313090C9B4489E732461340033365
:107A7000033245219DF8130044F82310226003F0DF
:107A800065FEB31C2B4004EB8303039A1348DA60B2
:107A9000002104F029F980F31000F900731C2B4039
:107AA000029A01F03801354004EB830341F04101B3
:107AB0000004033540EA174741EA8221DF6044F8B9
:107AC000251094F820341BB1FFF728FD0028FBD1C6
:107AD00009B0BDE8F08F00BFE83100200436002077
:107AE0002DE9F04F6C4C89B0002607460DF11300CC
:107AF000CDE9011203938DF81360A56803F000FE31
:107B0000D4E9012326681A440132921B032A00F2A9
:107B1000858004F21C4804F5836A04F214491BE0D2
:107B2000BDF81630C3F389130333090C0BEB930B29
:107B30004846009104F03EF9009900283ED04046A6
:107B4000C4F804B004F0FAF8D4E901132268194427
:107B50000131891A032962D80121404604F0EEF868
:107B6000504604F017F9484604F014F9D4E9013CF2
:107B700003EA0C02D11C04EB810014F821E01EF092
:107B8000040F0EF0040129D104EB8202591CD268C3
:107B9000059201EA0C0104EB810102F00302012AC3
:107BA000C96803F1020B32D0022AB9D0002148463D
:107BB000009104F0FFF800990028C0D14046C1E7C9
:107BC00043880BEB93130CEA0302D11C04EB8100F6
:107BD00014F8211001F004010029D5D090F800E03C
:107BE0000EF0030EBEF1010F0BD0BEF1020F03F138
:107BF000020B02F1030EE3D004EB8E000029EDD15D
:107C0000C2E702880233C2F383121344DBE7BDF8F4
:107C10001430C3F38313090C9B4489E732461340A5
:107C20000333043285219DF8130044F823102260A9
:107C300003F08CFDB21C2A40F31C2B4004EB8202A3
:107C400004EB830C029BD3600021039B1348CCF808
:107C50000C3004F049F880F31000F900731C2B403D
:107C6000019A01F03801354004EB830341F08101B2
:107C70000004033540EA174741EA8221DF6044F8F7
:107C8000251094F820341BB1FFF748FC0028FBD1E5
:107C900009B0BDE8F08F00BFE831002004360020B5
:107CA0002DE9F04F6F4C89B0002607460DF1130007
:107CB000CDE9011203938DF81360A56803F020FD50
:107CC000D4E9012326681A440132921B042A00F2E7
:107CD000858004F21C4804F5836A04F214491BE011
:107CE000BDF81630C3F389130333090C0BEB930B68
:107CF0004846009104F05EF8009900283ED04046C6
:107D0000C4F804B004F01AF8D4E901132268194445
:107D10000131891A042962D80121404604F00EF885
:107D2000504604F037F8484604F034F8D4E9013CF2
:107D300003EA0C02D11C04EB810014F821E01EF0D0
:107D4000040F0EF0040129D104EB8202591CD26801
:107D5000059201EA0C0104EB810102F00302012A01
:107D6000C96803F1020B32D0022AB9D0002148467B
:107D7000009104F01FF800990028C0D14046C1E7E7
:107D800043880BEB93130CEA0302D11C04EB810034
:107D900014F8211001F004010029D5D090F800E07A
:107DA0000EF0030EBEF1010F0BD0BEF1020F03F176
:107DB000020B02F1030EE3D004EB8E000029EDD19B
:107DC000C2E702880233C2F383121344DBE7BDF833
:107DD0001430C3F38313090C9B4489E732461340E4
:107DE00003330532C5219DF8130044F823102260A7
:107DF00003F0ACFCB01C2840F21C331D2B402A4081
:107E000004EB800004EB820204EB830C029BC36052
:107E1000039BD3600021129B1348CCF80C3003F075
:107E200063FF80F31000F900731C2B40019A01F0EE
:107E30003801354004EB830341F0C10100040335F0
:107E400040EA174741EA8221DF6044F8251094F8A0
:107E500020341BB1FFF762FB0028FBD109B0BDE85D
:107E6000F08F00BFE8310020043600202DE9F04FEC
:107E7000754C89B0002607460DF11300CDE90112BB
:107E800003938DF81360A56803F03AFCD4E901234D
:107E900026681A440132921B052A00F2858004F2FA
:107EA0001C4804F5836A04F214491BE0BDF816303F
:107EB000C3F389130333090C0BEB930B4846009172
:107EC00003F078FF009900283ED04046C4F804B083
:107ED00003F034FFD4E90113226819440131891AEF
:107EE000052962D80121404603F028FF504603F0DF
:107EF00051FF484603F04EFFD4E9013C03EA0C026F
:107F0000D11C04EB810014F821E01EF0040F0EF0E8
:107F1000040129D104EB8202591CD268059201EABE
:107F20000C0104EB810102F00302012AC96803F18C
:107F3000020B32D0022AB9D000214846009103F04A
:107F400039FF00990028C0D14046C1E743880BEBB8
:107F500093130CEA0302D11C04EB810014F82110E6
:107F600001F004010029D5D090F800E00EF0030ED6
:107F7000BEF1010F0BD0BEF1020F03F1020B02F1B3
:107F8000030EE3D004EB8E000029EDD1C2E7028896
:107F90000233C2F383121344DBE7BDF81430C3F39A
:107FA0008313090C9B4489E732461340033306329E
:107FB00040F205119DF8130044F82310226003F0ED
:107FC000C5FBB11C06F1030C29400CEA050C321D5F
:107FD000731D2B402A4004EB810104EB8C0C0298AA
:107FE000C86004EB820204EB830E039BCCF80C30D8
:107FF000129BD3600021139B1448CEF80C3003F081
:1080000073FE80F31000F90001F03801731C2B405F
:10801000019A41F48071354004EB830341F0010182
:108020000004033540EA174741EA8221DF6044F843
:10803000251094F820341BB1FFF770FA0028FBD10B
:1080400009B0BDE8F08F00BFE83100200436002001
:1080500030B4154DD5F810140446002071B10B460C
:1080600001E01B6853B1DB681A798242F9D1013013
:108070000A28F3D14FF0FF3030BC7047E368187125
:10808000D5F810344BB1DA68E36812681A60D5F895
:108090001034DB681C6030BC7047C5F81044E268DF
:1080A000136030BC704700BFE831002038B5094B81
:1080B000D3F81044012583F820544CB1E3685D7176
:1080C000236820465B689847E3681C68002CF5D15C
:1080D00038BD00BFE831002030B5C38885B0044604
:1080E0000D461BBB217A05291ED0627A82B9134A3C
:1080F000A08852F8212003920021FFF7D5F9039AB6
:108100000F490346284605B0BDE8304003F0CEBE17
:10811000A088FFF7EDF90B4B0B4953F820202846B8
:1081200003F0C4FE217AE2E705B030BD074A0092B1
:108130000749084A284603F0B9FED3E7CC3E0300BE
:10814000343E0300A83E0300303E0300283E0300F7
:10815000103E0300083E03002DE9F04385B04FF0C8
:10816000000C0C9C814694F80C8084F80CC00E46E0
:108170001746184621461D46FFF7AEFF062F09D8C1
:10818000DFE807F0042E343B444F1F0049462046E9
:1081900003F08CFE2B7A052B05D06B7A5BB927494F
:1081A000204603F083FE204603F074FE84F80C8022
:1081B00005B0BDE8F083224A2249204603F076FE4E
:1081C000EDE7D6E90413F2680393B3680291CDE9B1
:1081D00000324946D6E90023204603F067FED9E77E
:1081E00032684946204603F061FED3E7D6E9002312
:1081F0004946204603F05AFECCE7B3680093D6E91F
:1082000000234946204603F051FEC3E7D6E9023277
:1082100001920093D6E900234946204603F046FE2A
:10822000B8E7D6E90321B3680291CDE900324946A7
:10823000D6E90023204603F039FEABE7403E0300B9
:10824000283E0300303E0300082900D970472DE97D
:10825000F04F9B4683B000241B7B8BF80C400D46EF
:1082600006465946104690460193DFF8D0902C4FB1
:10827000FFF732FF05E0325D013403F017FE082CF2
:1082800009D0A54239465846F5D84946013403F08D
:108290000DFE082CF5D12349DFF8A490224C234F82
:1082A000584603F003FE4FF0000A0DE0D15D11F0D7
:1082B000970F08BF2E22214658460AF1010A03F003
:1082C000F5FDBAF1080F10D0554505D916F80A206A
:1082D0007E2AEBD92E22EEE7494658460AF1010ADA
:1082E00003F0E4FDBAF1080FEED198F80830052B41
:1082F00002D098F8093063B90D49584603F0D6FD0D
:10830000584603F0C7FD019B8BF80C3003B0BDE865
:10831000F08F084A0849584603F0C8FDECE700BF53
:10832000443E0300503E0300543E03000D5403003E
:10833000403E0300283E0300303E03004C3E030055
:108340003C3E030038B5174B1D783DB3164B1968FA
:10835000C0B200230C4604E00133AB4204F1080430
:108360001CD011F833209042F6D105F0A3F96378C0
:10837000A3F10103B3FA83F35B09834200D038BD54
:108380000A4BD3E900231343F9D1094B0948196873
:108390000022BDE83840490800F00ABC00231B78E1
:1083A000FFDE00BFA4360020F8360020D0360020C3
:1083B000A8360020B03600202DE9F04FDFF85482B7
:1083C00098F8003083B0002B00F01981DFF8489254
:1083D0008C4F8D4E00254FF0010A3C6814F8350093
:1083E00005F068F904EBC50314F835405B784FEAF3
:1083F000540C14F0010E16F80C10A3F10103B3FA9B
:1084000083F314BF0A0901F00F025B09042A00F28A
:10841000A080DFE802F0725D32200300834240F06A
:10842000AB80BEF1000F0CBFF0230F2303EA010362
:108430000CBF03213021194306F80C1098F80020D6
:1084400001359542C9DBD9E90023134340F0CD80C3
:1084500003B0BDE8F08F83427BD0BEF1000F0CBFAC
:10846000F0230F2303EA01030CBF04214021194329
:1084700006F80C1098F80020E2E783426CD1BEF1B8
:10848000000F0CBFF0230F2303EA010398F800202C
:108490000CBF03213021194306F80C10002AD2D05A
:1084A000D7F800C00023614603E0934201F10801C0
:1084B000C6D01CF83300A04203F10103F5D14B688C
:1084C000002BBDD020460121984798F80020B7E73F
:1084D000834219BF0020034602232020BEF1000F73
:1084E0000CBFF0220F2201EA020118BF03460B4322
:1084F00006F80C3098F80020A2E7834229D1BEF19B
:10850000000F14BF0F23F02303EA010314BF10214F
:10851000012119430DF107004FF0000306F80C107C
:108520008DF8073003F0ECF8D9E90032A4F120010E
:10853000C4F120000AFA01F12AFA00F001430AFA14
:1085400004F4114323439DF80700C9E9003103F007
:10855000FDF898F8002073E7BEF1000F0CBFF02380
:108560000F2303EA01030CBF01211021194306F870
:108570000C1098F8002063E7BEF1000F14BF0F2322
:10858000F02398F80000194006F80C1098B1D7F8BD
:1085900000C00023624603E0834202F108020AD0D1
:1085A0001CF83310A14203F10103F5D1536813B154
:1085B0000021204698474FF000030DF107008DF889
:1085C000073003F09DF8D9E90032A4F12001C4F18D
:1085D00020000AFA01F12AFA00F001430AFA04F431
:1085E00022EA010123EA0403ADE7084B08481968B1
:1085F0000022490800F0DCFA03B0BDE8F08FDFF894
:10860000189020E7F8360020D8360020A836002041
:10861000B0360020A4360020D0360020092A43D9E5
:108620002DE9F04182B0144606460D4604F0DAFE0C
:10863000002832D0214A2249224B16600D70224870
:108640001C60002120220AF04BFD204B002000215D
:108650006C1EC3E90001E4B245B3DFF87C8006EB91
:10866000C404032702E0A64220D01C469DF8063031
:10867000A57820788DF8047023F00703424601A9FD
:108680008DF806308DF8055004F0B6FEA4F108030D
:108690000028E8D002B0BDE8F08104F055FE0028C3
:1086A000C8D002B0BDE8F08107207047084A0948E9
:1086B000002100F06FFA02B0BDE8F081F83600202A
:1086C000A4360020A8360020D8360020D03600205E
:1086D000B9830200EC3E03004583020070B5084DEB
:1086E0002B785BB1074E00243368012113F8340066
:1086F00004F074FF2B780134A342F5D8002070BD3C
:10870000A4360020F836002000B585B003460021CD
:1087100001AA44F20100CDE90111039308F070FBB6
:1087200005B05DF804FB00BFF0B4044612F003008E
:1087300011D14B1CDB00094D094E0A4F30709BB222
:1087400013442B60084E094D094B30702C80198062
:108750003A60F0BC70470720F0BC7047003700203B
:10876000FC360020043700200C370020083700209A
:108770000A3700202DE9F047194C1A4D22782B7842
:108780009A4222D0DFF868A0DFF86890164F174EA3
:108790004FF000082378DAF80020D9F80010388864
:1087A00002EBC30C03FB001052F83330BCF804108A
:1087B000984722783188D3B201339142DBB206D98F
:1087C000237023782A789A42E4D1BDE8F08784F8B0
:1087D000008022782B789A42DCD1BDE8F08700BF78
:1087E0000C370020FC360020083700200A37002014
:1087F0000437002000370020D0E90223D1E902012C
:10880000994208BF90422CBF01200020704700BF52
:108810002DE9F04F2DED028B85B0064603F0DAF816
:1088200040B1B54AD2E9003113F1807341F1000142
:10883000C2E900310021304603F0E8F8AF4C60B1E6
:10884000236853B1AE4B25681B7823B11DB12B7F34
:10885000002B40F01C81002323600121304603F0EF
:10886000D5F8002840F0F680A64803A903F0DEF909
:1088700078B3A54DDFF88882A24F0BE0002B00F003
:10888000CD8003A9384603F001FA03A9384603F066
:10889000CDF9F0B10378012B12D0022BEED128468E
:1088A0004FF0000903F0BAFF30B180F81C90284661
:1088B00003F0B4FF0028F8D1012388F80030E0E786
:1088C00041682368994200F0BA80284603F0B0FF5F
:1088D000D7E7DFF834828D4FDFF81C9208EE106A7C
:1088E00037E0404603F09AFF05463846AB68EA6831
:1088F0000193009203F09AF8854E8446D9E900016D
:10890000D6E9002310EB0C0041F10001994208BFA9
:108910009042DDE9002303D210F1807041F10001A3
:10892000B3EB000A62EB010BBAF1010F7BF100031C
:1089300029DBBAF5350F6BD2AA684FF496030021F4
:10894000384602F0C1FF00285AD00D281FD000235E
:108950002360404603F068FF002873D02368002B93
:10896000BFD02368D0E90201D3E90223994208BFAE
:10897000904248D223681B7F002BB2D0216840462A
:1089800003F038FFADE70021384603F033F85C4BC5
:108990001B78002BDBD02B7F002BD8D0384603F080
:1089A00045F88446D9E90001D6E9002310EB0C0014
:1089B00041F10001994208BF904203D210F180704A
:1089C00041F10001D5E90223994208BF904259D3F1
:1089D0002B6903B92B77D5E9053098472969002918
:1089E000B5D02B7F002BB2D0D5E90223521843F12A
:1089F0000003C5E902232946404603F0FBFEA6E733
:108A00002368BBB1256005B0BDEC028BBDE8F08FDB
:108A1000384603F00BF83F4A02448EE743681A7F5A
:108A2000002A7FF42EAF01221A774168284603F00E
:108A3000E1FE26E718EE100A02F018FFE2E7002335
:108A400023601EE72368002BDDD118EE100A02F028
:108A500011FFD8E72D482E4D02F0E8FF264BD3E951
:108A60000089D5E9002318EB000849F10009994570
:108A700008BF904503D218F1807849F10009C5E993
:108A80000089F1E62946404603F0B4FE5FE71F483F
:108A900002F0CCFF184A1E4BD2E90089D3E900232B
:108AA00018EB000849F10009994508BF904503D229
:108AB00018F1807849F10009D5E90223994508BFEA
:108AC000904529D32B6903B92B77D5E90530984711
:108AD000296900293FF4BFAE2B7F002B3FF4BBAECA
:108AE000D5E90223521843F10003C5E902230648E1
:108AF000294603F07FFEAEE61837002098370020A5
:108B0000203700207C370020003F03000830002081
:108B100090370020FFFFB4000248294603F06AFEA8
:108B200099E600BF003F030010B5134B13491B68C3
:108B3000134882B058220193082303F021F8044619
:108B400010B1204602B010BD0E4A0F4801A902F034
:108B50002FFE04460028F4D10B48012102F030FF1B
:108B600001231946094A084802F088FE084B0122F1
:108B700020461A7002B010BDFC3E030024370020CE
:108B80007C3700201188020008300020FFFF7F00A2
:108B9000203700204AB1A1F101010368B1FA81F147
:108BA0004909C3E90412002070470720704700BF3D
:108BB000037F0BB100207047F0B5826183B004469B
:108BC0001A480D4602F032FF194B1A49D3E9002327
:108BD000D1E90067121843F10003BB4208BFB2425B
:108BE00003D212F1807243F100035219216943F15B
:108BF0000003C4E9022301B125610F4801A902F075
:108C0000D7FF48B100254460057001A90A4802F069
:108C1000FDFF20B903B0F0BD042003B0F0BD034850
:108C200002F008FF284603B0F0BD00BF0830002066
:108C300018370020903700207C37002030B5002501
:108C400083B00446057701A90B4802F0B1FF78B163
:108C500001224460027001A9074802F0D7FF08B959
:108C600003B030BD054802F0E5FE284603B030BD34
:108C7000042003B030BD00BF7C3700200830002046
:108C800070B582B0154801A902F092FF18B3144ED6
:108C900004463068206000250DF103008DF8035074
:108CA00002F02EFD0F4B10481B88026801339B1AFF
:108CB000E380294603F018F8A0809DF8030002F035
:108CC00045FD01A9054802F0A1FF084B1B680146BC
:108CD0000BB13046984702B070BD00BF4839002044
:108CE000343F03003C38002068390020A0370020C2
:108CF00070B50378052B82B0044629D0002B34D1FF
:108D0000304B1D683DB12B6860889B6898472B6885
:108D10005D68002DF7D12C4D002301A88DF804309B
:108D200002F0EEFC2B6813B9284B62881A800121EF
:108D3000254803F003F89DF8040002F007FD244BDA
:108D40001B6813B12046012198472B6802B070BD03
:108D5000204BD3F88424D3F8803413F0FF0F04D1D0
:108D60001D4BD2B2052A08BF1C461C4801A902F0BF
:108D70001FFF05460028E9D02368036000260DF197
:108D800003008DF8036002F0BBFC104B0E481B88FB
:108D9000026801339B1AEB80314602F0A5FFA880E0
:108DA0009DF8030002F0D2FC01A90C4802F02EFF4E
:108DB000074B1B680146002BC8D02046984702B0DD
:108DC00070BD00BF60390020683900203C380020A9
:108DD000A037002000700240303F030048390020D7
:108DE00070B5012882B006D00228044630D0002891
:108DF00037D002B070BD294801A902F0D9FE04465F
:108E00000028F6D0264E3068206000250DF10300C2
:108E10008DF8035002F074FC224B23481B88026833
:108E200001339B1A2946E38002F05EFFA0809DF883
:108E3000030002F08BFC01A9184802F0E7FE1B4B6F
:108E40001B680146002BD4D03046984702B070BD55
:108E5000124801A902F0ACFE04460028C9D0144E05
:108E6000D1E70E4801A902F0A3FE05460028C0D0B4
:108E7000104E306828600DF103008DF8034002F0B9
:108E80003FFC084B08481B88026801339B1A2146A7
:108E9000EB8002F029FFA880C9E700BF4839002015
:108EA000283F03003C38002068390020A03700200C
:108EB0002C3F0300243F03002DE9F04F87B000252D
:108EC00004460F4690469946029500E001356268D7
:108ED000012356682146002202A8B0470028F5D198
:108EE0008DF80600049065B3824683460AE09DF83B
:108EF00006306668023B7668B0479DF806309B44B2
:108F00005D451ED962680123566821460DF10602AF
:108F100004A8B04762680123566821460DF1070294
:108F200004A8B0479DF80730BB424FF0000221462D
:108F300004A8DCD1D04508D00AF1010A5FFA8AFA08
:108F4000D5E7052007B0BDE8F08F109A9DF80630F0
:108F5000136089F8003089F801706168023B4D6840
:108F600009F102022146A847002007B0BDE8F08FB2
:108F70002DE9F047484982B00546082347484FF499
:108F8000847202F0FDFD002874D1454805F0CEFE44
:108F9000044618B1204602B0BDE8F087414A424974
:108FA000424B14700C604822214641481C600AF074
:108FB00097F84048214648220AF092F8002D63D0E5
:108FC00095E807003C4B83E80700002004F0BAF85E
:108FD000002854D1DFF8E4E09EF80830002B58D088
:108FE000013BDBB20EF10C024FF00309DEF8048006
:108FF000304D2F4F19FB03290EF1090C9CF801404D
:10900000CCB19CF802200CF101031344013C53FA4B
:1090100084F4624412F8013B03F00F011B0605EBD8
:10902000C10607EBC10A18D445F831E09442D8F8DC
:1090300000307360EED10CF1030CCC45DED10B2374
:109040008DF804301D48D8F8003001A9984704462F
:1090500000289FD005F0FEFE9CE747F831E09442DF
:10906000D8F80030CAF80430D4D10CF1030CCC4548
:10907000C4D1E4E70324204602B0BDE8F087852888
:10908000A8D0FFF741FBA5E70B4BC3E900551D72C4
:109090009BE7DEF80480D2E7403800204839002002
:1090A000F18C02006C390020583900205C39002016
:1090B000AC370020F4370020A0370020783F0300B1
:1090C00010B505F0F5FF68B105F0FAFF044648B9A0
:1090D000064804F051F8034628B1FFF715FB234674
:1090E000184610BD0823184610BD00BF203F0300DE
:1090F00005F0BABE06F0E2BE4FF0804303E0D3F8BD
:109100003824D10730D5D3F838249207F7D570B575
:1091100082B0164801A902F04BFD044610B3144E6C
:109120003068206000250DF103008DF8035002F037
:10913000E7FA104B10481B88026801339B1AE38042
:10914000294602F0D1FDA0809DF8030002F0FEFA4E
:1091500001A9064802F05AFD084B1B6801460BB1F5
:109160003046984702B070BD704700BF48390020B4
:10917000383F03003C38002068390020A037002029
:1091800030B583B0822316488DF8003001A902F073
:109190000FFD10B304460098206000250DF1030078
:1091A0008DF8035002F0ACFA0E4B0F481B88026892
:1091B00001339B1AE380294602F096FDA0809DF8BA
:1091C000030002F0C3FA01A9054802F01FFD074B96
:1091D0001B6801460BB16846984703B030BD00BF1D
:1091E000483900203C38002068390020A037002092
:1091F0002DE9F04390F8088083B0B8F1000F6CD0EF
:1092000008F1FF395FFA89F300F10C024FF003090E
:1092100000F10905DFF8E8C0DFF8ECE019FB0329ED
:1092200029464F7800239F4201EB03021AD08C7825
:109230001657125D002E02F00F0408DB5CF8342094
:109240000133002AEFD0112003B0BDE8F08302F013
:109250000F0201335EF83220002AF4D19F4201EB65
:109260000302E4D103314945DBD14FF0000E244F16
:10927000DFF894C0724602EB42022A44537833B3BB
:1092800000210B460AE047F8340043681B68C8F821
:10929000043054780131CBB29C4216D994781344EF
:1092A0001E571B5D002E03F00F0407EBC4080CEBE8
:1092B000C409E8DA4CF8340043681B68C9F8043084
:1092C00054780131CBB29C42E8D890F808800EF176
:1092D000010E5FFA8EF24245CDD30A4A13681BB1E4
:1092E0001A681368002BFBD1106043680B228DF8BD
:1092F00004201B6801A9984703B0BDE8F08300BFB4
:10930000F437002058390020AC370020024B187881
:10931000003818BF0120704764390020030710B5DA
:10932000044604D52046BDE8104006F023BB06F0F5
:1093300063F8204606F07AFB2046BDE8104006F0B0
:1093400019BB00BF06F0FCBC014B1868704700BF9A
:1093500058390020F0B40E4B1F688FB13E7A96B199
:1093600000231C463A4602E0DCB2A6420BD9557AED
:10937000854203F1010302F10302F5D101B10C7042
:109380003846F0BC70473B681F68002FE6D1F7E70E
:1093900058390020436811461B68184700F00F0336
:1093A000082B0AD802064CBF054A064A02EBC30343
:1093B000186810B143681B6818471020704700BF39
:1093C000AC370020F437002038B5094B1C6864B175
:1093D000054602E023681C683CB1636829461B68A7
:1093E000204698470628F5D038BD062038BD00BF76
:1093F0005839002038B50D46044605F0D5FE18B1A1
:10940000054B1B78022B01D0082038BD2946204689
:10941000BDE8384005F0D8BE6C39002038B50D469F
:10942000044605F0C1FE18B1054B1B78022B01D094
:10943000082038BD29462046BDE8384005F052BF17
:109440006C39002070B543689B6882B006460C46B4
:10945000154623B19847062801D002B070BD4DBB18
:10946000337AA3422BD9093604EB44017418667889
:10947000EEB12B46324606E0013506F07BFAEBB240
:109480009E4214D962789A4216D9A3786219D05CA8
:109490000307F1D4019005F0AFFF019806F0C6FA7A
:1094A0000135019806F066FAEBB2B342EAD3002028
:1094B00002B070BD0720D0E700231B78FFDE6B7879
:1094C000FFDE00BF43681B6903B1184718467047A9
:1094D0002DE9F0432B4B1F6883B0002F49D097F83C
:1094E0000880B8F1000F40D00026344607F1090586
:1094F00005E00136F4B2A04505F1030535D97B68D6
:109500009B682BB100222146384698470628F0D1A7
:109510003B7AA34230D995F80190B9F1000FE8D019
:10952000002423464A4606E0013406F023FAE3B25B
:109530009945DED96A78934221D2AB782A19D05C5A
:109540000307F1D4019005F057FF019806F06EFA79
:109550000134019806F00EFAE3B24B45EAD3013626
:10956000F4B2A04505F10305C9D83B681F68002F78
:10957000B5D103B0BDE8F08300235B78FFDE0023A4
:109580001B78FFDE583900202DE9F8431E4B1F6879
:10959000002F34D097F80890B9F1000F2BD04FF07E
:1095A0000008454607F109047B68DB6813B12946CA
:1095B000384698473B7AAB4223D966789EB100255E
:1095C0002B46324693420BD2A37862190135D05C08
:1095D00006F0B6FBEBB29E4205D962789342F3D314
:1095E00000231B78FFDE08F101085FFA88F5A94522
:1095F00004F10304D8D83B681F68002FCAD1BDE826
:10960000F88300235B78FFDE5839002070B50378BB
:109610000446852B00F2BF80DFE813F00002B201A0
:10962000BE003A026602E300EA00BD000401170131
:109630002A01BD00BD00BD00BD003D01BD00BD0053
:10964000BD00BD00BD00BD00BD00BD00BD00BD0032
:10965000BD00BD00BD00BD00BD00BD00BD00BD0022
:10966000BD00BD00BD00BD00BD00BD00BD00BD0012
:10967000BD00BD00BD00BD00BD00BD00BD00BD0002
:10968000BD00BD00BD00BD00BD00BD00BD00BD00F2
:10969000BD00BD00BD00BD00BD00BD00BD00BD00E2
:1096A000BD00BD00BD00BD00BD00BD00BD00BD00D2
:1096B000BD00BD00BD00BD00BD00BD00BD00BD00C2
:1096C000BD00BD00BD00BD00BD00BD00BD00BD00B2
:1096D000BD00BD00BD00BD00BD00BD00BD00BD00A2
:1096E000BD00BD00BD00BD00BD00BD00BD00BD0092
:1096F000BD00BD00BD00BD00BD00BD00BD00BD0082
:10970000BD00BD00BD00BD00BD00BD00BD00BD0071
:10971000BD00BD00BD00BD00BD00BD005101860003
:1097200060011C02E301E3008C4B8D49D3E9000288
:1097300090478C4B1C684CB1894D636820461B6870
:109740002946984723681C68002CF6D1864C63682C
:109750000BB10D209847FFF717FF01F0CDFB834BAE
:109760001B68002B00F0FD810120814D05F06AFC93
:109770002A78931EDBB2062B00F215827D49CB5C62
:1097800013B103F03FFC2A78022A40F00C8205F066
:10979000E1FC01232B7070BD754D2A78931EDBB25E
:1097A000062B00F2CD817349CB5C13B103F02AFC88
:1097B0002A78022A40F0C48105F0CCFC6A4B5B6831
:1097C00003222A700BB102209847664B1D6845B1F1
:1097D0006B6828461B68214698472B681D68002D3A
:1097E000F6D15E4B2146D3E90002BDE87040104738
:1097F00090F902308278002BB4BF5F4B574B02F0D8
:109800000F0203EBC203D3E9000221469047002870
:10981000C1D0A0780207BED00307BCD4BDE8704019
:1098200005F0BCBD504B5B680BB1082098474D4B11
:109830001D68002DAFD06B6828461B6821469847ED
:109840002B681D68002DF6D1A5E7474B5B680BB16F
:1098500009209847434B1D68002D9CD06B68284613
:109860001B68214698472B681D68002DF6D192E7AA
:109870003D4B5B680BB10A2098473A4B1D68002DA1
:1098800089D06B6828461B68214698472B681D685D
:10989000002DF6D17FE7344B5B680BB10F20984762
:1098A000304B1D68002D3FF476AF6B6828461B686F
:1098B000214698472B681D68002DF6D16BE72C4C8C
:1098C0002378062B00F04F8103F0FD03052B7FF476
:1098D00062AF05F049FC0223237070BD244DFFF7F1
:1098E00053FE06F04BF92A78931EDBB2062B31D8D3
:1098F0002049CB5C13B103F085FB2A78022A29D1D9
:1099000005F028FC174B1C6800232B704CB11B4E34
:10991000636820461B683146984723681C68002C02
:10992000F6D10E4B1549D3E9000290470E4B5B6808
:109930000BB10E2098472B78023BDBB2062B3FF68B
:109940002AAF0C4AD35C002B3FF425AFBDE8704032
:1099500003F058BB082AD5D1D2E700BFF437002066
:109960003C3F030058390020A03700205C3900201C
:109970006C390020183F0300AC370020403F030043
:109980009C4DFFF701FE01F0ADFA2A78931EDBB281
:10999000062B00F2D9809849CB5C002B00F0D480D4
:1099A000022A03D0082A01D005F0DEFB934B5B6846
:1099B00002222A700BB101209847914B2146D3E92E
:1099C000000290478F4B1D68002D3FF4E4AE6B689A
:1099D00028461B68214698472B681D68002DF6D144
:1099E00070BD844D2B78032B00F0C68005F072FB10
:1099F00000283FF4D0AE2A78931EDBB2062B40F24B
:109A0000EB80814803F0C0FA2A78022A01D0082AA4
:109A100001D105F09FFB06232B7070BD754B1B78A1
:109A2000032B00F0A580082B00F0A280734B5B682D
:109A30000BB100209847754B1D68002D3FF4ABAE6D
:109A40006B6828461B68214698472B685D68002D87
:109A5000F6D170BD674D2B78032B7FF49CAE06F0DA
:109A60002DFB00283FF497AE2A78931EDBB2062B1D
:109A700000F2BB806049CB5C13B103F0C3FA2A78D3
:109A8000022A40F0B28005F065FB04232B7070BD04
:109A9000584D2A78082A5CD0931EDBB2062B00F2C0
:109AA00086805549CB5C002B00F08180022A00F0B3
:109AB000878005232B70514B5B680BB103209847BF
:109AC0004F4B2146D3E9000290474E4B1D68002DB5
:109AD0003FF461AE6B6828461B68214698472B68A7
:109AE0001D68002DF6D170BD444B5B680BB103209F
:109AF0009847434B4649D3E900029047414B1C68C5
:109B00004CB1434D636820461B682946984723683B
:109B10001C68002CF6D1374D2B78062B1ED0082B55
:109B20000BD09A1ED2B2062A4DD833498A5C002A3D
:109B300049D0022B01D005F017FB02232B7070BD1A
:109B4000082A7FF43BAE37E62F4803F01DFA2A7847
:109B500026E702232B7005F011FBACE707232B70DF
:109B600070BD207A01E605F0FFFA0823237070BD6E
:109B70002848FFF74BFD59E706F0A0FA00283FF40C
:109B800035AF2A78931EDBB2062B2BD81A49CB5C53
:109B900013B103F037FA2A78022A23D105F0DAFA52
:109BA00004232B7022E7082A7FF4F3ADEFE5164873
:109BB00003F0EAF92B78022B02D0082B7FF479AF5F
:109BC00005F0C8FA75E7104803F0DEF92B78022B90
:109BD000B3D0082BB1D0AEE70749CB5C002B7FF4A4
:109BE00014AF0EE7082ADBD1D8E7082A7FF44DAF7F
:109BF00049E700BF6C390020183F0300A037002060
:109C0000F437002058390020103000205C39002043
:109C1000483F0300443F030070B5294E82B03468CA
:109C2000002301930CB3A588A5B1E388B3F5006FB9
:109C30003ABF5A1C92B2012205F1FF3528BF00231A
:109C400001A8A580E280ADF80630FFF7DFFC012017
:109C500002B070BD2046FFF7D9FC1A491A4802F03D
:109C600015F80120356002B070BD1649164801F0A4
:109C7000DDFF044630600028D5D1144B1868002859
:109C8000E6D00DF103008DF8034001F039FD104AD4
:109C90000E481388B3F5006F35BF5C1C2346A4B291
:109CA000012401211480ADF8063002F063F89DF81C
:109CB000030001F04BFD01A8FFF7A8FC0120C7E756
:109CC000703900209C370020483900206839002076
:109CD0003C380020F0B504680E7A002C00F078843F
:109CE000A4F212347C2C00F2C5827C2C00F2C282D9
:109CF000DFE814F074020503E302D402CB0231035F
:109D00000E032A03C002C002C002C002C002C00289
:109D10006702DC02C002C002C002C002CC0116030E
:109D2000EB02C002C002C002F401F4039303C002BC
:109D3000C002C002C002FF00D1034F03C002C00234
:109D4000C002C002C002C0026402C002C002C0025F
:109D5000C0021901A2039A03B2035E03C002C0024B
:109D6000C9038B03BA0340036603C002C002480361
:109D7000DB015703ED00C002C0023903DB00FB0327
:109D8000BD00C203C002C002C002C002C002C002C5
:109D9000C002C002C002C002C002C002C002C002B3
:109DA000C002C002C002C002C002C900D903C00282
:109DB000C002C0026E03C002C002C002C002AC00FA
:109DC000C002C002C002C002AC00C002C002C00299
:109DD000C002C002C0027D00C402C002C002C002B4
:109DE000C002B800C002C002C002C002B800012414
:109DF0000025002A00F0D38307795755A3424FF07E
:109E00000005057140F28283171901343D70B04D91
:109E10000F7D2D682D78AF4200F0B6838F7DAF4265
:109E200009D10025A342057140F25585254601342C
:109E30000AB107795755DFF8A0C2A64F9CF8005029
:109E40003F780135EDB28CF800507BE1012500240C
:109E50000AB1077917554024AB42047140F28F8351
:109E60006C1CC6E701240025002AE2D1E3E70124A7
:109E70000025002A40F037848D7D0571A34240F211
:109E800068830134FFE001250024002A00F04383A9
:109E900007791755AB424FF00504047140F28483F3
:109EA000274602EB050C6C1C03E301250024002A65
:109EB00040F017840624AB42047140F2458301351B
:109EC0000C7D0471AB4240F297836C1CD4E70125F2
:109ED0000024002A40F009840524AB42047140F2BA
:109EE0002E836C1C2425A342057140F27B83651CE4
:109EF000E0E701240025002A00F000840779575587
:109F00004FF0000CA34280F804C040F29684651C18
:109F10000027AB4202F804C0077140F2F9835419DC
:109F200001352770F3E001250024002A00F0F583B5
:109F300007791755AB424FF02404047140F2C783F0
:109F4000274605F1010C002463455755047140F282
:109F5000AF8325460CF101071024BB4202F80C50D8
:109F6000047140F29683254607F1010C01246345F4
:109F7000D555047140F27E8325460CEB0407052479
:109F8000BB4202F80C50047140F26383254607F18E
:109F9000010C24246345D555047140F250832546B5
:109FA0000CF101070124BB4202F80C50047140F28D
:109FB0003C83254607EB040C03246345D555047107
:109FC00040F22E830CF1010702F80C40BB4291F8DD
:109FD00016C080F804C040F21E837C1C0425A342F6
:109FE00002F807C0057140F2118302EB040C2F4602
:109FF000013424259C428CF80070057180F00183A7
:10A000002F46651C1755AB424FF00204047140F215
:10A01000A582274602EB050C6C1C02259C428CF89D
:10A020000070057180F0E3822F46651C1755AB4226
:10A030004FF00504047140F28282274602EB050CC2
:10A040006C1C2425A3428CF80070057140F2CA8272
:10A050002F46651C1755AB424FF00604047140F2C1
:10A060007382571901353C700F7D0771AB4240F286
:10A07000C3826C1C5755A3428D7D057140F26982E5
:10A08000171901343D70124D2D6851E0012700244D
:10A09000002A00F0468205791555BB424FF00004B6
:10A0A000047140F2FB827D1C40E101250024002A5E
:10A0B00040F01D8302249D42047180F04F826C1C8D
:10A0C0000225A342057140F29282651C04E700BF9D
:10A0D00078390020743900207639002001240025C9
:10A0E000002A00F09E8307795755A3424FF00205DE
:10A0F000057140F25E83671C1555BB424C7E0471AE
:10A1000040F2EA8202EB070C7D1C8CF80040002430
:10A11000AB42047140F227826C1C0AB10779575593
:10A12000C94D91F814C02D682F78BC4500F02082ED
:10A13000DFF81CE3DFF81CC36F788EF80070002591
:10A140008CF80050BD423FD3C04F3D780135EDB291
:10A150003D70B54280F0D0810925A342057140F2DF
:10A160005B83651C002A00F0188307791755AB4202
:10A170004FF00404047140F2BC82274602EB050C48
:10A180006C1C8CF800700F7AB04D2D78BD4280F0B9
:10A19000B48305EB450501F10907DFF8ACC217F8F8
:10A1A00005E080F804E03D44A342CCF8005040F2C2
:10A1B0008482671C002A7FF46EAFB2E1012400257F
:10A1C000ABE701250024CDE70725A342057140F246
:10A1D0009881651C002A7FF45BAE9CE1002A00F0A8
:10A1E000F18204791470012B4FF00B04047140F2DA
:10A1F0002983032702254FF0010C02F80C40AB42E3
:10A2000091F814C080F804C040F25C820224BB4282
:10A2100002F805C0047140F24682254607F1010E9E
:10A2200002247345D555047140F22E8225460EF165
:10A23000010C0224634502F80E50047140F21582AD
:10A240000CF1010702F80C40BB4291F819C080F8EC
:10A2500004C040F2F9817C1C0025A34202F807C02B
:10A26000057140F2E781171901343D70774F0025E1
:10A270003D706EE7002303601846F0BD002A00F031
:10A28000F482057917460124C0E5002A00F0F48223
:10A2900005794FF0010C4FF0000ECAE7002A00F0DC
:10A2A000ED8205794FF0010E0027B9E7002A00F092
:10A2B000018307799446012463E7002A00F0D882DD
:10A2C00090F804C001270025A0E75F4C002A00F0A9
:10A2D000E78207792468944601258CF80070247879
:10A2E0000F7DA74200F0BA818F7DA7427FF40FAFA8
:10A2F0000A24AB42047140F2F8826C1CFBE5002A90
:10A3000000F0D3820479022701254FF0000C74E796
:10A31000002A00F0AF8290F804C0012400279BE7D8
:10A32000002A00F0C082047901250027DFF818C157
:10A33000D455DCF80040AB426778077140F29F814A
:10A3400002EB050C0135C8E7002A00F0B18205795F
:10A350001746012489E7002A00F083820479012747
:10A360004FF0000C6EE7002A00F0A78207799446B0
:10A37000012466E6002A00F08D82047901274FF05F
:10A38000000C21E6002A00F0A282077994460124FD
:10A390002FE6002A00F0FF81144607792770012577
:10A3A000B5E6002A00F08E8207799446012434E64F
:10A3B000002A00F07182057901274FF0000CDEE5DC
:10A3C000002A00F05F8290F804C00124002705E60F
:10A3D0001D4C0125276800241AB190F804C002F82A
:10A3E00004C03C780F7DA74200F0E8808F7DA74233
:10A3F0007FF431AD0224AB42047140F271822C46ED
:10A400000135002A7FF425AD25E5002A00F04682BB
:10A41000057901274FF0000CC4E5002A00F0BB814C
:10A4200004799446012570E6002A00F0158205792A
:10A4300001274FF0000C8FE5002A00F046820779D3
:10A440004FF0010C00257EE5783900207539002099
:10A450007439002076390020002A00F03182057915
:10A460004FF0010C002781E5002A00F00F820579EA
:10A470004FF0010C00279FE5002A00F0F4810579D8
:10A4800017460124FEE5002A00F0238205794FF0EB
:10A49000010C00277DE5002A00F0F68190F804C049
:10A4A0000125002434E5002A00F0EA81077994466A
:10A4B00001248CF80070C14FC14D3F682D7897F88A
:10A4C00001C0AC4540F2168297F802C03D44A34259
:10A4D00015F80C5005716CD9651C7DE7002A00F059
:10A4E000D78105790127002406E6002A00F0B6810D
:10A4F000047917460125B6E540F29933036001203F
:10A50000F0BD40F26D3303600120F0BD4FF4617384
:10A5100003600120F0BD0524AB42047144D96C1CDA
:10A52000C9E7BB42027140F2B9807D1CA34C24688C
:10A53000AB426778077140F2A2800135CFE640F266
:10A54000553303600120F0BD40F257330360012012
:10A55000F0BD40F2593303600120F0BD40F25133A9
:10A5600003600120F0BD4FF44F7303600120F0BD84
:10A570000525A342057140F21781651CD5E440F220
:10A58000833303600120F0BD0D6AA3422D7805716D
:10A590003FF64CAC40F2893303600120F0BDA3428A
:10A5A0000271B3D9013432E440F26E33036001200A
:10A5B000F0BD40F2723303600120F0BD0324AB42D2
:10A5C00004713FF61CAF40F2773303600120F0BD09
:10A5D00008240471002B7FF401AE40F212330360B3
:10A5E0000120F0BD40F2563303600120F0BD40F27F
:10A5F000523303600120F0BD4FF456730360012015
:10A60000F0BD4FF4547303600120F0BD40F24F33AE
:10A6100003600120F0BD4FF4537303600120F0BDCF
:10A6200040F24B3303600120F0BD40F24A33036037
:10A630000120F0BD40F2193303600120F0BD40F26B
:10A64000493303600120F0BD4FF4467303600120DD
:10A65000F0BD4FF4527303600120F0BD0224AB4201
:10A66000047140F2F4806C1C3AE540F21733036049
:10A670000120F0BD40F2453303600120F0BD4FF4EE
:10A680004A7303600120F0BD40F2163303600120DD
:10A69000F0BD4FF4517303600120F0BD40F2273349
:10A6A00003600120F0BD40F2153303600120F0BDCE
:10A6B00040F2433303600120F0BD40F226330360D3
:10A6C0000120F0BD4FF4457303600120F0BD40F25E
:10A6D000423303600120F0BD40F22E3303600120BD
:10A6E000F0BD0779B6E40779C4E407799EE40779F9
:10A6F00088E440F2213303600120F0BDA3420271DF
:10A7000040F29B8001340025A342057100F2938042
:10A7100040F2353303600120F0BD2424AB420471C4
:10A72000D5D96C1C0025A3420571C1D9013410256F
:10A73000A3420571ADD901340125A342057199D910
:10A740002C440525A342057183D901342425A34255
:10A7500005717FF674AF01340125A34205717FF6C0
:10A7600064AF2C440325A34205717FF659AF013431
:10A770008D7D0571A3427FF64EAF01340425A342BF
:10A7800005717FF643AF013424259C420571BFF467
:10A7900038AF651C8EE40125B9E40424AB42047192
:10A7A000A7D90F7A6C1CEFE440F24133036001201B
:10A7B000F0BD40F22D3303600120F0BD7839002058
:10A7C000763900200B24012B04713BD90324022588
:10A7D0000F7D0771AB427FF675AF0225A34205716D
:10A7E0007FF661AF01340225A34205717FF64CAFBD
:10A7F00001340225A34205717FF637AF01344D7E47
:10A800000571A3427FF620AF01340025A3420571F4
:10A810007FF610AF013429E54FF44873036001203F
:10A82000F0BD0225A3420571C3D901344D7E0571E7
:10A83000A3427FF651AF651C69E44FF44D7303608A
:10A840000120F0BD40F2133303600120F0BD4FF44E
:10A850004B7303600120F0BD012468E70125FFF779
:10A860002FBB0124CBE701240DE40124FFF7CFBA6D
:10A870000124B2E70124C8E70124BAE70124B2E7C2
:10A88000012418E6012479E701243CE7012469E763
:10A890000124CBE701246BE7012452E701245BE7A5
:10A8A000246801251BE5012540E6022401258FE7E8
:10A8B0000124DBE43746012466E40124FFF712BBE0
:10A8C000012439E70124FFF7FBBB01242AE7012417
:10A8D0005AE701243AE740F28E3303600120F0BDCD
:10A8E0004FF45F7303600120F0BD40F23333036027
:10A8F0000120F0BD00231B78FFDE024A0023136015
:10A900001B78FFDE7839002078B910B50446086856
:10A91000037B202B01D0062010BD00F10E01072281
:10A92000183008F0CFFB204610BD0320704700BF51
:10A930004360CA699A4210D38A6910B40260C86938
:10A940000C6FC01A1C441A44C86100380C6718BF49
:10A9500001205DF8044B8A61704701F12802026012
:10A9600000208B67704700BF2DE9F0470B7888B057
:10A970000D4606460E2B14D8DFE803F00818080829
:10A98000130D281313181308080808000024204684
:10A9900008B0BDE8F0874B78DA0930D15B09012BAC
:10A9A0004CD00624204608B0BDE8F0870368002498
:10A9B00003F134022046C3E91E44C3E920445A6728
:10A9C0001C845C62DC6208B0BDE8F087027A8B7898
:10A9D000002A00F06A81817A0930002900F0638141
:10A9E000F17A415C9942D1D01B061ED4EF7807F072
:10A9F000FD03012BCAD0002F65D00324C7E713F055
:10AA0000600FC3F3411200F09180012AC9D18B7805
:10AA1000212BC6D1B1F80720072AC2D10168681CD2
:10AA2000183100F073FA0446B1E7EC78002C00F01E
:10AA30009D80032C14BF03240024A8E78B780768AB
:10AA4000202B00F09B80222BABD1B1F80730002BDC
:10AA5000A7D1B1F8035097F820303D8405F00102EA
:10AA600003F001039342154690D0C3691BB1C2F1B4
:10AA70000301C9B29847002D88D1337A012B40F2E7
:10AA80001081737B06F10C04002B00F00881B37B6E
:10AA9000E05C04F0E9FF337A012B40F20281737B22
:10AAA000012B40F2FC80B37B23442C46587804F001
:10AAB000DBFF07F13403C7E91E55C7E920557D6266
:10AAC000FD627B6763E73568012A05F10C0140F2FE
:10AAD000E480727B012A06F10C0340F2DC800691CF
:10AAE000B27B734905911344AC6A93F80180002C42
:10AAF00065D1EA6FEB6AAC67C5E91F42002B00F035
:10AB0000B980296B1846002205F1240383E803006D
:10AB10004046EA6205A9FEF781FC0446F369002B72
:10AB20003FF435AF30460021984730E703F01F036C
:10AB3000012B7FF436AF8C78062C7FF432AF05A85A
:10AB4000039200F077FD03AA00920746EA7829797C
:10AB500030463B46FEF7B0F905283FF418AF039A9C
:10AB60003946681C00F0D2F9044610E7F369002B5F
:10AB70003FF40CAF30460121984708E7B1F80720B1
:10AB8000072A7FF40EAF3B73B1F80730DBB27B735B
:10AB900000240DF10B000E37CDE9057307948DF8F5
:10ABA0000B4000F0ADFD204605A9FEF723FC04464E
:10ABB000002868D09DF80B0000F0C8FDE7E6D5F846
:10ABC0008490686A4C4528BF4C4605F1340A2246F9
:10ABD000514608F077FAE86FEA6AEF67A9EB0403D9
:10ABE0000AEB04010444C5E91D13C5F88040002A9E
:10ABF00043D005F12C0797E8030005F12404002257
:10AC000084E80300EA62002B3BD091461BE0696FA9
:10AC1000686A08F057FAD5E91D32A96AC5F88010AC
:10AC20000B44521AC5E91D32F36913B100213046B5
:10AC30009847EB6A13B397E8030084E80300AB6F0F
:10AC4000C5F82C90EBB1AA6A9342E0D2696F686AAA
:10AC50001A4608F037FAD5E90932A96FE967521A9E
:10AC60000B44C5E9093253B1404605A9FEF7D6FBAE
:10AC7000044653E700236B6250E700236B62002415
:10AC80004CE76B6AEFE70B4B049603A9039300F0C4
:10AC9000BDFC04468EE73B78FFDE7B78FFDE2B7839
:10ACA000FFDE6B78FFDE0B78FFDE5378FFDE00BF40
:10ACB00031A9020009A9020010B503681C8CE40741
:10ACC00084B015D50B46017A012916D9417B00F1D4
:10ACD0000C0481B1817B605C91060CBF01240024CF
:10ACE00001A9CDE901320394FEF784FB04B010BD45
:10ACF000082004B010BD0B78FFDE00235B78FFDE78
:10AD00000368D3F88000704770B50468238CDB07B4
:10AD100082B035D5656A16462DB1E36A002B32D074
:10AD2000112002B070BDA36F934231D2C4E9091261
:10AD3000027A012A3AD9467B012E00F10C0237D95A
:10AD4000807B1C4E0096104404F10C024678019260
:10AD50006BB11A460846616F08F0B4F9D4E90932BC
:10AD6000A16FE167521A0B44C4E90932A567304666
:10AD70006946FEF753FB002808BF922002B070BD61
:10AD8000082002B070BD9220C4E90B1202B070BD61
:10AD90000846616F08F096F9D4E91D239B1B3244E5
:10ADA000C4E91D23C4F880602846BAE76B78FFDE4B
:10ADB0002B78FFDE31A90200002070472DE9F04F0B
:10ADC0004B6885B0CDE900020C46002B71D004F031
:10ADD000E1FAE568019B9D4228BF1D468146002D92
:10ADE0007CD04FF0000A5646D3464FF00108D4E914
:10ADF0000113AB421F4628BF2F46E9B13A4609EB83
:10AE0000060008F05FF9D4E90223D21BDB1BC4E97A
:10AE10000223C4F804B0ED1B3E442AB3002B08BF44
:10AE20004FF00008002DE2D1009BC3F800905E6057
:10AE3000404605B0BDE8F08FABB120463B4650F828
:10AE4000101B4A68D2F804A009EB0602D047D4E9E7
:10AE50000223D21BDB1BC4E90223ED1B3E445AB183
:10AE60004FF0010ADAE7E368BAF1000F04D15BB9E9
:10AE70009846002DBBD1D7E722681268126822607D
:10AE80004FF0010A002BF3D02168F1B1CDF808B0E2
:10AE900003E0A36821680133A3604B6800225F6868
:10AEA00002A80123B8470028F3D12061002D9ED1CC
:10AEB000BAE70B681B681B68002B88D18B68002BD6
:10AEC00085D1036043609846B2E76160002EABD045
:10AED000019BB34288BF4FF00008A5E72E464FF014
:10AEE0000108A1E708B50020FEF718FABDE8084000
:10AEF0008020FEF713BA00BF08B50020FEF722FA43
:10AF0000BDE808408020FEF71DBA00BF70B5C388B9
:10AF100093421E4628BF1646934284B00D4617D86A
:10AF2000002400230DF1030003948DF80330CDE9D4
:10AF3000015600F0E5FB01A98020FEF75BFA04460C
:10AF400090B19DF8030000F001FC204604B070BDF4
:10AF50008020144604F018F9B4FBF0F202FB104410
:10AF6000B4FA84F46409DCE704F0B8FA80280CD160
:10AF70000A4A0B4B92E8030083E803009DF80300A4
:10AF800000F0E4FB204604B070BD9DF8030000F023
:10AF9000DDFB1024204604B070BD00BFC03F03009D
:10AFA000A83900202DE9F04F0B780E2B8BB01CD860
:10AFB00013B3013B0D2B1FD8DFE803F03612071E39
:10AFC000465A1E1E1E1E127483239F4800F0F2FE76
:10AFD00030B19E4B01221A60BFF36F8FBFF34F8FCA
:10AFE000002420460BB0BDE8F08F852B04D1984B90
:10AFF0001A78032A00F01181062420460BB0BDE820
:10B00000F08F934B1A78012AEAD0924992480A7835
:10B01000012422F002021C700A70FEF7F7FA0024E5
:10B0200020460BB0BDE8F08F894B1A78032AE3D095
:10B03000884989480A78032422F002021C700A70A9
:10B040000624FEF7E3FACCE705230DF111008DF895
:10B05000103004F0E1F99DF81130804E002203F029
:10B060001F043260032C7DD8DFE804F0AD7E5C5015
:10B07000C87803280D46BFD0784E3368002B00F007
:10B08000CA8000227168326098470446002843D184
:10B090003368002B00F0D080AB78002BA0D104F0F7
:10B0A000E1F99EE76A4B1A78002A99D069496A4803
:10B0B0000A78002422F002020A701C70FEF7A6FA39
:10B0C0008FE74FF08043D3F8383413F0010F604B13
:10B0D0001A7806D0022A83D05E495F480A78022493
:10B0E00097E7012A91D17BE7594A1278052A00F0A7
:10B0F000E081042A0AD15A4B1D7059490DF1110003
:10B100000122FFF703FF0446062C03D104A8FEF733
:10B110005BF90446002C75D004F0D6F920460BB03C
:10B12000BDE8F08F9DF81500020707D004A9FEF7CF
:10B1300035F906280446EDD19DF8113013F0600F63
:10B14000C3F341150ED19DF81230414A9DF81540C8
:10B150001278012B00F0DD80032B00F0CA80002B59
:10B1600000F0EA800624D7E79DF8150007A9FEF74E
:10B17000F1F8054600285DD09DF81C1004AAFEF7E2
:10B1800009F906280446C5D19DF8112012F0600F78
:10B19000C2D12F4B9DF81C101B78D20940F056816C
:10B1A0009DF812200B2AB7D1052B40F0ED80BDF899
:10B1B0001330FF2B00F235819DF813202846FEF74F
:10B1C00041F90446A6E713F0600FC3F341159DD182
:10B1D000DB0949D19DF81230032B00F0EE80092BDA
:10B1E00000F0D480012B91D1BDF81330012B8DD10B
:10B1F000FEF78CF8002800F01681164A137823F029
:10B200000203137033686BB104F068F90446002838
:10B210007FF4E6AE43E70E247EE70E490E480A7837
:10B22000042409E704F046F90024DAE69DF80F004B
:10B2300000F08CFA10246FE70A4B1B68082B53D0E0
:10B2400004F038F9CDE600BFB03900205C70024050
:10B2500088390020A4390020883F0300A839002045
:10B26000B4390020300100109DF81210062900F0BA
:10B27000B28008293FF438AF00297FF447AFA54FCB
:10B280000222384607F02CFFA34A3B781278900739
:10B2900043F0010148BF43F00303397048BF3B70DE
:10B2A000BDF81730022B1C4628BF0224022B00F2E7
:10B2B000F480002300220DF10F00CDE907740993FB
:10B2C0008DF80F2000F01CFA07A98020FEF792F8F5
:10B2D0000446002800F096809DF80F0000F036FA32
:10B2E000062C7FF419AF11E78C4B1B68002BA7D1FC
:10B2F00076E625073FF536AFBDF81330002B7FF417
:10B3000031AF052A01D020073ED1204604F046F88F
:10B3100078E721073FF526AFBDF81330002B7FF407
:10B3200021AF052A01D023072ED1204604F064F86E
:10B33000204604F07BFB65E7052A01D0230723D1D3
:10B34000204604F037F8BDF81730724F022B1C4628
:10B3500028BF0224022B388000F2908000230DF1D8
:10B360000F00CDE907748DF80F30099500F0C8F98A
:10B3700007A98020FEF73EF80446002842D09DF839
:10B380000F0000F0E3F9C7E60824C5E6644C237813
:10B39000043B012BF8D89DF81330002B45D0012B2E
:10B3A0003FD1FEF795F82378052B3FF42BAF05230B
:10B3B0005C482370FEF72AF924E7BDF81330012B0F
:10B3C0007FF4A4AEFDF7A2FF68B3534A137843F0AD
:10B3D0000203137016E79DF81430022B00F08280F0
:10B3E000032B69D0012B7FF491AEBDF81730002BF1
:10B3F0003FF418AF4C490DF111001222FFF786FD02
:10B40000044681E604F06AF880287FF40FAF474BCA
:10B4100093E8030086E803009DF80F0000F096F91A
:10B42000F0E6072478E60F2476E6FEF7ADF82378F9
:10B43000042B3FF4E7AE384A3A481378042123F04E
:10B44000020313702170FEF7E1F8DBE69DF812703D
:10B45000002F00F0AB800A2F7FF45EAE052B93D156
:10B4600028460192FEF72EF82A49019A03460B70EE
:10B470000DF11100FFF74AFD04464BE6802003F072
:10B4800083FE0223B3FBF0F303FB00F3A3F1020CF2
:10B49000DCF1000545EB0C0560E7802003F074FE4D
:10B4A0000223B3FBF0F303FB00F3991E4B424B4125
:10B4B00000E7184A137020E6BDF81730002B3FF460
:10B4C000B1AEBDF815109DF8130000F0E3F8014689
:10B4D00000283FF41BAE0A780DF11100FFF716FDAE
:10B4E000044611E6BDF81730002B3FF49BAE092B44
:10B4F00028BF09230193FDF727FF002862D0A84643
:10B500004FF0090B0DF11C090546CDF81C800027F2
:10B51000A2460EE0B4390020A43900203401001006
:10B5200088390020883F0300AC3F0300C03F030080
:10B5300001376A6801235468294600224846A0471B
:10B540000028F5D12A682B7A156854461C44BB4460
:10B55000E4B2002DD9D1284F2849019A384607F086
:10B56000B1FD3C71A7F802B0FDF7D0FE18B1FB7930
:10B5700043F02003FB71FDF7E7FE214BBDF81710E8
:10B58000019C186000224846C3E902415F608DF8C3
:10B590001C2000F0B5F81B498020FDF73FFF044652
:10B5A000A8B19DF81C0000F0D1F899E6052B7FF4B6
:10B5B000EBAE11490DF1110002220F80FFF7A6FC3E
:10B5C0000446A7E54FF0090B0DF11C09C3E703F092
:10B5D00085FF802809D10C4B93E8030086E803001F
:10B5E0009DF81C0000F0B2F80CE69DF81C0000F07D
:10B5F000ADF8102490E500BFB43900208C3F030063
:10B600008C390020C83F0300C03F030038B5054611
:10B610000C4603F063FFA84207D194E80300044AF4
:10B6200082E803000023184638BD1023184638BDB1
:10B63000A839002008B1402303600148704700BFCB
:10B64000B439002070B54FF0805286B0D2F8A830DF
:10B65000D2F8A42000926FEA83436FEA93430B4A27
:10B660000B4E9BB202A80D2107F042FD02AD002453
:10B6700004E015F8013B06F8013B013402A807F08D
:10B6800073FD8442F5D306B070BD00BFD03F030008
:10B69000F4EF002028B3052827D838B5154B185CDF
:10B6A00030B1154B53F82040ECB123780BB9A01CF6
:10B6B00038BD0020FFF7BEFF2178C1B12246C4F19A
:10B6C00001055319DCB2234620F8141012F8011FAB
:10B6D0000029F6D101335B00DBB243F440730380F1
:10B6E00038BD06487047204638BD0020704740F2FC
:10B6F0000233F4E74040030028400300DE3F03002C
:10B7000070B4EFF3108472B60D4B9A68AAB90D4964
:10B710000D4E01259D60D1F8805035401D60C1F867
:10B720008060D1F884505D604FF0FF33C1F8843001
:10B73000027004B962B670BC704701230370F8E769
:10B7400004F0002000E100E0FC06FFBD094B9A6810
:10B750007AB170B910B4EFF3108172B6064A1C6862
:10B7600014605C685460986001B962B65DF8044B7F
:10B770007047704704F0002000E100E01EF0040F65
:10B780001CBFEFF309800AE0EFF308800549064A81
:10B79000884201D8904202D88D464FF00000034BFA
:10B7A0001847000000F0032000D0032069BA02000F
:10B7B00070B5264C4379264E04EBC30546F823208A
:10B7C0002D79002D35D103680A88C3F8082590F932
:10B7D00004308A78002B24DB03F1604303F56143D6
:10B7E0005201D2B283F8002390F90420194E1A4B6B
:10B7F000012502F01F01520905FA01F146F8221055
:10B80000164E4279164944F83200981B04EBC204E4
:10B81000C008000440F003002571FBF7B9FF0020C9
:10B8200070BD104903F00F0352011944D2B20A76D9
:10B83000DAE70A4B08480C49C01AC008000440F077
:10B840000200FBF7A5FF082070BD00BFF4390020FF
:10B85000FC39002000E100E030560300F055030001
:10B860006C400300FCEC00E0484003000368012248
:10B870001A607047036801225A607047F0B4046888
:10B880004FF480358D40C4F80853066801F1500428
:10B89000C6F84853A4000668A4B20027375182B006
:10B8A00036590468019601F5A87122F07F42019E85
:10B8B00044F821200268C2F8445313B10368C3F866
:10B8C000045302B0F0BC70472DE9F04704464FF432
:10B8D000803600688E40C0F848632068C0F808636E
:10B8E000206800EB81058A46D0F80415D5F840059C
:10B8F000C5F840150AF15005AD002768ADB24FF00C
:10B90000000847F8058082B0401A7F59009720F060
:10B910007F40012822F07F479946009A41D0226853
:10B92000D2F80455C2F844637A1B22F07F42012A00
:10B930000AF5A87125D0226842F821702068D0F855
:10B9400004557A1BC9F1FF13013A03F57F4322F036
:10B950007F42934211D342B1C0F844632368002070
:10B96000C3F8046302B0BDE8F087013740F82170E6
:10B970002068D0F804359D42EED00D2002B0BDE81D
:10B98000F08720680D4B013740F8217043F0010328
:10B990004FF4806098472068D0F804359D42DBD092
:10B9A000EBE7064A4FF4806042F0010290472268BC
:10B9B00042F8058052590192019AB0E78040030095
:10B9C00002680223C2F8443311B10268C2F804339A
:10B9D000704700BF0368D3F8040100B97047002224
:10B9E00082B0C3F80421D3F804310193019B0120F4
:10B9F00002B0704702684FF4803303FA01F1C2F8D5
:10BA000048130368C3F80813704700BF503189001A
:10BA1000036889B2585800B9704700225A5082B062
:10BA20005B580193019B012002B070470368D3F873
:10BA30000405704790F9043005485A090121403245
:10BA400003F01F0301FA03F340F82230704700BFF0
:10BA500000E100E0024A034B10681B68184700BF72
:10BA6000F4390020FC3900202DE9F04782B08046EF
:10BA7000FCF71CFBFBF752FD0028FBD1344B354F84
:10BA80009D6A354BB8F1000F57D0FF1AFF083F04ED
:10BA900047F00107D8F8182030493846FBF748FF2F
:10BAA000D8E9023201920093D8E900232C493846A4
:10BAB000FCF7DCF9D8F81C300093D8E904232949B5
:10BAC0003846FCF7EDF8224BDB6A99071DD4DFF806
:10BAD000A8A0DFF8A8900024012606FA04F32B4260
:10BAE00006D05AF82420494638460AB1FBF720FF11
:10BAF00001341A2CF1D12A0618D42B040AD440465A
:10BB000005F0E6F902B0BDE8F08717493846FBF7C3
:10BB10003FFEDCE70E4B15499A6B3846FBF708FFF2
:10BB2000404605F0D5F902B0BDE8F087084B104952
:10BB30005A6B3846FBF7FCFEDFE7FF1AFF083F04AD
:10BB400047F001070B493846FBF722FEBBE700BF71
:10BB500000ED00E060560300F0550300884003004C
:10BB6000A0400300D840030034410300A441030077
:10BB70008441030000410300A04603007841030014
:10BB800099B110B4B2FBF3F403FB1424A4B244B98A
:10BB9000C0E9001484608281C38120465DF8044BB3
:10BBA000704709205DF8044B70470E20704700BFB6
:10BBB00030B482B050E8013F9DB2C48925448489E5
:10BBC000A54228BF2D1B0489A54202BFBFF32F8FBA
:10BBD000002207E0C5EA030540E80154002CE9D142
:10BBE0004FF001028DF803200193019B9DF8032083
:10BBF0000B602AB10B880068184402B030BC704753
:10BC000002F0FF03184602B030BC70470A884B8828
:10BC10009A4201D00020704750E8012FC2EA024248
:10BC200040E80123002BF7D10120704730B482B0E7
:10BC300050E8023F1FFAA3F5C488A54202BFBFF334
:10BC40002F8F00220DE0C48925448489A54228BF96
:10BC50002D1BC3EA054540E80254002CE8D14FF003
:10BC600001028DF803200193019B9DF803200B60D6
:10BC70002AB14B880068184402B030BC704702F00B
:10BC8000FF03184602B030BC704700BF0A884B88DB
:10BC90009A4201D00020704750E8022FC2EA2242A7
:10BCA00040E80223002BF7D1012070474A09012305
:10BCB00001F01F0100EB820003FA01F100F022B84D
:10BCC00001F01F0201234909934000EB8100D94391
:10BCD00000F026B84B0901F01F0150F82300C840BE
:10BCE00000F00100704700BF10B4034653E8000F96
:10BCF0000A4643E8002494F0000FF7D15DF8044BA6
:10BD0000704700BF10B4034653E8002F42EA010019
:10BD100043E8000494F0000FF6D15DF8044B70473F
:10BD200010B4034653E8002F02EA010043E8000480
:10BD300094F0000FF6D15DF8044B704710B4034641
:10BD400053E8002F02EB010043E8000494F0000FD9
:10BD5000F6D15DF8044B704710B4034653E8002F4A
:10BD6000A2EB010043E8000494F0000FF6D15DF867
:10BD7000044B704710B4034653E8002F8A422CBF8F
:10BD8000501A104643E8000494F0000FF4D15DF817
:10BD9000044B704710B40346012253E8001F41EAE8
:10BDA000020043E8000494F0000FF6D15DF8044B64
:10BDB000704700BF10B40346002253E8000F00EAAA
:10BDC000020143E8001494F0000FF6D15DF8044B33
:10BDD000704700BFB8B130B4D0E90112521A0468FC
:10BDE000D2B2531E2160DBB242B101680A685C1E08
:10BDF000551C0D601370E3B2FF2BF6D103680020D1
:10BE0000187130BC70470E20704700BFF0B583B08A
:10BE1000044600250DF107008DF80750FFF770FC70
:10BE2000D4E900311A688A4210D9511E196021687C
:10BE3000A3680F6812F8015C0A79268AE068DB1BA8
:10BE4000DBB29A4206FB050538BF0B719DF807006F
:10BE5000FFF77CFC284603B0F0BD00BF30B50546B7
:10BE600083B000230DF107000C468DF80730FFF773
:10BE700047FC2A681368591C1160E9682A8A641A09
:10BE8000B4FBF2F41C709DF80700FFF75FFC03B0F1
:10BE900030BD00BF826842B110B5044643690168F5
:10BEA000006998470023A36010BD70470EB400B529
:10BEB00082B0039921B104AB01AA019300F0ACF860
:10BEC00002B05DF804EB03B0704700BF2DE9F04FFE
:10BED000164683B0B142DDE90C920F4605469A46FC
:10BEE000C0F095800B464FF00108B3FBF6F39E427D
:10BEF00008F10108F9D9D04538BFD04612F0010346
:10BF0000019302D1B9F1000F5ED1AA68012403E0C8
:10BF10000AF1FF3A06FB04F4BAF1010FF8D8B7FBB7
:10BF2000F4F39E42F6D9DFF8ECA007E0B442B4FB8C
:10BF3000F6F31AD3AA681C46B7FBF3F31AF803B05A
:10BF4000BBF10A0F04FB137728D02B68511CA960A2
:10BF500003F802B0D5E901329A42E7D32846FFF749
:10BF600099FFB4FBF6F3B442E4D2019B9BB1B9F163
:10BF7000000F10D02024C84509F1FF390BD2AB685F
:10BF80002A68591CA960D454D5E901329A4214D2C6
:10BF9000B9F1000FEFD103B0BDE8F08F511C2B6851
:10BFA000A9604FF00D019954D5E901329A42CCD3E2
:10BFB0002846FFF76FFFAA68C7E72846FFF76AFF22
:10BFC000B9F1000FD7D1E6E793071AD42024AA6865
:10BFD000C84502F1010199D22B68A9609C54D5E9AA
:10BFE00001329A4209F1FF3903D2B9F1000FEFD1C2
:10BFF0008CE72846FFF74EFFAA68B9F1000FE7D19A
:10C0000084E7BAF1000F0CBF30242024DFE74FF0A3
:10C01000010870E708470300002900F054822DE969
:10C02000F04FDFF8B8950C7885B0064690460D467F
:10C030004FF00D0A10E00A2CB36800F0AD803268B2
:10C04000591CB160D454D6E901329A4280F0A080E4
:10C050002C78002C00F087800135002C00F08380C4
:10C06000252CE8D1294600270D4611F8012B2D2A51
:10C0700000F08880302A00F088802B2A7AD02A2A83
:10C0800000F09980A2F13003092B4FF000040BD887
:10C0900004EB840402EB440415F8012FA2F13003F1
:10C0A000092BA4F13004F3D92E2A00F0908000234C
:10C0B00001E015F8012F02F0FB016829F9D0252ACB
:10C0C00000F07781583AD1B2202947D8202A45D8A4
:10C0D000DFE812F03501440044004400440044000D
:10C0E0004400440044004400440043011301440060
:10C0F0004400440044001301440044004400440050
:10C1000044004400D20044004400A20044009400D3
:10C1100044004400350101209842024638BF1A46C7
:10C120000292002C40F05081B80740F16E81002B44
:10C1300040F04E821C46BBF1000FC0F20A827A0723
:10C1400000F11A8207F00302022A00F0EA81CDE929
:10C15000004759460A223046FFF7B8FE01352C78D1
:10C16000002C7FF479AF337B002B40F01C8105B0AD
:10C17000BDE8F08F0D4611F8012B2D2A47F004077A
:10C180007FF478AF47F001076EE747F002076BE7EF
:10C190003046FFF77FFE5BE73268591CB16002F85A
:10C1A00003A0D6E901239342FFF449AF3046FFF7DD
:10C1B00071FEB36843E7D8F800301A1DC8F80020B4
:10C1C0006A781C682E2A05F101057FF470AF6A7841
:10C1D000A2F13003092B05F101054FF000033FF6F2
:10C1E0006AAF03EB830302EB430315F8012FA2F1BF
:10C1F00030010929A3F13003F3D95CE7D8F8002016
:10C20000111DC8F8001011683046CDE900470A2218
:10C21000FFF75CFE0135A2E7D8F800301A1DC8F818
:10C22000002017F00107D3F800B040F0F080BBF118
:10C23000000F03D0584606F097FF0746BC4240F275
:10C240004381002C00F04081202205E0BC4200F038
:10C250003B81002C00F03881B1683368481CB06025
:10C260005A54D6E90130984204F1FF34EED33046F7
:10C27000FFF710FE2022E9E7D8F80020131DC8F8C8
:10C280000030B36831681768581C3022B060CA5457
:10C29000D6E90123934280F0EF803268581C782160
:10C2A000B060D154D6E901329A4280F0E0800F2F7D
:10C2B00003D93B461B090F2BFCD84FF0805406E0F6
:10C2C0000F2C4FEA14137FF649AFB2681C46B7FB38
:10C2D000F4F319F803B0BBF10A0F04FB137754D041
:10C2E0003368511CB16003F802B0D6E901329A42BA
:10C2F000E6D33046FFF7CEFDE2E7D8F80020111D67
:10C30000C8F80010D2F800B08BEAEB72A2EBEB7227
:10C31000092A7FF700AFDFF8C8C201201146632960
:10C32000ACFB02E200F101004FEAD202F6DC9842D7
:10C33000024638BF1A460292002C45D1F4E6D8F8DE
:10C340000020111DC8F8001011683046CDE90047E3
:10C350001022FFF7BBFD013501E7D8F800301A1DA8
:10C36000C8F800201C78B3680A2C00F011813268EC
:10C37000591CB160D454D6E901329A42FFF4EEAEB2
:10C380003046FFF787FD0135E9E63368511CB1609F
:10C3900003F802A0D6E901329A42A1D33046FFF752
:10C3A00079FDB2689CE7304605B0BDE8F04FFFF775
:10C3B00071BDB3683168581CB060CA54D6E9013207
:10C3C0009A42DDD20135CAE6BBF1000F59DB7A078C
:10C3D00057D4B80702D5002B3FF4ADAEF9073FF5AF
:10C3E000AAAE94B120220299A142BFF4A4AEB168D2
:10C3F000481CB06030684254D6E90101814204F122
:10C40000FF3480F0D480002CEDD1002493E69BF81B
:10C410000030002B00F0E080B0685F46CBF10102F5
:10C420000A2B02EB070B3CD0411CB16031680B5466
:10C43000D6E90130984226D217F8013F002BEFD100
:10C440005C457FF68BAE202702E05C453FF486AE6C
:10C45000B2683368511CB1609F54D6E901329A42E8
:10C4600004F1FF34F1D33046FFF714FDEDE7304619
:10C47000FFF710FDB2681AE73046FFF70BFDB3680F
:10C480000BE7013CA5E730460292FFF703FD17F8E2
:10C49000013F002BD4D0029AB0680A2B02EB070BA5
:10C4A000C2D1411CB160316801F800A0D6E9011089
:10C4B0008842B9D33046CDE90232FFF7EBFCDDE923
:10C4C0000232B068B0E770479BF80040002C3FF4A0
:10C4D00045AE0A2CB0680ED03368421CB2601C54C2
:10C4E000D6E90130984214D21BF8014F002C3FF4DA
:10C4F00035AE0A2CF0D13368421CB26003F800A0BC
:10C50000D6E901309842E7D33046FFF7C3FCB06864
:10C51000E2E73046FFF7BEFC1BF8014F002CD8D1F4
:10C520001CE6002B7FF413AE8CB130220299A1429D
:10C53000BFF40DAEB168481CB06030684254D6E913
:10C540000101814204F1FF343BD2002CEED10024E2
:10C55000FDE5B1684A1CB26032682D205054D6E91E
:10C5600001219142CBF1000BFFF4ECAD3046039377
:10C57000FFF790FC039BE5E5B1684A1CB2603268A6
:10C580002B205054D6E901219142FFF4DBADEDE7B9
:10C590003268591CB16002F803A0D6E90123934226
:10C5A000FFF4E5AE3046FFF775FCB368DFE63046D2
:10C5B0000393FFF76FFC039B2022002C7FF413AF43
:10C5C00023E730460393FFF765FC039B3022BCE76B
:10C5D000F9073FF5B0AD18E79B4631E70847030080
:10C5E000CDCCCCCCFFF7F6BB2DE9F041058A033169
:10C5F000043D4E198046B6FBF5F6FFF707FCA0B3E5
:10C60000F6B24FF48073013E0446C580C0F8008046
:10C6100083802BD00346002508E06279AE4202F108
:10C62000010262713860C0F800801FD040461F468A
:10C63000FFF7ECFB013503460028EED16779791E40
:10C6400017D02246013399421268FBD1D2F80080FC
:10C650005FB12668002501E0344636682146013581
:10C660004046FFF7FBFBAF42F6D800242046BDE86A
:10C67000F08120682146FFF7F1FBF6E70430012145
:10C68000FFF75CBB2DE9F041012104460430FFF7C0
:10C6900063FB10F0FF0301D0BDE8F0816779791EDC
:10C6A00016D02246013399421268FBD1D2F800809D
:10C6B000002FF1D02668002501E034463668214677
:10C6C00001354046FFF7CAFBAF42F6D8BDE8F0811E
:10C6D00020682146BDE8F041FFF7C0BB2DE9F843D3
:10C6E0000546C6884079144606FB00F2043A04EB7E
:10C6F000030C1F1D624538BFD41ABE428846B7FBE3
:10C70000F6F106FB117002D801392D68FCD1371AF9
:10C71000A74228BF27469CB14FF000090430E41B14
:10C7200028443A4608EB090106F0CCFCA642B9447D
:10C730002D6837464FF0000028BF2746002CEDD16A
:10C74000BDE8F8832DE9F8430546C68840791446CC
:10C7500006FB00F2043A04EB030C1F1D624538BFD0
:10C76000D41ABE428846B7FBF6F106FB117002D818
:10C7700001392D68FCD1371AA74228BF27469CB142
:10C780004FF0000904302918E41B3A4608EB090071
:10C7900006F098FCA642B9442D6837464FF00000D9
:10C7A00028BF2746002CEDD1BDE8F883826800231E
:10C7B000936082681361826853618268D360826883
:10C7C000536082681360704701600B6843604A6879
:10C7D000934204BF00234360704700BF436843B1E6
:10C7E000026891680B4443605268934204BF00237F
:10C7F0004360704770B54468064620680D4618B916
:10C8000008E02468206828B1B368294698470028C2
:10C81000F7D120682860256070BD00BF43681868A4
:10C8200008B102681A60704743681868704700BF13
:10C830004368186818B908E00346006828B18142C7
:10C84000FAD10A681A60012070477047114910B484
:10C85000A1F5947205E052F83330984238BF214672
:10C860000CD28C1AE30F03EBE4035B10914202EB52
:10C87000C304F0D808485DF8044B704702D904F1AE
:10C880000802EEE76068044B5DF8044B002808BF1F
:10C8900018467047584C03001C4B0300036882681D
:10C8A00018685B68934234BF01330023C01AB0FAA2
:10C8B00080F04009704700BFF0B5044683B0002502
:10C8C0000DF107000E468DF80750FEF719FF23689B
:10C8D000A26818685968914238BF4D1CA84212D00E
:10C8E000586859688A420BD800225A60E268531E81
:10C8F000072B19D8DFE803F04540183B1818183308
:10C9000001315960F2E7217C002941D158685D6806
:10C91000AA423AD859602268A16813688B4234BF92
:10C92000013300231360E1E76368314600FB023006
:10C9300006F0C8FB2268136851688B4282BFA0686A
:10C9400001300918CB1A91689DF80700994238BF49
:10C950009360FEF7FBFE0024204603B0F0BD636841
:10C96000D6E9006703EBC000C0E90067E2E763684F
:10C97000326843F82020DDE76368328823F810200E
:10C98000D8E7636832781A54D4E701355D60C2E7AE
:10C990009DF80700FEF7DAFE0424204603B0F0BD40
:10C9A00070B5044682B000230DF107000D468DF8E6
:10C9B00007301646FEF7A4FE2368186859688842B7
:10C9C00011D019682EB91A68A068824238BF561C67
:10C9D0001E60E268531E072B0DD8DFE803F0411AF2
:10C9E0000C260C0C0C329DF80700FEF7AFFE052458
:10C9F000204602B070BD6368284601FB023106F094
:10CA000061FB9DF80700FEF7A1FE0024204602B05E
:10CA100070BD63689DF8070033F811302B80FEF776
:10CA200095FE0024204602B070BD63689DF80700A3
:10CA300053F821302B60FEF789FE0024204602B017
:10CA400070BD63689DF8070003EBC101D1E90023C5
:10CA5000C5E90023FEF77AFE0024204602B070BD2F
:10CA600063689DF807005B5C2B70FEF76FFE002487
:10CA7000204602B070BD00BF036818685B68C01A2A
:10CA8000B0FA80F04009704710B44FF080414FF089
:10CA900080520020C1F80C015E4BC1F81001C1F8B2
:10CAA0003805D2F80414C3F82015D2F80814C3F8D6
:10CAB0002415D2F80C14C3F82815D2F81014C3F8B2
:10CAC0002C15D2F81414C3F83015D2F81814C3F882
:10CAD0003415D2F81C14C3F84015D2F82014C3F84A
