:020000023000CC
:1010000000000420B1130300D913030081960300EC
:10101000DD130300DF130300E113030000000000F1
:10102000000000000000000000000000E3130300C7
:10103000E513030000000000E7130300E9130300B9
:101040000DAF0300EB130300EB130300EB130300DE
:1010500019B90300EB130300B5AB030019AF03008C
:10106000EB130300BDBC0300D5BC0300EB1303006E
:10107000EB130300EB130300EB130300EB1303006C
:10108000EDBC03002D950300EB130300EB130300ED
:1010900055950300EDE50300A9190300EB130300C8
:1010A000EB130300EB130300EB130300EB1303003C
:1010B000EB130300EB13030000000000000000002E
:1010C000EB13030061BC0300EB130300EB130300FD
:1010D000EB130300EB130300EB130300EB1303000C
:1010E000EB130300EB130300EB13030000000000FD
:1010F00000000000EB13030000000000EB130300EE
:1011000000000000000000000000000000000000DF
:1011100000000000000000000000000000000000CF
:1011200000000000000000000000000000000000BF
:1011300000000000000000000000000000000000AF
:10114000000000000000000000000000000000009F
:10115000000000000000000000000000000000008F
:10116000000000000000000000000000000000007F
:10117000000000000000000000000000000000006F
:10118000000000000000000000000000000000005F
:10119000000000000000000000000000000000004F
:1011A000000000000000000000000000000000003F
:1011B000000000000000000000000000000000002F
:1011C000000000000000000000000000000000001F
:1011D000000000000000000000000000000000000F
:1011E00000000000000000000000000000000000FF
:1011F00000000000000000000000000000000000EF
:1012000010B5054C237833B9044B13B10448AFF340
:1012100000800123237010BD004400200000000066
:101220005822040008B5034B1BB103490348AFF330
:10123000008008BD00000000044400205822040083
:10124000154B002B08BF134B9D46A3F5803A002198
:101250008B460F461348144A121A0DF007FB0F4B2A
:10126000002B00D098470E4B002B00D09847002051
:10127000002104000D000D48002802D00C48AFF3F7
:1012800000800DF089FA2000290000F03FFE0DF0EB
:101290006FFA00BF000008000000042000000000FA
:1012A0000000000000440020147000200000000036
:1012B00000000000C6DF7047DDDF704770470000A8
:1012C00090F82D30802B00D0704710B5C378332BA9
:1012D00004D0102B18D0192B1AD010BD0E4C21465B
:1012E00000F061FC638F00EE103AB8EEC00ADFED4B
:1012F0000B7A20EE270ADFED0A7A30EE670A30EE2D
:10130000000A05F025FFE8E7034900F04CFCE4E79C
:10131000014900F048FCE0E7544100200AD7233C93
:101320000000484308B590F82C3013B1012B03D0CE
:1013300008BDFFF7C5FFFBE7FFF7C2FFF8E70000B6
:1013400000B585B0C020FFF7B7FF78B90C4A01ABF4
:1013500007CA83E80700184600F0BEF948B9002024
:10136000FFF7A8FF40B905B05DF804FB07F046FDA4
:10137000ECE707F043FDF2E707F040FDF3E700BFBD
:101380008C17040008B500F04BFB20B9002000F0DA
:10139000C9F918B908BD07F031FDF7E707F02EFDD0
:1013A000F8E7704708B5FFF7CBFF08BD70477047F7
:1013B0000649074A074B9B1A03DD043BC858D05027
:1013C000FBDC00F07BF8FFF73BFF0000D4220400B9
:1013D0005041002000440020FEE7FEE7FEE7FEE764
:1013E000FEE7FEE7FEE7FEE7FEE7FEE7BFF34F8F0F
:1013F0000549CA6802F4E062044B1343CB60BFF3B3
:101400004F8F00BFFDE700BF00ED00E00400FA05CC
:101410000120704701207047064B1B68082B01D044
:1014200000207047044B1B680BB10020704701205F
:10143000704700BF3001001034010010064B1B68DC
:10144000082B01D000207047044B1B680BB1002013
:1014500070470120704700BF3001001034010010B8
:10146000064B1B68082B01D000207047044B1B68FB
:101470000BB1002070470120704700BF3001001001
:1014800034010010064B1B68082B01D00020704768
:10149000044B1B680BB1002070470120704700BF50
:1014A000300100103401001001207047014B024A46
:1014B0001A607047A84100200090D00308B5FFF7DC
:1014C000A7FF40B14FF080430022C3F80C21C3F8BE
:1014D0001021C3F83825FFF79DFF002846D04FF0B4
:1014E0008052D2F804146F4BC3F82015D2F80814B8
:1014F000C3F82415D2F80C14C3F82815D2F8101428
:10150000C3F82C15D2F81414C3F83015D2F81814F7
:10151000C3F83415D2F81C14C3F84015D2F82014BF
:10152000C3F84415D2F82414C3F84815D2F8281487
:10153000C3F84C15D2F82C14C3F85015D2F8301457
:10154000C3F85415D2F83414C3F86015D2F838141F
:10155000C3F86415D2F83C14C3F86815D2F84014E7
:10156000C3F86C15D2F84424C3F87025FFF754FF74
:1015700010B14D4B4D4A1A60FFF760FF18B14C4B4C
:10158000FB22C3F81825FFF76BFF48B149490B68E8
:1015900023F00F03484A126802F00F0213430B6056
:1015A000FFF770FF18B1454B4FF400721A60FFF758
:1015B0007BFF60B14FF08043D3F8003413F0010F8C
:1015C00005D04FF080436FF00102C3F800243C4A7D
:1015D000D2F8883043F47003C2F88830BFF34F8FDD
:1015E000BFF36F8F4FF01023D3F80C3213F0010FBD
:1015F0000ED14FF01023D3F80032002B29DB4FF02F
:101600001023D3F80432002B23DBFFF74FFF08BD74
:101610002C4B0122C3F804252A4BD3F80034002BAD
:10162000FAD04FF01022D2F80C3223F00103C2F8A6
:101630000C32244BD3F80034002BFAD0214B00227B
:10164000C3F804251F4BD3F80034002BFAD0FFF762
:10165000CDFE1C4B0122C3F804251A4BD3F80034ED
:10166000002BFAD04FF010231222C3F80022154BA2
:10167000D3F80034002BFAD04FF010231222C3F815
:101680000422104BD3F80034002BFAD00D4B00226B
:10169000C3F804250B4BD3F80034002BFAD0FFF726
:1016A000A5FE00BF00C000408C56004048810300EA
:1016B00000F00040E40E0040580200104096024046
:1016C00000ED00E000E00140C2DF7047CDDF704771
:1016D000D1DF7047D3DF704710B504468378827A34
:1016E00041780078FFF7F0FF00B110BD23796279EF
:1016F000E1882078FFF7EEFF0028F6D1E178207826
:10170000FFF7E4FF0028F0D1A37813F0010FECD12C
:1017100021890029E9D02078FFF7DAFFE5E7CCDF5F
:101720007047000008B50249FFF7F9FF08BD00BF88
:10173000AC41002083780B70C378027943EA02231E
:101740004B804379827943EA02238B807047037888
:10175000704708B5034608465A780A709A784A7066
:10176000DA78197942EA0122597942EA01429B79F1
:1017700042EA03634360FFF7EAFF08BD10DF7047EA
:1017800011DF7047074B9B682BB1064A136823F49F
:10179000800313607047044B4FF48002C3F880202D
:1017A000704700BFF46F002000E100E010B582B088
:1017B00004460A49684608F0BBFC019B43B11A681D
:1017C00059682046904730B1684608F0BBFCF4E702
:1017D000002002B010BD1120FBE700BFC4170400B9
:1017E00010B582B004460849684608F0A1FC019B88
:1017F0003BB11A68596820469047684608F0A2FC39
:10180000F5E702B010BD00BFDC17040008B50E4BB1
:1018100093F816335A09EC23134113F0010F0DD03E
:101820000A4B9B682BB1094A136843F48003136089
:1018300008E0054B4FF480021A6003E042F2020018
:1018400007F0DCFA08BD00BF00E100E0F46F002003
:1018500010B582B01C4B1B787BBB1C4B01221A704D
:101860000020FFF7A3FF11282BD00020FFF7B8FFBF
:10187000174B1B68019300238DF803300DF1030013
:1018800007F018FF134A144901A8FFF777FF044631
:10189000B0FA80F040090C4B18709DF8030007F077
:1018A00035FF5CB90023094A13700C4A1370FFF727
:1018B000ADFF0120FFF794FF00E00824204602B0AE
:1018C00010BD0024FAE700BF21440020204400207E
:1018D000C017040098170400351E0300224400209E
:1018E00030B583B0154B1B7813B30120144B18701F
:1018F000FFF75CFF11281FD00220FFF771FF0025C2
:101900008DF807500DF1070007F0D4FEFFF738FF00
:1019100004460A4B1D709DF8070007F0F7FE44B916
:10192000074B1D70FFF72EFF0320FFF759FF00E064
:101930000824204603B030BD0024FAE721440020EB
:101940002044002008B5074B1B7843B1064B1B7899
:1019500013B1FFF7C5FF08BDFFF77AFFFBE70820CB
:10196000F9E700BF2044002021440020014B1878F3
:10197000704700BF2144002000B583B00749684686
:1019800008F0D6FB019B33B11A6858689047684647
:1019900008F0D8FBF6E703B05DF804FBD0170400AD
:1019A00008B5FFF7E9FF08BD08B5054A002108465C
:1019B00007F058FA00B908BD07F020FAFBE700BFAE
:1019C000A1190300C1DF7047FADF7047124B1B7883
:1019D00003B300B58FB009E01A68596802A89047B0
:1019E000684608F0AFFB019B002BF5D102AA0DF170
:1019F00035010DA8FFF7E6FF20B90849684608F051
:101A000097FBF0E7052802D10FB05DF804FB07F063
:101A1000F5F9F9E7704700BFA4440020F41704006B
:101A200000B585B0074A01AB07CA83E8070018462E
:101A3000FFF7CAFF10B9044B01221A7005B05DF818
:101A400004FB00BFE8170400A444002003780B70D7
:101A500043784B7083788B70C378CB7003790B71AC
:101A600043794B7183798B71704708B543689A78D5
:101A7000012A00D008BD06290ED00AD801290DD0B0
:101A80000229F7D11A88511E1980002AF2D1522159
:101A900005E08029EED1F5E7532100E052214368AB
:101AA00000229A7083689847E4E738B505460C46EB
:101AB0000B78013B502B33D8DFE803F02933323267
:101AC0003232323232323232323232393F323232E2
:101AD000453232324B3232323232323232323232BA
:101AE00032323232323232323232325157325D3267
:101AF00032323232323232323232323232323232C6
:101B00003232633232323232323232696F0000F1B5
:101B10000C01601C00F085F8AB68217828469847D6
:101B200038BD00F11201601C00F0B4F8F4E700F1D8
:101B30001801601C00F0BBF8EEE700F12001601C0A
:101B400000F099F8E8E700F12801601C00F086F841
:101B5000E2E700F12E01601C00F04DF8DCE700F137
:101B60003601601C00F084F8D6E700F13801601CF3
:101B700000F066F8D0E700F13A01601C00F066F86A
:101B8000CAE700F13E01601CFFF760FFC4E700F107
:101B90004601601CFFF7CEFDBEE700F14C01601C62
:101BA000FFF7D7FDB8E738B590F82C200B789A42AC
:101BB00000D038BD04460D4690F82D30032B11D0CF
:101BC000802B04D143784E3BDBB2022B05D994F82D
:101BD0002D102846FFF749FFEBE7C11C2846FFF709
:101BE00064FFF4E74B689B78002BF0D18B6854219D
:101BF00028469847EBE703780B7043784B7083785F
:101C0000C27843EA02234B80027943791B0203F432
:101C1000706313438B8043791B098B718379CB717C
:101C2000704703780B7083784B70C378027943EA6E
:101C300002234B804379827943EA02238B807047E9
:101C40004379827943EA02230B8070470379427912
:101C500043EA02230B8083798B707047C3780B7043
:101C60000379427943EA02234B8083790B717047F1
:101C700083790B70704703780B7043784B708378CF
:101C80008B70C378CB7003790B7143794B71837977
:101C90008B71704703780B7043784B7083788B702F
:101CA00090F90330CB7090F905300B7170470378D1
:101CB0000B7043784B7083788B70C378027943EA5A
:101CC00002238B8043798B718379CB71704700003D
:101CD00000B583B000238DF807300DF1070007F041
:101CE000E9FCF1EE103A23F09F03E1EE103ABFF366
:101CF0005F8F064B4022C3F884219DF8070007F050
:101D000005FD08F0EFF803B05DF804FB00E100E02A
:101D100069B902461F2803D900F01F020B4901E0F0
:101D20004FF0A04101239340C1F80C3570470246A3
:101D30001F2803D900F01F02044901E04FF0A04121
:101D400001239340C1F80835704700BF00030050DD
:101D500003461F2808D900F01F03054AD2F81005D2
:101D6000D84000F0010070474FF0A042F6E700BFF6
:101D700000030050BFF34F8F0549CA6802F4E062C8
:101D8000044B1343CB60BFF34F8F00BFFDE700BF91
:101D900000ED00E00400FA05014B1870704700BF29
:101DA000C8440020704708B500F0F8F900B908BD34
:101DB000052000F02DFBFAE708B5012809D9022813
:101DC00010D1FFF7F3FA07F043FC58B107F016F80B
:101DD00008E005F0DCFBFFF7E9FA07F039FC18B979
:101DE000FFF77EFD012008BD07F008F8F8E708B509
:101DF00008F09AFD38B94FF0A0430022C3F85C27E1
:101E0000C3F8342708BD06F0F9FFF4E708B5044924
:101E1000032005F0FFFE00B908BD06F0EFFFFBE769
:101E2000991D030008B5FFF713FD00B908BD06F0C2
:101E3000E5FFFBE730B585B00B4614461B4AC2F8F8
:101E4000E400C2F8E010FD2182F8E81044F201023B
:101E5000904215D007D8012803D041F201029042E8
:101E60001ED105B030BD44F20202904218D1228842
:101E7000636800920E4AD2210E480DF06FFAF0E727
:101E8000A568284608F00AFB23880293636801933B
:101E900000902B46084AD22106480DF05FFAE0E791
:101EA000064AD22103480DF059FADAE70040002033
:101EB000001804000C4000201C180400381804000E
:101EC00008B501460448FD2280F80C212022EC30A0
:101ED0000CF0A4FCFFF74EFF0040002008B5064BB5
:101EE0001B780E2B00D008BD022008F023F8024B0F
:101EF00000221A70F7E700BFC844002008B5024B63
:101F0000187809F06DFF08BD1C46002010B58CB094
:101F1000484A05AB07CA83E807004749184609F055
:101F2000FBFE00284FD1454809F030FF00284DD175
:101F300009F01EFFFFF75BFF00F0FCFA404A0121A9
:101F4000404807F03BFB002843D1002205213E48D2
:101F500007F04AFB00283FD13C4B93F80C31FD2B96
:101F60003DD007F0A9FF00285DD1394A142108208F
:101F700006F052FF002859D1FFF748FF4FF0A04369
:101F80004022C3F8082500F077F8FFF74BFFFFF772
:101F9000F9F9FFF706FAFFF705FA00222D492E4856
:101FA00000F03EF900222D492D4800F039F90022B9
:101FB0002C492D4800F034F900212C4800F0F4F8A9
:101FC00000200CB010BD06F019FFACE706F016FFBC
:101FD000AEE706F013FFB8E706F010FFBCE72449B0
:101FE00001A804F086FC194C0A22D4F8041108A8B0
:101FF00004F0A3FC08A901A804F0EBFC08A804F075
:1020000031FC1C4901A804F0EAFC616801A804F055
:10201000F4FC2422002104F1EC000CF027FC01A8C0
:1020200004F020FC9DE706F0E9FE9EE706F0E6FEE0
:10203000A2E700BFAC180400A51D03001C46002049
:10204000A71D0300B8180400A84400200040002089
:10205000CC440020781804007D6A03008C1804002A
:10206000416A03009C180400556A0300936A030048
:10207000501804006C18040010B584B0074B6C466F
:102080000FCB84E80F002146054808F083F908B912
:1020900004B010BD06F0B2FEFAE700BFBC180400A1
:1020A000CC18040008B5024808F094F908BD00BF38
:1020B000CC18040010B582B0009313460A460146BE
:1020C000054808F0A3F9044610B9204602B010BD37
:1020D00006F094FEF9E700BFCC1804001F2808D9C9
:1020E00000F01F00044A012303FA00F0C2F80805BB
:1020F00070474FF0A042F6E7000300501F2808D9B0
:1021000000F01F00044A012303FA00F0C2F80C0596
:1021100070474FF0A042F6E70003005008B5024BAD
:102120009B6AFFF7CDFE08BD00ED00E0D0ED067A1A
:1021300090ED077A37EE877AD0ED086A37EE267A87
:1021400080ED007AF1EE677A36EEA67A77EEC77AFE
:10215000C0ED017AC0ED026A01B9704708B50C22E2
:10216000002110440CF082FB08BD000008B500EB14
:102170008000074B4FF48072064901EB00210648AE
:1021800007F0E0FD00B908BD06F038FEFBE700BF30
:102190000000291700470020F8460020014B18686E
:1021A000704700BFEC460020F8B5174B174A5A6439
:1021B000174E184B00AF0122044604200D46307024
:1021C0001A60FFF7D3FF72B632784FF4A06302FBB8
:1021D0000333114A134483F30988104B83F30888AF
:1021E000EFF3148303F0040343F0020383F3148832
:1021F00062B607F0B5FF2846A0470020BD46BDE8FF
:10220000F84006F0FBBD00BF00600020E4180400A9
:10221000F0460020EC46002000470020000004208B
:102220002DE9F04182B0002844D00E4615460746FD
:1022300000248DF807400DF1070007F03BFA032C4E
:1022400013D8224623011D48C35813B10134E4B208
:10225000F5E70146200101EB0418013202EB82028E
:10226000174B03EB02220A5001E04FF000089DF8E3
:10227000070007F04BFAB8F1000F1DD0D8F8002086
:10228000A2F13003C8F80030C8F804600021C8F893
:102290000810022142F8041C42F8087C42F8305C25
:1022A0004FF00041E140074807F06EFA204602B0C7
:1022B000BDE8F081FF24F9E7FF24F7E70060002084
:1022C00000470020FC46002010B50446214B18783A
:1022D00007F08EFDD0B9204B1978204B03EB01138A
:1022E0009B68002B15DB09011C4B5C501C4B1B68C9
:1022F0001BB3194A11784A1C13FA02F218D0B2FA29
:1023000082F20A440132144B1A7019E006F076FD8D
:10231000E1E74FF0004323FA01F1C943104807F009
:1023200041FA0D4B1B781B010C4A0021D150DDE70F
:10233000B3FA83F3084A137002E0074B04221A70C1
:10234000054C2078FFF712FF23781B01034AD05871
:1023500010BD00BFF8460020F046002000600020BD
:10236000FC46002008B5034B1B6803B908BD07F005
:10237000F7FEFBE7EC46002010B501281FD0114BFB
:102380001A78114B03EB0213D8600E4B19780E4BE1
:1023900003EB0113D868012813D94FF0004424FA45
:1023A00001F1C943094807F0FDF9064B197824FAF1
:1023B00001F1074807F0E8F9FFF7D4FFE5E702204D
:1023C000DDE710BDF046002000600020FC46002044
:1023D000F446002038B50546000100F1080309481D
:1023E00018440021043007F0B4F94FF00044EC40E9
:1023F000E143054807F0D6F92146044807F0C4F93F
:1024000038BD00BF00600020F4460020FC460020DC
:10241000F8B50646134B1F68002409E0250108356E
:1024200011482844891B043007F093F90134E4B2C1
:10243000032C16D80C4B03EB0413D9684FF0004360
:10244000E3403B42F2D0B142E8D82046FFF7C2FF5A
:1024500025010835044828440121043007F079F9A2
:10246000E4E7F8BDF446002000600020014B187836
:10247000704700BFF0460020F0EE407AB0EE600AF0
:10248000F4EEE07AF1EE10FA01D8B0EE670A704788
:10249000B4EEE00AF1EE10FA01D8B0EE600A70472F
:1024A00008B52DED048BB0EE618AB4EE601AF1EE42
:1024B00010FA2AD0F0EE428A30EE600A31EE601A4D
:1024C000C0EE017A32EE619A29EE279A39EE219A0E
:1024D000F0EE420AB0EE610AFFF7CEFFF0EE409A4E
:1024E000B4EEC90AF1EE10FA01DCF0EE499AF0EE12
:1024F000680AB0EE480AFFF7CBFFB4EEE90AF1EE46
:1025000010FA04D4B0EE690A01E0B0EE610ABDEC45
:10251000048B08BD01230022994209DD10B4C45C7C
:10252000624001339942FADCD0B25DF8044B704747
:10253000D0B2704708B507F011F800B908BD06F031
:102540005DFCFBE738B507F091F804460A4D2968B1
:1025500007F092F82C604FF4FA4303FB00F010F5FB
:1025600080402CBF01230023C00B40EA4340034BB3
:102570001A681044186038BD546000205060002074
:1025800010B5044638B14FF47A40034B43F00103D1
:102590009847013CF7D110BDF018040010B9024B68
:1025A00001221A70704700BF6C600020642800D9B7
:1025B000642011B1094B01221A8038B1084B1B88E5
:1025C000834203D0054B01221A8003E010B9034B6C
:1025D00001221A80024B1880704700BF6A600020F9
:1025E00058600020037803B1704710B504460121FC
:1025F000406808F011FE28B90023084A1380002B18
:1026000003DD10BD06F0FAFBF6E7626832F813202E
:102610000249088802440A800133F0E76060002024
:1026200010B584B01E4B53F8042B03926C4693E80C
:10263000070003C400238DF803308DF80230052213
:102640008DF804208DF8053006228DF807208DF8CE
:1026500008308DF800308DF80130124903A808F0D9
:1026600031FD80B96946002008F084FD70B9012170
:102670000D4808F0D1FD60B901210C4808F0CCFDEF
:1026800050B904B010BD06F0B9FBEBE706F0B6FB9D
:10269000EDE706F0B3FBEFE706F0B0FBF1E700BFB4
:1026A000F8180400E525030064600020666000203F
:1026B00000B585B00A4B4FF48062C3F80C2501AB1E
:1026C000084A07CA83E80700074A1946074809F07D
:1026D00009FA10B905B05DF804FB06F08FFBF9E7C5
:1026E00000030050081904009D250300B441002098
:1026F00008B5124B0322C3F834274FF40051C3F836
:102700000C15C3F83C274FF40041C3F80C154FF0EB
:10271000A0410C20C1F87C07C3F828274FF4806241
:10272000C3F80C2507F09EFF20B9FFF779FFFFF7EC
:10273000BFFF08BD06F062FBF7E700BF00030050D3
:10274000014BB3F900007047686000200B4BB3F9F0
:10275000003041F2707000FB03F000280BDB8012A8
:102760004FF47A7303FB00F0054B83FB0023C01783
:10277000C0EB6310704700F2FF30F0E760600020AC
:10278000398EE33808B51F20FFF7E2FAB0FA80F07F
:10279000400908BD10B584B0214BB3F9003013B126
:1027A000204B1B7853B11F4B1B781BB11C4BB3F94B
:1027B00000307BB908F098FD04B010BDFFF7C2FEF1
:1027C000194B1B68C01AB0F52F7FECD9154B0122AD
:1027D0001A70E8E7134B00221A706C46134B0FCBAC
:1027E00084E80F00124B1B886FEA43436FEA5343A0
:1027F000104A13800223012221460F4809F0F0F904
:10280000044648B9002CD7D1054B00221A80FFF7A7
:1028100099FE054B1860CFE706F0F0FAF2E700BF2B
:102820006A6000206C6000205C60002014190400C5
:102830006860002070600020B441002038B5002896
:102840002ADB002564282BDC80B2254B1B78AB42A9
:1028500000D00121FFF7AAFE04460820FFF73EFC46
:102860002920FFF73BFC0C20FFF738FC1C4B1D70A8
:10287000C4B135B300212D20FFF74AFA01212F20E2
:10288000FFF746FA6342174A13802920FFF736FC08
:10289000FFF780FF204638BD404200B20125D1E756
:1028A0006420D2E700212D20FFF732FA00212F20EB
:1028B000FFF72EFA0B4B00221A800820FFF71EFCB0
:1028C000E6E701212D20FFF723FA00212F20FFF753
:1028D0001FFA044B1C800C20FFF710FCD8E700BF48
:1028E0006D600020686000200A2927D938B50546A8
:1028F0001446037803F07F031370437803F00F034B
:102900005370837803F07F039370C37803F003035D
:10291000D370037903F07F03137105320221C0885D
:1029200001F064F82B7AE3716B7A2372AB7A03F0CF
:102930003F036372EB7AA372002038BD6FF0090089
:1029400070470A2827D938B50D4614460B7803F08E
:102950007F0313704B7803F00F0353708B7803F0F1
:102960007F039370CB7803F00303D3700B7903F0EC
:102970007F0313710531022001F048F8E080EB7904
:1029800023722B7A63726B7A03F03F03A372AB7AE4
:10299000E372002038BD6FF00900704710B584B0B5
:1029A0000C460B2301AA012102F0B8FD08B104B0C6
:1029B00010BD224601A90B20FFF7C3FFF7E7162938
:1029C0004CD938B5044615460378137043785370D4
:1029D00083789370C378D37003791371437903F0CC
:1029E0000F03537183799371C37903F03F03D3715C
:1029F000037A03F00303137209320221408900F0C5
:102A0000F5FF05F10B020221B4F90C0001F00BF8FF
:102A100005F10D020221B4F90E0001F004F805F1F0
:102A20000F020221208A00F0E1FFB4F9120005F143
:102A300011020221C0F30C0000F0F5FF05F11302B2
:102A40000221B4F9140000F0EEFF05F11502022195
:102A5000B4F9160000F0E7FF002038BD6FF0090060
:102A60007047162847D938B50D4614460B781370B1
:102A70004B7853708B789370CB78D3700B7913713C
:102A80004B7903F00F0353718B799371CB7903F07A
:102A90003F03D3710B7A03F0030313720931022051
:102AA00000F0B4FF608105F10B01022000F0CBFFC4
:102AB000A08105F10D01022000F0C5FFE08105F1C4
:102AC0000F01022000F0A2FF208205F11101022077
:102AD00000F0B9FFC0F30C00608205F11301022081
:102AE00000F0B1FFA08205F11501022000F0ABFF5C
:102AF000E082002038BD6FF00900704710B586B045
:102B00000C4617236A460D2102F008FD08B106B0F5
:102B100010BD224669461720FFF7A3FFF7E71F29DC
:102B200068D938B5054614460221008800F05EFFDA
:102B3000AB7803F00103A370EB7803F00F03E370AD
:102B40002B7903F00F0323716B7903F01F0363717B
:102B5000AB7903F07F03A371EB7903F07F03E3719B
:102B60002B7A03F0010323726B7A6372AB7A03F062
:102B70000103A372EB7A03F00303E3722B7B03F0F0
:102B80001F0323736B7B03F003036373AB7B03F0BF
:102B90000303A373EB7B03F00703E3732B7C03F0C6
:102BA0001F0323746B7C03F001036374AB7CA37479
:102BB000EB7CE3742B7D23756B7D6375AB7DA37517
:102BC000EB7DE37504F118020221288B00F00EFF63
:102BD000AB7EA376EB7EE3762B7F03F00F032377A8
:102BE0006B7F6377AB7F03F00F03A377EB7FE37714
:102BF000002038BD6FF00900704715293FD938B55E
:102C000005461446037813704378537083789370A5
:102C1000C37803F07F03D370808804320221C0F3AD
:102C20000B0000F0E3FEAB7903F07F03A371EB79B7
:102C3000E3712B7A23726B7A03F001036372AB7A30
:102C400003F00703E37204F10C020221A88900F0EB
:102C5000CDFE04F10E020221E88900F0C7FE04F166
:102C600010020221288A00F0C1FEAB7CA374EB7C29
:102C7000E3742B7D23756B7D6375002038BD6FF089
:102C80000900704716293DD938B505461446037822
:102C900003F00F03137043785370837803F00F032E
:102CA0009370C378D370037903F00F0313714379E2
:102CB0005371837903F03F039371C37903F00F03DA
:102CC000D371037A1372437A03F03F0353720A32CB
:102CD0000221408900F08AFE04F10C020221A88939
:102CE00000F084FEAB7BA373EB7BE37304F1120271
:102CF0000421286900F0BBFE2B7D03F00103A375BE
:102D0000002038BD6FF00900704711293CD938B553
:102D100004461546037803F0030302F8013B022141
:102D2000408800F063FEEA1C0221A08800F05EFEED
:102D3000A37903F001036B71E37903F00703AB712F
:102D4000237AEB71637A2B72A37A03F07F036B72A1
:102D5000E37A03F07F03AB72237B03F00303EB7290
:102D6000637B03F003032B73A37B03F00F036B73ED
:102D7000E37BAB73237CEB73637C2B74A37C03F04A
:102D800003036B74002038BD6FF0090070470429FD
:102D900013D9037803F001031370437803F00103A0
:102DA0005370837803F001039370C37803F0030337
:102DB000D37003791371002070476FF009007047DA
:102DC00010B582B0044608466A460521FFF7DFFFCA
:102DD00008B102B010BD05236A468321204602F0E7
:102DE00096FBF6E72B2840F2898038B50D4614464D
:102DF0000B7803F03F0313704B7853708B7803F01C
:102E00000F039370CB78D3700431022000F0FEFDE5
:102E1000A080A91D022000F0F9FDE08005F1080165
:102E2000022000F0F3FD208105F10A01022000F0EC
:102E3000EDFD608105F10C01022000F0E7FDA081AD
:102E400005F10E01022000F0E1FDE08105F1100125
:102E5000022000F0DBFD208205F11201022000F0CB
:102E6000D5FD608205F11401022000F0CFFDA082A3
:102E700005F11601022000F0C9FDE08205F11801FC
:102E8000022000F0C3FD208305F11A01022000F0AA
:102E9000BDFD608305F11C01022000F0B7FDA08399
:102EA00005F11E01022000F0B1FDE08305F12001D3
:102EB000022000F0ABFD208405F12201022000F089
:102EC000A5FD608405F12401022000F09FFDA0848F
:102ED00005F12601022000F099FDE08405F12801AA
:102EE000022000F093FD208595F82A3084F82A30DE
:102EF00095F82B3084F82B30002038BD6FF0090096
:102F00007047202835D938B50D461446042000F006
:102F1000BEFD2060291D042000F0B9FD606005F1B0
:102F20000801042000F0BFFDA06005F10C010420A1
:102F300000F0ADFDE06005F11001042000F0A7FDF8
:102F4000206105F11401042000F0A1FD606105F18C
:102F50001801042000F0A7FDA06105F11C01042068
:102F600000F095FDE06195F8203084F820300020D5
:102F700038BD6FF009007047372840F2D38038B56C
:102F80000D461446022000F041FD2080AB7803F08E
:102F90007F03A370EB7803F03F03E3702B7903F01A
:102FA000030323716B7903F001036371AB7903F0C1
:102FB0003F03A371EB7903F03F03E37105F10801CF
:102FC000022000F023FDC0F309002081AB7A03F05A
:102FD0000303A372EB7A03F00303E3722B7B03F08A
:102FE0000F0323736B7B03F007036373AB7B03F067
:102FF0000103A373EB7B03F00303E3732B7C2374C4
:103000006B7C637405F11201022000F0FFFCC0F339
:103010000B00608205F11601022000F0F7FCA0828F
:1030200005F11801022000F0F1FCE082AB7E03F014
:1030300001032376EB7E03F0070363762B7FA376F1
:103040006B7FE376AB7F03F07F032377EB7F03F0A7
:103050007F03637795F8203003F00303A37795F897
:10306000213003F00F03E37795F8223084F8203005
:1030700095F8233084F8213095F8243084F82230F4
:1030800095F8253003F0010384F8233095F82630B5
:1030900003F0030384F8243095F8273003F01F036E
:1030A00084F8253095F8283003F01F0384F8263083
:1030B00095F8293003F01F0384F8273095F82A305B
:1030C00003F0010384F8283095F82B3003F0010356
:1030D00084F8293095F82C3003F0030384F82A3063
:1030E00095F82D3003F03F0384F82B3005F12E01C5
:1030F000042000F0CCFCC0F31100E06205F13201C5
:10310000042000F0C4FC206395F8363003F001037E
:1031100084F8343095F8373003F0010384F8353003
:10312000002038BD6FF009007047302840F29F80C2
:1031300038B50D4614460B7813704B7853708B7866
:1031400093700331022000F061FCA0806B7903F0E2
:103150007F03A371AB7903F00703E371EB7903F00D
:10316000070323722B7A03F03F0363726B7A03F039
:103170003F03A372AB7A03F00103E372EB7A03F02F
:103180007F0323732B7B03F0010363736B7B03F0DB
:103190003F03A373AB7B03F03F03E373EB7B237429
:1031A0002B7C63746B7CA374AB7CE374EB7C237526
:1031B0002B7D63756B7DA375AB7DE375EB7D23760E
:1031C0002B7E63766B7EA376AB7EE376EB7E2377F6
:1031D0002B7F63776B7FA377AB7FE377EB7F84F8FD
:1031E000203095F8203084F8213095F8213084F88B
:1031F000223095F8223084F8233095F8233084F873
:10320000243095F8243084F8253095F8253084F85A
:10321000263095F8263084F8273095F8273084F842
:10322000283095F8283084F8293095F8293084F82A
:103230002A3095F82A3084F82B3095F82B3084F812
:103240002C3095F82C3084F82D3095F82D3084F8FA
:103250002E3095F82E3084F82F3095F82F3084F8E2
:10326000303095F8303084F83130002038BD6FF0C0
:103270000900704710B58EB00C46312301AA40F208
:103280000F1102F04BF908B10EB010BD224601A992
:103290003120FFF74AFFF7E7082303700B23437041
:1032A0004FF47A7343604FF4206303814FF4A063BB
:1032B00043814FF4A05383810020704703460020D0
:1032C000187012225A700F229A700222DA7048F691
:1032D000A0425A600C221A81704738B50C464589C5
:1032E0000D60B0F90C10A180B0F90E20E280438986
:1032F000A360B0F90C30A381B0F90E30E381002354
:103300006382402323751DB963680BB9237401E000
:1033100001232374237C012B03D00023E3820020AC
:1033200038BD4023284600F0E1FBE082F7E74FF488
:10333000206303804FF47A73436043F2C8238360B1
:10334000C360082303742823437409238374002073
:103350007047034648F20302028048F201024280AD
:1033600048F2410282800E2098710A21D97106220A
:103370001A7258729972DA720221197321225A73E1
:103380000020D88118744FF4B4725A829A82DA827B
:10339000C0221A835A839A8308229A771022DA77F6
:1033A000012283F8202083F8211083F8222083F85B
:1033B000231083F824004FF42061D984198548F242
:1033C0003001D9624FF47A7119634FF4FA6159638D
:1033D00099634FF21861196443F2C8215964DA63A2
:1033E0004FF4FA529A6470472DE9F0470446089F5B
:1033F000099D4FF4206020800020A070E0702071B3
:103400006071A071E07120726072A072E07211268A
:1034100026734FF0020C84F80DC0A07384F80FC01F
:103420004FF0080884F810806074AE7FA674EE7FB9
:10343000E67495F82060267501266675A075E0751E
:1034400020834FF0FF0E84F81AE095F8109084F86E
:103450001B9095F80C9084F81C906077A077E0772B
:10346000087048704FF0200981F802900B24CC704E
:10347000B5F80EA0A1F804A081F806C04FF00D0A1F
:1034800081F807A095F80DA081F808A048728E7207
:103490008881C8814FF40C4AA1F810A088744FF0BD
:1034A000380A81F813A081F814E04E7510701A21C3
:1034B0005170907082F803901671CC215171947103
:1034C000D671F521117209215172B5F81490A2F844
:1034D0000A90B5F81A90A2F80C9082F80E804FF07E
:1034E000780882F80F80106110751E7058809880DF
:1034F000987195F82120DA711C725972EA799A72E2
:10350000AA7ADA721E7395F824205A7395F823204C
:103510009A73C722DA7383F810E0DB225A7483F8B7
:1035200012C07870BE70FE7021233B71BDE8F08739
:10353000F0B583B014461D46099E0196089F00977A
:10354000FFF752FF88B90722A27105236372F18A3F
:103550006181B18BA1810821A1733821E1732A72A5
:103560006B72337AAB72F37AEB7203B0F0BDF0B5E5
:1035700083B014461D46099E0196089F0097FFF7E9
:1035800033FF88B90F22A2710D236372718A6181A2
:10359000318BA1810821A173B821E1732A726B726A
:1035A000B379AB72737AEB7203B0F0BD70B582B0D1
:1035B0000D461C46079E0196069E0096FFF714FFD7
:1035C00018B90223AB723B23637402B070BD70B5AF
:1035D00082B00D461C46079E0196069E0096FFF798
:1035E00003FF18B90223AB725B23637402B070BD92
:1035F000F0B583B014461D46089F099E01960097BA
:10360000FFF7F2FE70B9A8742071B1226271E07107
:10361000D42323724FF4C063236196F82230EB71F8
:1036200040233B7103B0F0BDF0B583B014461D4696
:10363000089F099E01960097FFF77AFF78B9A87452
:103640000123237184226271E371B12323724FF449
:10365000C063236196F82230EB7140233B7103B0C5
:10366000F0BDF0B583B014461D46089F099E019633
:103670000097FFF77CFF70B9A874207197226271E0
:10368000E071B12323724FF4C063236196F82230B6
:10369000EB7140233B7103B0F0BD70B582B00C46B6
:1036A0001D46079E0196069E0096FFF7A1FF08B1F2
:1036B00002B070BD089A2946204600F00CFBF7E7DF
:1036C00070B582B00C461D46079E0196069E009678
:1036D000FFF7AAFF08B102B070BD089A294620463C
:1036E00000F0F9FAF7E770B582B00C461D46079E68
:1036F0000196069E0096FFF7B4FF08B102B070BDB8
:10370000089A2946204600F0E6FAF7E7F0B583B0BC
:1037100014461D46089F099E01960097FFF764FE18
:1037200058B9A8742071B1226271E071D423237258
:1037300096F82230EB7110233B7103B0F0BD30B529
:1037400083B0069C079D01950094FFF74DFE08B9D4
:103750000123637003B030BD012380F828300223B9
:1037600080F829300A2380F82A304FF4E663436258
:10377000704780F82C10002380F82D30022280F84A
:103780002E2080F82F3080F8301080F8313080F80B
:10379000322080F83330704790F8CC3113F0F00FBE
:1037A0000CD1032380F83030002380F8313002221E
:1037B00080F8322080F833300020704790F83130A4
:1037C000FF2B12D0013380F8313090F8323083F083
:1037D000020380F8323090F83030033B052B2FD8AD
:1037E000DFE803F0072E2E192024802380F83130E3
:1037F000EBE790F8C63113F0020F08D0062380F8EB
:103800003030002380F8313080F83330D4E708239B
:1038100080F83030F5E7002380F83130082380F855
:103820003030C9E7082380F83030C5E790F83330EE
:1038300083F0010380F83330082380F83030BBE791
:10384000032380F83030002380F83130022280F8E2
:10385000322080F83330AFE710B4034690F8CF2120
:1038600002F01F0190F8D14190F8CE2190F8CC01E0
:1038700010F0200F19D0120902F0020293F8300064
:1038800006280CD093F83110A1420CD06FF0110033
:1038900093F83230934209D06FF0120006E01229FB
:1038A00007D1002002E00020F2E700205DF8044B81
:1038B00070476FF01000F9E790F8CC3113F0F00F7B
:1038C0000CD1032380F82C30002380F82D30022205
:1038D00080F82E2080F82F300020704790F82D308F
:1038E000FF2B1AD0013380F82D3090F82E3083F062
:1038F000020380F82E3090F82C30032B11D0042BCB
:103900001CD0032380F82C30002380F82D300222B5
:1039100080F82E2080F82F30DEE7802380F82D30CD
:10392000E3E790F82F3083F0010380F82F30012374
:1039300080F82D30042380F82C30CDE790F82F301C
:1039400083F0010380F82F30C6E7037C0B70437CC3
:103950004B70837C8B70C37CCB70037D0B71437D7C
:103960004B71837D8B71C37DCB71037E0B72437E64
:103970004B72837E8B72C37ECB72037F0B73437F4C
:103980004B73837F8B73C37FCB7390F820300B74A2
:1039900090F821304B7490F822308B7490F82330DB
:1039A000CB7490F824300B7590F825304B7590F857
:1039B00026308B7590F82730CB7590F828300B7631
:1039C00090F829304B7690F82A308B7690F82B308F
:1039D000CB7690F82C300B7790F82D304B7790F811
:1039E0002E308B7790F82F30CB77704700238B42A7
:1039F0000BD210B4CC1A013C1055000A01339BB213
:103A00008B42F7D35DF8044B7047704702460020A5
:103A1000531E9BB232B111F8012B42EA002080B252
:103A20001A46F5E7704700238B420BD210B4CC1A2C
:103A3000013C1055001201339BB28B42F7D35DF865
:103A4000044B70477047024691F90030002B0ADBA7
:103A50000020531E9BB24AB1000200B211F8012BA4
:103A600010431A46F5E74FF0FF30F2E770470023A6
:103A70008B420BD210B4CC1A013C1055000A013312
:103A80009BB28B42F7D35DF8044B704770470246F8
:103A90000020531E9BB22AB111F8012B42EA0020EC
:103AA0001A46F6E77047024691F90030002B09DB11
:103AB0000020531E9BB242B111F8012B42EA0020B4
:103AC0001A46F6E74FF0FF30F3E7704738B50D467A
:103AD00000F0C2F90446284600F0C3F904EBC40420
:103AE0002402A40904FB00F0800938BD10B40001D1
:103AF000164C84FB00C4C017C0EBA414002919DBCA
:103B00000021002A19DB00200A1852010F4981FB0D
:103B10000201D217C2EBA112224402FB03F313F1FC
:103B200010000DD440110A4A93420BDC80B25DF8BC
:103B3000044B7047494209B2E3E7504200B2E3E761
:103B40001F30EFE74FF6FF70F1E700BFD34D621073
:103B5000EFFF1F004B0803EB0030B0FBF1F07047A4
:103B6000A0FB010110F5006341F100001B0B43EACB
:103B70000050704770B10138002330F0FF0203D0CD
:103B8000400801339BB2F8E71B029BB253FA80F066
:103B900080B270470020704708B5FFF7DBFFFFF7E2
:103BA000E9FF08BDC3B2000A03FA00F00130704714
:103BB00010B50C46FFF7F6FF2146FFF7D1FF10BD09
:103BC0002DE9F843099CCBB381460F46164698462B
:103BD000A1791846FFF77AFF054601464846FFF7E8
:103BE000B9FFFF2800D9FF20089BD8712946384625
:103BF000FFF7D2FFC0F307232370607029463046D9
:103C0000FFF7CAFFC0F3072323716071617A404652
:103C1000FFF75CFF054601463846FFF7BDFFC0F3DE
:103C20000723A370E07029463046FFF7B5FFC0F3C5
:103C30000723E37120720020BDE8F8836FF00E00C7
:103C4000FAE7072805D9C900C9B2081A71381070F7
:103C50007047C1F10F01C9B2C900C9B20844107060
:103C600070470309137000F00F00087070470901D6
:103C7000C9B20144117070470346032280F8E42260
:103C8000002083F8E50283F8E60283F8E70283F870
:103C9000E80283F8E90283F8EA02C3F8EC02A3F829
:103CA000F00270470346FF2280F8E622002280F8E7
:103CB000EA22C0F8EC22A0F8F02290F8E8220AB13B
:103CC00080F8632193F8E9220AB183F8602100208B
:103CD00083F88D01704703460120507000209070DA
:103CE0008B224A744FF448421A8202229A72704719
:103CF00090F8632180F8E82290F8603180F8E9328A
:103D000002F07F0280F8632103F0030390F8E422BD
:103D10009200D2B2134480F86031012380F88D31D3
:103D200090F8AE3280F8EA3280F887310020704790
:103D3000B0F8DE31B0F8D6211344B3F5803F01D39B
:103D40004FF6FF731B04B0F8D221BAB1B3FBF2F304
:103D5000C0F8EC32B0F8642112047BB1B2FBF3F38B
:103D6000B3F5803F01D34FF6FF739BB2A0F8F0325A
:103D7000A0F89431022380F88E3108E04FF400431C
:103D8000A0F8F032A0F89431022380F88E310020A0
:103D9000704770B582B005460E4600238DF8073097
:103DA0000DF10702E52101F0CFFB04469DF8073035
:103DB00013F0010F08D00123337003212846FFF7C9
:103DC000D8FC204602B070BD002333700221284683
:103DD000FFF7CFFCF5E770B582B005460E464FF40D
:103DE000966101F0E1FB044618B16CB1204602B0C7
:103DF00070BD0523019301230093E5223146284637
:103E000001F0D8FB0446F0E703212846FFF7B1FC98
:103E1000ECE710B582B0044600238DF80730037834
:103E200093B100239DF807209AB993B90DF10701CA
:103E30002046FFF7AEFF03460028F3D105212046B8
:103E400001F0ACFB0346EDE74FF4FA71FFF7C3FF57
:103E50000346184602B010BD4FF0804393FBF0F0CC
:103E600070470130C0B2400000F0FE00704710F013
:103E7000800F07D100F007030B70C0F17F00C01066
:103E800010707047C34303F0070308330B7080388A
:103E9000C0101070704710B504460022114601F0A2
:103EA00044FB10B130B158B110BD6421204601F07F
:103EB0007BFBF7E701220021204601F036FBF2E709
:103EC0002046FFF7A6FFEFE7B0F8B43233B1416107
:103ED00001FB03F1C0F8AC11002070476FF00E0039
:103EE0007047B0F8B42232B1D0F8AC31B3FBF2F382
:103EF0000B60002070476FF00E00704730B583B044
:103F00000446084611461A46B4F85E3163B1A06013
:103F1000E160226104F5CE75019504F5C274009448
:103F2000FFF74EFE03B030BD6FF00E00FAE72DE94B
:103F3000F0410446B0F85E0170B3884617461E464D
:103F400094F8A211FFF7C2FD0546014694F88B01D3
:103F5000FFF706FEC8F8000094F89C3194F89D0124
:103F600000EB0320294680B2FFF722FE386094F868
:103F7000A03194F8A10100EB0320294680B2FFF79D
:103F800017FE3060D8F80030A3603B68E360336808
:103F900023610020BDE8F0816FF00E00FAE70729E9
:103FA00012D810B471B101238B40DCB290F8C53146
:103FB0002340137059B143FA01F1117000205DF8EC
:103FC000044B70470124F1E76FF0030070470020B5
:103FD000F5E790F9703123F0100301F01001194357
:103FE00080F870110020704738B505460C4600F285
:103FF000C31209786078FFF724FE05F5E272E178D4
:10400000A078FFF734FE002038BD38B505460C46D1
:104010000A46013190F8C301FFF729FFE21CA11CF9
:1040200095F8C401FFF71DFE002038BD70B582B0C1
:1040300005460C4600268DF807608DF806600DF1E8
:1040400007020DF1060190F82A02FFF710FF9DF814
:10405000073023709DF80630637095F82B321A09EB
:10406000E27003F00F03A370304602B070BD70B56C
:10407000044600F5AC71FEF791FC0546D0B105B3DE
:1040800075B3B4F85E31B3F5805F03D24BF6CC4321
:10409000A4F85E3165B3B4F8A2304BB994F89E3001
:1040A0001B0184F8A23094F89F301B0184F8A330E0
:1040B000284670BD04F142012046FEF71FFD05466B
:1040C000DDE704F5FD7631462046FFF7D3F80546D7
:1040D0000028D5D104F1F0013046FFF736FCCFE7D8
:1040E00004F52D72DE21204601F039FA0546C8E7B5
:1040F00004F19E012046FFF799FF0546CBE7013901
:10410000252944D8DFE801F01313131313232323C5
:1041100043434343434343431323434343434343BF
:104120004343434343434343434343333333B0F86D
:10413000CA101180D0F8D0201A60D0F8D830009A78
:104140001360D0F8E430019A136000207047B0F893
:10415000CC101180D0F8D4201A60D0F8DC30009A4E
:104160001360D0F8E830019A136000207047B0F86F
:10417000CC101180D0F8D4201A60D0F8E030009A2A
:104180001360D0F8EC30019A1360002070476FF094
:10419000030070472DE9F04F89B004460D460592A3
:1041A000069300F5B27600F5C27700F5CE7800F5FB
:1041B000DA7900F5E47A00F1A40B00F5397307937E
:1041C0004170129BC360139B0361149B43610321E5
:1041D000FFF7CFFA013D252D00F2B180DFE805F0B1
:1041E0001325303B46515C67AFAFAFAFAFAFAFAF5A
:1041F000727DAFAFAFAFAFAFAFAFAFAFAFAFAFAF3E
:10420000AFAFAF8895A2CDF804B0CDF800A04B4673
:10421000424639463046FFF7E7F8002840F09180E3
:10422000059BA4F8643123838BE0CDF804B0CDF86E
:1042300000A04B46424639463046FFF779F9ECE795
:10424000CDF804B0CDF800A04B4642463946304682
:10425000FFF78DF9E1E7CDF804B0CDF800A04B46AB
:10426000424639463046FFF7A1F9D6E7CDF804B00B
:10427000CDF800A04B46424639463046FFF7A7F935
:10428000CBE7CDF804B0CDF800A04B464246394606
:104290003046FFF7ADF9C0E7CDF804B0CDF800A087
:1042A0004B46424639463046FFF7BEF9B5E7CDF8F2
:1042B00004B0CDF800A04B46424639463046FFF7E1
:1042C000D0F9AAE7CDF804B0CDF800A04B4642469D
:1042D00039463046FFF733FA9FE7CDF804B0CDF802
:1042E00000A04B46424639463046FFF70FFA94E7A6
:1042F000079B0293CDF804B0CDF800A04B46424690
:1043000039463046FFF7DCF987E7079B0293CDF883
:1043100004B0CDF800A04B46424639463046FFF780
:10432000BCF97AE7079B0293CDF804B0CDF800A062
:104330004B46424639463046FFF7D5F96DE76FF0F8
:10434000030018B148B109B0BDE8F08F139B129A71
:1043500006992046FFF7D2FDF4E714992046FFF7AF
:10436000B3FDF0E7B0F8A6310B8000207047A0F84D
:10437000A61100207047B0F8A8310B8000207047CC
:10438000A0F8A8110020704790F8603103F00303F3
:1043900003EB810380F860310020704730B585B0B1
:1043A00004460D466221FFF7E4F900232370012241
:1043B0006270A370E27022714FF47A72A2604FF4BF
:1043C000FA62E26043F2C8222261642262614FF421
:1043D0002062228384F8213040F2DB73A4F89C3001
:1043E0002046FFF7B9F90DBB04F58870FEF754FFBE
:1043F00004F59070FEF762FF04F5967104F1420037
:10440000FEF76BFF04F5A270FEF791FF04F1A40024
:10441000FEF79FFF20212046FFF7B6FF054648B173
:104420002046FFF729FC284605B030BD2046FFF79F
:104430001EFED9E76369029323690193E368009341
:10444000A368228B61782046FFF7A4FE0546E7E7C4
:104450002DE9F04FC3B00446164600F5AC7004F1E8
:10446000420B04F5B273009304F5C273019304F593
:10447000CE7A04F5DA7904F5E478A17094F9CC31B8
:1044800003F00F03194384F8CC11B4F84231A4F8B7
:104490007C3194F8E632FF2B19D0D4F8E43223F0C3
:1044A0007F4323F0FF03B3F5807F14D0D4F8E432C8
:1044B00023F07F4323F0FF03654A934224D0731E09
:1044C000052B37D8DFE803F03432302E382C0023A8
:1044D00084F8E632E1E794F8863184F8E732202365
:1044E00084F8863194F8C53113F0600F08D1B4F820
:1044F00058309B00A4F85430042ED7D80526D5E7B1
:104500000023A4F85430F7E794F8E73284F88631B2
:1045100006260125C5F18807BFB2002202AB12E0D2
:104520000125F7E72425F5E74425F3E75A25F1E7C8
:104530007125EFE78325EDE70D25EBE7002103F873
:10454000011B013292B2BA42F8D3052E35D80020B1
:10455000042E01D9002839D0032E01D900283FD0DC
:10456000022E01D9002845D0012E01D900284BD0B8
:10457000C6B1B8B9C5F1710292B294F8CC3113F05A
:10458000200F09D094F82E3043F0010184F8B411C3
:1045900084F8C01184F8C63102AB1A44122148468F
:1045A000FEF7B3FB002839D0002841D0002846D0C0
:1045B000002848D043B0BDE8F08FC5F1010202AB3E
:1045C00013FA82F20B21FEF78FF9C1E7C5F10D0254
:1045D00002AB13FA82F217215846FEF7F0F9BBE757
:1045E000C5F1240202AB13FA82F220210098FEF7F3
:1045F00096FAB5E7C5F1440202AB13FA82F216212E
:104600000198FEF7FAFAAFE7C5F15A0202AB13FAC6
:1046100082F217215046FEF735FBA9E7C5F1830268
:1046200002AB13FA82F205214046FEF7B0FBBBE76E
:104630003B4602AA2946204600F069FFB6E720461D
:10464000FFF7AAF8B4E72046FFF736F9B2E700BF54
:104650000001010038B5044690F9CC3103F00F0396
:1046600043F0800380F8CC3100F5E471FEF7A8FB3D
:10467000054694F8CC3103F00F0384F8CC310321C4
:104680002046FFF776F894F8E532012B01D0284652
:1046900038BD2046FFF706FBF9E7F0B5C1B00C4680
:1046A00000F5E77500F5227600F52B7701290ED08D
:1046B00002290ED186236A46882100F02FFF012CA3
:1046C00000D940B104B168B190B141B0F0BD4D2303
:1046D000F1E72C23EFE73A460DF14E013820FEF7C3
:1046E0004BFCEFE732460BA92120FEF70AFCEBE773
:1046F0002A4669462C20FEF775FBE6E708B503223B
:10470000FFF7A6FE08BD000070B4CC789C701C1D9D
:1047100000250AE04E7806F01F0684F83E60ADB131
:10472000012D45D040340135EDB2012D68D82570FA
:1047300000266660CE78002EECD14E7806F01F067B
:10474000092EE7D1132684F83E60E8E78E78072E1D
:1047500025D0082E26D08E8826820E8AA685CE8A5F
:10476000E6850E8926864E897601B6F5803F01D30F
:104770004FF6FF7626878E896687CE8906FB00F680
:1047800016F5806611D446F3CF26A6875668666272
:104790009668A662D668666116682662C2E74E8A87
:1047A0002682DAE78E8A2682D7E706F2FF76EAE7E4
:1047B0000E8B26824E8BA6854FF6FF76E6858E8B76
:1047C0002686CE8B7601B6F5803F01D34FF6FF7675
:1047D00026870E8C66874E8C00FB06F616F58066E3
:1047E0000BD446F3CF26A687566966629669A66201
:1047F000D66966611669266294E706F2FF76F0E7ED
:104800000022DA70497801F01F01112908D801222D
:104810008A400448024203D0D970002283F8422023
:1048200070BC70470E200200F8B50446164600F52D
:104830003D77FFF732FF054698B194F8E532012B3A
:1048400019D094F82C3084F8F43294F8303084F88D
:10485000F53284223946304609F0E0FF5DB3284640
:10486000F8BD3B4604F5227204F5E771B4F89C00EC
:10487000FFF74AFFE1E715B994F8E6327BB11DB9BD
:1048800094F8E632012B12D094F8E632FF2BD8D000
:10489000002DD6D12046FFF74BFA0546D1E720463A
:1048A000FFF726FA0546012384F8E632ECE70223F7
:1048B00084F8E632E8E72046FEF7CEFF0546CEE76D
:1048C000A1F50041382900F25881DFE811F03900E4
:1048D0003E00430048004D00520057005C0061005C
:1048E00066006B00700075007A007F00840089000C
:1048F0008E00930098009D00A200A700AC00B100BC
:10490000B600BB00C000C500CA00CF00D400D9006B
:10491000DE00E300E800ED00F200F700FC0001011A
:1049200006010B01100115011A011F0124012901C3
:104930002E01330138013D01420147014C01510173
:10494000B0F8A430136000207047B0F8A6301360B0
:1049500000207047B0F8A83013600020704790F82E
:10496000B03013600020704790F8B1301360002021
:104970007047B0F8B230136000207047B0F89C3038
:1049800013600020704790F8B43013600020704727
:10499000B0F8B630136000207047B0F8B83013603C
:1049A00000207047B0F8BA30136000207047B0F8AC
:1049B000BC30136000207047B0F8BE301360002098
:1049C0007047B0F8C03013600020704790F8C230D4
:1049D00013600020704790F8C330136000207047C8
:1049E00090F8C43013600020704790F84031136095
:1049F0000020704790F8C53013600020704790F891
:104A0000C73013600020704790F8C8301360002052
:104A10007047B0F93E3113600020704790F8AA301B
:104A200013600020704790F8AB301360002070478F
:104A300090F8AC3013600020704790F8AD301360F0
:104A40000020704790F8AE3013600020704790F857
:104A5000AF3013600020704790F8C630136000201C
:104A6000704790F8603113600020704790F8103163
:104A700013600020704790F81131136000207047D8
:104A8000D0F81431136000207047B0F8183113606B
:104A900000207047B0F81A31136000207047B0F85A
:104AA0001C31136000207047B0F8443113600020BF
:104AB0007047D0F84831136000207047D0F850316B
:104AC000136000207047D0F84C311360002070470D
:104AD00090F8543113600020704790F855311360FE
:104AE0000020704790F8563113600020704790F80E
:104AF000213113600020704790F8223113600020AC
:104B00007047B0F82831136000207047B0F8CA3001
:104B1000136000207047B0F8CC301360002070475D
:104B2000D0F8D030136000207047D0F8D430136034
:104B300000207047D0F8D830136000207047D0F8BC
:104B4000DC30136000207047D0F8E43013600020A0
:104B50007047D0F8E83013600020704790F8E432D6
:104B6000136000207047D0F8E030136000207047D9
:104B7000D0F8EC301360002070476FF000431360F2
:104B80006FF003007047000084B01F4B1B68ADF846
:104B90000C301B0C8DF80E301C4B1B68ADF8083028
:104BA0001B0C8DF80A301A4B1B68ADF804301B0C37
:104BB0008DF806300123137099420BD002290BD1D6
:104BC00004280BD0082817D003280ED06FF0070058
:104BD00004B070470023F3E70223F1E704A90B4474
:104BE00013F8043C13700020F2E704A90B4413F8F7
:104BF000083C13700020EBE704A90B4413F80C3CAD
:104C000013700020E4E700BF2419040028190400F1
:104C10002C19040058B3072926D0B2F93C10B1F57D
:104C2000967F07DB41F69A1303FB01F121B94FF49C
:104C3000C8000EE04FF4F011138F4A080C4800FB37
:104C40000323B3FBF1F319040A4AB2EB034F08D371
:104C5000501AC0F30740322808D9642828BF6420BE
:104C600070474FF44810F4E7322070473220704705
:104C7000CDCC300033B37500031F0F2B17D8DFE8FE
:104C800003F00C0A0E191214161610161616161624
:104C900008180A207047042070470220704701203E
:104CA0007047092070470320704700207047FF209D
:104CB000704706207047F0B589B005460C4611468E
:104CC0001F46032C12D0082C0ED020260DF11F02F7
:104CD0002046FFF759FF58B1B0B100B9AE7008B91E
:104CE00085F87C4309B0F0BD4026EFE74026EDE7AC
:104CF00004AB019305AB009306AB07AA9DF81F1008
:104D00002846FFF7FCF9E7E70297049B0193059B10
:104D10000093069BBDF81C209DF81F102846FFF746
:104D200039FADAE708B521B1012908D06FF003009C
:104D300008BDC2F38F31FFF71AFB0020F8E7C2F37A
:104D40004F21FFF71DFB0020F2E770B584B0044649
:104D500003A9FFF75AF994F87C6394F87F5350B194
:104D600080B198B1C0B1F0B140B360B308B984F874
:104D70007E5304B070BD02AB01AA69462046FFF71E
:104D8000D6F8EDE72046FFF765FCEAE74FF4FA7145
:104D9000204600F009FCE5E763692A4631462046D3
:104DA000FFF789FFDFE7029B019A00992046FFF792
:104DB000A5F80028D8D1029B2361D5E703A9204696
:104DC000FFF712F9D1E70622A1782046FFF740FB52
:104DD000CCE708B54FF4FA71FEF7FDFF08BD2DE9E9
:104DE000F04184B090F87C634B1EDBB2022B3ED8BE
:104DF00004460D46012B16D9032769462046FFF7C6
:104E000004F9D4F81480034678B1B3B12BB984F80F
:104E10007E7384F87F7384F87D53B3B10BB3184667
:104E200004B0BDE8F0810F46E7E703AB02AA01A991
:104E30002046FFF77CF80346E7E743463A4631460B
:104E40002046FFF738FF0346E0E7039B029A0199EB
:104E50002046FFF753F803460028DFD1039A22616A
:104E6000DCE769462046FFF7BFF80346D7E76FF057
:104E70000303D4E708B58B01034AA2FB032301EB2C
:104E80009311FFF721F808BDD34D621010B582B021
:104E90000C4601A9FFF725F8019B9A010349A1FBE4
:104EA0000212A3EB9213236002B010BDD34D621027
:104EB000012917D870B506460C4615462AB101F1EE
:104EC000E00300EB83039A6800E0002221463046AD
:104ED000FFF728FF28B9003D18BF0125344484F8A6
:104EE000845370BD6FF003007047012905D8084452
:104EF00090F88433137000207047002313706FF014
:104F000003007047012917D870B505460C461646B0
:104F1000431893F884332BB9E03400EB84008260AB
:104F2000002070BDFFF7FEFE0028FAD104F1E00179
:104F300005EB8104A660F4E76FF00300704770B5DD
:104F400006460121FFF72AFA044628B9012386F80C
:104F50007833082386F87C330025012D0AD84CB914
:104F6000012229463046FFF7A3FF044364B201350E
:104F7000EDB2F2E714B14CB1204670BD4FF490127F
:104F800000213046FFF7BEFF0446F4E74FF48042AD
:104F900001213046FFF7B6FF0446EDE770B582B059
:104FA000044616460D4629B1012917D06FF00300BB
:104FB00002B070BD01A9FFF7D5F9BDF804309B031D
:104FC0000028F5D193B905F1E00304EB83039B6856
:104FD00033602C44002384F88433E9E70DF10601A3
:104FE000FFF7C9F9BDF806305B02E9E7336005F168
:104FF000E00204EB820293602C44012384F88433A2
:10500000D6E700002DE9F04182B007460846164673
:105010001D46089C5B68236095F83E8008F01F08D9
:105020002A464146FFF7F6FD6071AB8D5B02A36037
:105030002B8E5B02E3602B8A23822B8F5B026361E2
:10504000B5F93C3023830023A3760D2E47D004D935
:10505000112E06D00023E37605E0013EF6B2022EC3
:10506000F8D80523E376E37E1BB94046FFF704FE3C
:10507000E0762B8F5B02C7F89033AB8D5B02C7F8ED
:1050800094336A4600213846FFF788FF0DF1070286
:1050900000213846FFF729FF9DF80730012B21D06A
:1050A000002387F886336A4601213846FFF776FFEA
:1050B0000DF1070201213846FFF717FF9DF8073071
:1050C000012B16D0002387F88733B4F91820E37E2C
:1050D0000BB9002A14DB002002B0BDE8F0810D23DB
:1050E000E376C0E7B8F1060F01D00023D9E701232A
:1050F000D7E7B8F1040F01D00023E4E70123E2E78A
:10510000044B5B689A4202DA0E23E376E3E700235E
:105110002383E0E7BC41002008B5FEF740FF08BD4F
:1051200070B586B006460D46454B994229D96FF0B9
:1051300003046CB3A4B3F4B996F87C33042B37D0D2
:10514000082B58D0032B44D03E49012300226FF096
:105150000704AA426DD2AA1A6CB98A426CD8B2FB73
:10516000F3F30493039A02993046FEF7C7FE044610
:1051700008B9049B33610CB9C6F88053204606B0C9
:1051800070BD0DF117020521FFF7C6FF0446D0E7F9
:105190000DF1160206213046FFF7BEFF0446C9E7AF
:1051A00004AB03AA02A93046FEF7C1FE0446C2E7DB
:1051B0009DF81730012B32D09DF81630012B04D00A
:1051C000204901234FF47A72C3E71E4941F2883225
:1051D000BFE79DF81730012B26D09DF81630012B24
:1051E00004D01949022345F26042B2E7164902236E
:1051F00046F2E872ADE701AA48F236013046FFF701
:105200005FFB019B002B08DDF52202FB03F2F53268
:1052100002F6DC520C4902239BE7F522F8E7094924
:10522000012341F2883294E70749022346F2E872EB
:105230008FE76FF003049EE76FF003049BE700BF66
:105240008096980070640800E0C8100038B50446E5
:105250000D464FF47A730322FFF72DFD78B903232F
:1052600084F87E3384F87F33EB1EDBB2012B01D947
:10527000082D06D14AF228012046FFF751FF30B130
:1052800038BD48F235212046FFF74AFFF7E74FF4D3
:105290007A712046FFF7EEFDF2E708B5032280F8A9
:1052A00078232021817080F87F2380F87E2380F886
:1052B0007D230821FFF7CAFF08BD70B586B00646FA
:1052C0000D4600238DF817308DF8163004930393A4
:1052D00002930B600DF117020521FFF71DFF044635
:1052E00068B1A4B1002C54D196F87C33042B16D0AD
:1052F000082B39D0032B23D06FF007044CE00DF1BD
:10530000160206213046FFF707FF0446E9E703AB24
:1053100004AA02A93046FEF70AFE0446E2E79DF819
:105320001730012B07D09DF81630012B03D0039BBB
:1053300003F57A732EE0039B03F59C53083329E0B1
:105340009DF81730012B09D09DF81630012B05D0A0
:10535000039B03F5285330335B001BE0039B03F5ED
:105360004F5334335B0015E001AA48F23601304652
:10537000FFF7A6FA019A002A09DDF52303FB02F3E1
:10538000F53303F6DC53039A03EB420302E0F52303
:10539000F7E7002304B92B60204606B070BD00007B
:1053A00030B583B0044690F87833032B19D00DD96B
:1053B000052B0ED8042B10D2A5786FF0020048B34D
:1053C00010B9042384F8783303B030BD022BF3D82E
:1053D00003E0623BDBB2012BEED8A5786FF00D0045
:1053E000EDE78578402D01D00020E8E701A9FFF71F
:1053F00064FF019B0C4AA2FB03239B0901936946AE
:105400002046FFF743FD019B0433009A934207D8DF
:105410000020D4E7062229462046FFF719F8CFE7F7
:105420006FF00300CCE700BFD34D621008B5817860
:1054300090F87E2390F87F339A4202D0FFF785FCE4
:1054400008BDFFF75BF9FBE730B5A5B005460C4694
:105450001C22FF21204609F009FA03AA022128464E
:10546000FFF7E2F908B125B030BD9DF80E30237189
:10547000009404AB9DF80F2001212846FFF7C2FDE0
:10548000F1E7000070B582B00546084611461C469B
:10549000030A0C4E337070702246B01C09F0BEF93E
:1054A000009602348DF8044005F0FE058DF8055095
:1054B00000208DF80600034601226946FCF7FAFD3C
:1054C00002B070BD7460002010B586B014460A0AA0
:1054D0008DF814208DF8151005AA019202228DF87E
:1054E000082000F0FE018DF8091000208DF80A0058
:1054F00003948DF8103041F001018DF811108DF8F2
:105500001200034601A9FCF7D5FD06B010BD08B591
:1055100090F89803FFF7B6FF002008BD08B590F893
:105520009803FFF7D1FF002008BD00B583B08DF8C8
:10553000072001230DF1070290F89803FFF7A2FF5F
:1055400040B203B05DF804FB08B5012390F898035E
:10555000FFF7BAFF00B908BD4FF0FF30FBE710B509
:1055600082B014460023ADF80430022301AA90F85B
:105570009803FFF7A9FF034630B99DF804109DF882
:10558000052002EB0122228058B202B010BD10B5F6
:105590000446FCF7D7FF2060002010BD08B5084680
:1055A000FCF7EEFF002008BD08B50120FCF7E8FF7E
:1055B000002008BD2DE9F04F85B006460F46914604
:1055C00098469DF838A0DDF83CB00024039402947E
:1055D0008DF8074003A8FFF7DAFF254623460CE0C5
:1055E00001251BE059463046FFF7D8FF044602A8C4
:1055F000FFF7CDFF029B039A9B1ABCB9BB4215D2A1
:10560000A5B90DF1070249463046FFF79DFF044654
:105610009DF807300AEA03034345E1D0002CE6D1A8
:10562000002DE4D1BBF1000FE1D0DBE705B91CB1DF
:10563000204605B0BDE8F08F6FF00604F8E710B51E
:105640000446002380F80831B0F8F2100A4600F052
:10565000EFFEB4F8F2100A4604F13C0000F0E8FE58
:10566000B4F8F2100A4604F1B40000F0E1FEB4F818
:10567000F2100A4604F1A00000F0DAFEB4F8F210CD
:105680000A4604F1DC0000F0D3FEB4F8F0100A463C
:1056900004F1C80000F0CCFEB4F8F2100A4604F1A0
:1056A000280000F0C5FE0122B4F8F21004F16400F5
:1056B00000F0BEFE0122B4F8F21004F18C0000F0FC
:1056C000B7FE0122B4F8F21004F1780000F0B0FE49
:1056D000B4F8F020B4F8F21004F1500000F0A8FE85
:1056E000B4F8F220B4F8F01004F1140000F0A0FEB9
:1056F00010BD70477047704770472DE9F843044666
:10570000814248D00D46D1F804900F68A9EB0706F6
:10571000B010A368D4F80080A3EB08039B10B3EB90
:10572000A60F18D36268A2EB0802B0EBA20F39D91A
:10573000BB18BB4203D03946404609F07DF82968C2
:1057400060682368C31A19446B685A1A99421FD0BB
:1057500009F072F81CE018B3B0F1005F1ED28000AF
:1057600008F0C4FF05463846FFF7C5FF0746484620
:10577000FFF7C1FFC21B874203D03946284609F014
:105780005BF8206808B108F0A0FF25603544A560EB
:1057900023681E4466602046BDE8F88308F0C3FF16
:1057A0000025E0E73846FFF7A6FF05464846FFF725
:1057B000A2FF07464046FFF79FFF7A1BBD42E7D096
:1057C000294609F039F8E3E72DE9F04F83B00746A1
:1057D000814200F0888089464E680C68A6EB040B75
:1057E0004FEAAB00794A02FB00F0BB68D7F80080B3
:1057F000A3EB08039B1002FB03F3834214D37D68E1
:10580000A5EB0805AB10714D05FB03F5A8426ED959
:10581000002D40F39C8021464046FFF76EFF0C347C
:1058200008F10C08013DF3E770B1694B984209D8C3
:1058300000EB4000800008F059FF01902146B2467D
:10584000019C12E008F06FFF00230193F6E708F0D7
:105850006AFF00251CE04A463146284608F0ECFF66
:105860004D44656008F10C010C348846514522D046
:105870004E680B68F61A002323606360A360B010C3
:10588000E7D0B0F1005FE2D2800008F02FFF0546BC
:10589000256065602E44A660D8F80490D8F8000012
:1058A000FFF729FF06464846FFF725FFA0EB06094C
:1058B0008642D0D1D4E73C687D6800E00C34A54234
:1058C00005D020680028F9D008F0FFFEF6E7386818
:1058D00008B108F0FAFE019B3B6003EB0B00B860D7
:1058E0003B685B447B60384603B0BDE8F08F4546BB
:1058F0002046FFF7FEFE81463046FFF7FAFE0646D9
:105900004046FFF7F7FE0446A6EB0906B3102F4EFC
:1059100006FB03F6002E08DD49462046FFF7EDFEA4
:1059200009F10C090C34013EF4E72846FFF7E2FECA
:10593000201A28447D6801E004F10C000446A842C6
:10594000CED000680028F7D008F0BFFEF4E7D9F801
:1059500000207C683B68E31A02EB0308D9F8049046
:105960000DE008F0E0FE00251DE0524631462846D5
:1059700008F062FF5544656008F10C080C34C1451D
:10598000AED0D8F80460D8F80030F61A00232360AF
:105990006360A360B010E6D0B0F1005FE1D2800098
:1059A00008F0A4FE0546256065602E44A660D8F880
:1059B00004A0D8F80000FFF79EFE06465046FFF709
:1059C0009AFEA0EB060A8642CFD1D3E7ABAAAAAAD9
:1059D000AAAAAA0A2DE9F0439BB004460D4606A8E0
:1059E00000F08CFB04F18C0804F1640221460BA842
:1059F00000F0BEFD0B9BC4F88C300C9BC4F89030BB
:105A000004F194070DA93846FFF7DEFE0D9EDDF880
:105A1000389002E008F059FE0C36B14503D03068EA
:105A20000028F7D1F8E70D9808B108F04EFEAB69F1
:105A3000002B53D0EB69002B50D001A800F05EFB87
:105A400005F1180204F1280110A800F091FD109B47
:105A50000193119B029312A903A8FFF7B5FE129DB3
:105A6000139E00E00C35AE4205D028680028F9D01E
:105A700008F02BFEF6E7129808B108F026FE01AAFE
:105A8000414615A800F016FD159BC4F88C30169BF6
:105A9000C4F8903017A93846FFF796FE179C189D5A
:105AA00002E008F012FE0C34A54203D02068002862
:105AB000F7D1F8E7179808B108F007FE039C049D9A
:105AC00002E008F002FE0C34A54203D02068002852
:105AD000F7D1F8E7039808B108F0F7FD089C099D95
:105AE00002E008F0F2FD0C34A54203D02068002843
:105AF000F7D1F8E7089808B108F0E7FD1BB0BDE85A
:105B0000F08300002DE9F04FFFB00446884690F87E
:105B1000083113B9012380F8083141462046FFF7C8
:105B200059FF24A800F0EAFA214629A800F064FDF4
:105B3000299B24932A9B25932BA926A8FFF744FE93
:105B40002B9D2C9E02E008F0C0FD0C35AE4203D028
:105B500028680028F7D1F8E72B9808B108F0B5FDC0
:105B600004F1A00504F1B40221462EA800F000FDC6
:105B70002E9BC4F8A0302F9BC4F8A43004F1A807D2
:105B800030A93846FFF720FE309EDDF8C49002E0D1
:105B900008F09BFD0C36B14503D030680028F7D1E2
:105BA000F8E7309808B108F090FD24AA294633A8F8
:105BB00000F0DEFC339BC4F8A030349BC4F8A43062
:105BC00035A93846FFF700FE359EDDF8D89000E095
:105BD0000C36B14505D030680028F9D008F075FDC5
:105BE000F6E7359808B108F070FD04F1DC022946AB
:105BF00038A800F05FFC389BC4F8A030399BC4F88B
:105C0000A4303AA93846FFF7DFFD3A9E3B9F02E0F9
:105C100008F05BFD0C36B74203D030680028F7D19E
:105C2000F8E73A9808B108F050FDDFEDA10A9FEDC2
:105C3000A10A284600F0C7FA1FA800F05FFA04F195
:105C4000140739463DA800F0D7FC3D9B1F933E9BAF
:105C500020933FA921A8FFF7B7FD3F9EDDF80091F3
:105C600002E008F032FD0C36B14503D03068002860
:105C7000F7D1F8E73F9808B108F027FD04F1500686
:105C80001FAA294642A800F073FC429B2365439B50
:105C9000636504F1580A44A95046FFF795FDDDF805
:105CA0001091DDF814B103E008F00FFD09F10C09C3
:105CB000CB4504D0D9F800000028F5D1F6E7449888
:105CC00008B108F002FD1AA800F018FA3246394669
:105CD00047A800F04DFC479B1A93489B1B9349A98A
:105CE0001CA8FFF771FDDDF82491DDF828B103E071
:105CF00008F0EBFC09F10C09CB4504D0D9F8000001
:105D00000028F5D1F6E7499808B108F0DEFC04F167
:105D1000C8021AA94CA800F0CDFB4C9B1A934D9BCE
:105D20001B934EA91CA8FFF74FFDDDF83891DDF855
:105D30003CB103E008F0C9FC09F10C09CB4504D0E3
:105D4000D9F800000028F5D1F6E74E9808B108F020
:105D5000BCFC15A800F0D2F91AA951A800F072FCF9
:105D6000519B1593529B169353A917A8FFF72CFD2F
:105D7000DDF84C91DDF850B103E008F0A6FC09F124
:105D80000C09CB4504D0D9F800000028F5D1F6E77E
:105D9000539808B108F099FC15AA314656A800F0AE
:105DA000E7FB569B2365579B636558A95046FFF751
:105DB0000BFDDDF86091DDF864A103E008F085FCDF
:105DC00009F10C09CA4504D0D9F800000028F5D122
:105DD000F6E7589808B108F078FC10A800F08EF9A2
:105DE0000BA800F08BF904F18C0239465BA800F097
:105DF000BFFB5B9B10935C9B11935DA912A8FFF7FF
:105E0000E3FCDDF87491DDF878A103E008F05DFCB7
:105E100009F10C09CA4504D0D9F800000028F5D1D1
:105E2000F6E75D9808B108F050FC10AA08F10401EB
:105E300060A800F06EFB609B0B93619B0C9362A9C2
:105E40000DA8FFF7C1FCDDF88881DDF88C9103E037
:105E500008F03BFC08F10C08C14504D0D8F800005C
:105E60000028F5D1F6E7629808B108F02EFC04F19D
:105E7000780A0BAA314665A800F07AFB659BA367F8
:105E8000669BE36767A904F18000FFF79DFCDDF8DE
:105E90009C81DDF8A09101E008F10C08C1450BD010
:105EA000D8F800000028F7D008F00FFCF4E700BF96
:105EB000A5D468537D1D9026679808B108F005FCAD
:105EC00004F16409D4F88C306366D4F89030A3668A
:105ED00004F16C0804F194014046FFF775FC52464A
:105EE00049466AA800F0E6FA6A9B63666B9BA36664
:105EF0006CA94046FFF768FCDDF8B081DDF8B4918D
:105F000003E008F0E2FB08F10C08C14504D0D8F822
:105F100000000028F5D1F6E76C9808B108F0D5FB31
:105F200006A800F0EBF801A800F0E8F8B4F8F210C9
:105F30000A4601A800F07CFAB7EE000A01A800F0BA
:105F4000F9F83A4631466FA800F012FB6F9B0693B2
:105F5000709B079371A908A8FFF736FC719E729F8A
:105F600002E008F0B2FB0C36B74203D030680028DC
:105F7000F7D1F8E7719808B108F0A7FB06AA01A9C4
:105F800074A800F0C6FA749B0193759B029376A9DE
:105F900003A8FFF719FC769E779F02E008F095FBB7
:105FA0000C36B74203D030680028F7D1F8E776986E
:105FB00008B108F08AFB2A4601A979A800F0D8FAAE
:105FC000799BC4F8B4307A9BC4F8B8307BA904F14B
:105FD000BC00FFF7F9FB7B9C7C9D00E00C34A542E4
:105FE00005D020680028F9D008F06FFBF6E77B9811
:105FF00008B108F06AFB039C049D02E008F065FB11
:106000000C34A54203D020680028F7D1F8E70398A4
:1060100008B108F05AFB089C099D02E008F055FB06
:106020000C34A54203D020680028F7D1F8E708987F
:1060300008B108F04AFB0D9C0E9D02E008F045FBFC
:106040000C34A54203D020680028F7D1F8E70D985A
:1060500008B108F03AFB129C139D02E008F035FBF2
:106060000C34A54203D020680028F7D1F8E7129835
:1060700008B108F02AFB179C189D02E008F025FBE8
:106080000C34A54203D020680028F7D1F8E7179810
:1060900008B108F01AFB1C9C1D9D02E008F015FBDE
:1060A0000C34A54203D020680028F7D1F8E71C98EB
:1060B00008B108F00AFB219C229D02E008F005FBD4
:1060C0000C34A54203D020680028F7D1F8E72198C6
:1060D00008B108F0FAFA269C279D02E008F0F5FACC
:1060E0000C34A54203D020680028F7D1F8E72698A1
:1060F00008B108F0EAFA7FB0BDE8F08F0022026034
:1061000042608260C260026170477047836801EB41
:10611000410153F8213003EB820383ED000A7047FD
:10612000836801EB410153F8213003EB820393EDC7
:10613000000A7047002103688B4221D9002342687E
:106140009A421BD930B413E0013103688B4213D952
:1061500000230AE010EE105A826801EB410452F865
:10616000242002EB83021560013342689A42EBD986
:106170009942EFD00025EFE730BC70470131DAE7F4
:106180007047002103688B421CD9002342689A4261
:1061900016D910B4826801EB410452F8242002EBB6
:1061A000830282ED000A013342689A42F2D801313B
:1061B00003688B4201D90023F6E75DF8044B704772
:1061C0000131DFE77047002103688B422ED900229E
:1061D0004368934228D910B410E0013103688B4220
:1061E0001FD9002207E0F4EEE70AF1EE10FA01D51C
:1061F000C3ED000A013243689342EED9836801EB94
:10620000410453F8243003EB8203D3ED007AF0EE1F
:10621000E77AB4EEE70AF1EE10FAE4DD83ED000A66
:10622000E8E75DF8044B70470131CDE770470000A7
:1062300008B59FED020AFFF7A4FF08BD00000000AB
:106240002DE9F04784B081460C4615468368066800
:106250009B1B9B10734A02FB03F38B4211D34768CD
:10626000BB1B9A106F4B03FB02F3994275D8002CAD
:1062700000F0C38029463046FFF73FFA013C0C3658
:10628000F5E7694B994210D8A1B1674B99420FD8F5
:1062900001EB4100800008F029FA0646019604EB64
:1062A000440306EB8303039313E0604808F03EFACF
:1062B00008F039FA0026F1E708F035FA00271BE06C
:1062C00052464146384608F0B7FA57447760013CD9
:1062D0000C3624B36A682B68A2EB030800233360F2
:1062E0007360B3605FEAA800E8D0B0F1005FE3D26A
:1062F000800008F0FBF907463760776007EB08037A
:10630000B360D5F804A02868FFF7F5F98046504639
:10631000FFF7F1F9A0EB080A8045D1D1D5E7019B41
:10632000D9F800400194D9F804500295C9F800301A
:10633000C9F80460039BC9F8083000E00C34A5429A
:1063400005D020680028F9D008F0BFF9F6E70198D9
:10635000002863D008F0B9F960E03046FFF7CAF9C9
:1063600006463846FFF7C6F90746B74205D0294624
:106370003046FFF7C2F90C36F7E7D9F80460D9F8D0
:106380000030F31A9B10274A02FB13440CE008F07C
:10639000CAF900271BE052464146384608F04CFA3D
:1063A00057447760013C0C3624B36A682B68A2EB33
:1063B0000308002333607360B3605FEAA800E8D08D
:1063C000B0F1005FE3D2800008F090F90746376033
:1063D000776007EB0803B360D5F804A02868FFF7DF
:1063E0008AF980465046FFF786F9A0EB080A8045F7
:1063F000D1D1D5E7C9F8046010E0D9F80450AE4215
:106400000CD0344600E00C34A54205D020680028AA
:10641000F9D008F05AF9F6E7C9F8046004B0BDE80D
:10642000F08700BFABAAAAAAAAAAAA0A3019040038
:1064300070B584B0B2F1005F18D205460E4614461E
:106440000023019302930393AAB1B2F1005F10D22B
:10645000900008F04BF9019000EB8403039323466E
:106460005BB1002240F8042B013BF9E70A4808F031
:106470005DF908F058F90020EDE7029001AA3146D5
:1064800005F10800FFF7DCFE2E606C60019808B192
:1064900008F01BF904B070BD3019040010B50446B3
:1064A0000160426000238360C3600361FFF7C0FFA7
:1064B000204610BDF8B507460E4615464A680968DD
:1064C000FFF7ECFF4FF0000C01E00CF1010C33681A
:1064D0009C451CD200236A689342F6D2B2680CEB4A
:1064E0004C04A400115901EB8301AA68125902EB74
:1064F0008302B868045904EB8304D1ED007A92ED6D
:10650000007A77EE877AC4ED007A0133E3E7384604
:10651000F8BDF8B507460E4615464A680968FFF704
:10652000BDFF4FF0000C01E00CF1010C33689C45FD
:106530001CD200236A689342F6D2B2680CEB4C047A
:10654000A400115901EB8301AA68125902EB8302DE
:10655000B868045904EB8304D1ED007A92ED007A17
:1065600077EEC77AC4ED007A0133E3E73846F8BD29
:106570002DE9F04106460C46154652680968FFF7BA
:106580008DFF4FF0000C2FE001376B689F4229D23E
:10659000B2680CEB4C039B001846D358B90003EBD0
:1065A000870300221A60002362689A42ECD9A2682D
:1065B000125802EB830EAA6803EB430852F8282016
:1065C0000A44DEED007A92ED007A27EE877AB2680F
:1065D00012580A44D2ED007A77EE877AC2ED007A3B
:1065E0000133E1E70CF1010C23689C4501D200273F
:1065F000CBE73046BDE8F081F8B507460E460A689D
:106600004968FFF74BFF002500E001353368AB42D6
:1066100015D9002372689A42F7D9B26805EB450193
:1066200052F8214004EB8304BA6803EB430152F8AB
:10663000212002EB8502216811600133EAE7384628
:10664000F8BD0000F0B587B005460E460C6822463E
:106650002146FFF723FF31684A0001A8FFF71EFF1C
:10666000002725E03819834219D00133B3EB440FDA
:106670001DD207EB47029200039988584FEA830C1A
:1066800000EB830000210160A342EBD2B16888587F
:10669000604403998958614400680860E2E70399FF
:1066A0008A5894444FF07E52CCF80020DDE7013741
:1066B000A74201D20023D9E704F1FF3C00E0B44631
:1066C000BCF1000F2ED00CF1FF36039A06EB460307
:1066D0009B001846D35893ED007A0CEB4C0C4FEA14
:1066E0008C0C674652F80C30D3ED007AB4EEE77AA2
:1066F000F1EE10FAE3D50023B3EB440FDFD2039998
:10670000CA5902EB8302D2F800C0095801EB830199
:1067100009681160039A125802EB8302C2F800C0A4
:106720000133E9E7E64632E00130A0422DD286454A
:10673000FAD0039A00EB40039B001F46D35803EBAB
:106740008E0393ED007A0EEB4E039B001E46D3584A
:1067500003EB8E03D3ED007AC7EE276A6346B3EBF3
:10676000440FE1D203998A5902EB8302D2ED007AF9
:1067700026EEA77ACA5902EB8302D2ED007A77EEB1
:10678000C77AC2ED007A0133E9E70EF1010EA645A2
:1067900001D26046C9E7664600E00136A64224D22F
:1067A00006EB46039B001846039AD35803EB860377
:1067B000D3ED006AF5EE406AF1EE10FA01D1DFED9B
:1067C000146A6346A342E8D21A190399095801EBE7
:1067D0008201AA68125802EB830291ED007AC7EE9B
:1067E000267AC2ED007A0133ECE7039C049E00E0B8
:1067F0000C34A64205D020680028F9D007F065FFC8
:10680000F6E7039808B107F060FF284607B0F0BD2F
:106810007F96184B30B40546084600240AE0DBB2E8
:106820003733DBB221460355B5FBF2F3AA420BD84E
:1068300001341D46B5FBF2F302FB1353092BEED8CE
:10684000DBB23033DBB2EDE70131002343549C422D
:1068500006DDC25C015DC15402550133013CF6E71F
:1068600030BC704710B50446006807F0C1FF2046F1
:1068700010BD38B504460D460131006808F012FD20
:1068800018B120606560012038BD0020FCE7436836
:106890008B4201D30120704710B50446FFF7E9FF92
:1068A00000B910BDA36813B9236800221A70012033
:1068B000F7E770B5044632B9036803B11A700023D4
:1068C000A360204670BD0D4616461146FFF7DFFF58
:1068D00048B9206818B107F08BFF0023236000231C
:1068E0006360A360EDE7A6602946206808F06AFDB2
:1068F000E7E738B504460023036043608360037311
:1069000041B10D46084608F065FD0246294620467D
:10691000FFF7CFFF204638BD38B5044651B10D46CC
:10692000084608F057FD024629462046FFF7C1FFFA
:10693000204638BD00238360FAE710B58AB00446CC
:106940000846002323606360A360237301A9FFF757
:1069500061FF01A92046FFF7DFFF20460AB010BD06
:106960002DE9F84304460E461546836803EB0208FA
:1069700002688A4206D813448B4209D98F1A4FF015
:10698000010901E04FF000092DB92046BDE8F88368
:106990004FF00009F8E741462046FFF778FF00284E
:1069A000F3D0B9F1000F0DD02368A0682A46D91999
:1069B000184407F033FF2368002203F80820C4F8C6
:1069C0000880E2E72068A3683146184408F0FAFC22
:1069D000F5E708B58A680968FFF7C2FF08BD38B552
:1069E000044641B10D46084608F0F4FC024629462B
:1069F0002046FFF7B5FF204638BD10B584B00446E9
:106A000008460A2201A9FFF705FF01A808F0E2FCE9
:106A1000024601A92046FFF7A3FF204604B010BD9F
:106A2000012800D0704708B54FF6FF73994200D097
:106A300008BD024800F05CF8FAE700BF746100206E
:106A400008B53220FBF798FC00F04CFE00F07CFE0D
:106A5000FCE7000008B500F09FFD074800F095F83E
:106A6000FBF704FD00F03CFB1420FBF785FC00F075
:106A70000DFCFBF743FAF7E77461002008B502F05C
:106A800059FAFAF794FCFBF729FA1420FBF774FC87
:106A9000F5E708B5FBF71CF9FBF764FCFAE708B566
:106AA0004FF6FF710120FFF7BBFF08BD70B406462B
:106AB0000025284611E064080133DBB2072B0AD811
:106AC00080EA040212F0010F4FEA5000F3D080F088
:106AD0008C00C0B2EFE70135EDB28D4202DA745D91
