:020000023000CC
:1010000000000420251903004D190300D5990300A1
:101010005119030053190300551903000000000083
:10102000000000000000000000000000571903004D
:1010300059190300000000005B1903005D1903004B
:1010400061B203005F1903005F1903005F19030019
:101050006DBC03005F19030009AF03006DB203000C
:101060005F19030011C0030029C003005F190300CA
:101070005F1903005F1903005F1903005F19030084
:1010800041C00300819803005F1903005F1903004A
:10109000A9980300F1FC0300691E03005F19030017
:1010A0005F1903005F1903005F1903005F19030054
:1010B0005F1903005F19030000000000000000003A
:1010C0005F190300B5BF03005F1903005F19030038
:1010D0005F1903005F1903005F1903005F19030024
:1010E0005F1903005F1903005F190300000000008F
:1010F000000000005F190300000000005F190300FA
:1011000000000000000000000000000000000000DF
:1011100000000000000000000000000000000000CF
:1011200000000000000000000000000000000000BF
:1011300000000000000000000000000000000000AF
:10114000000000000000000000000000000000009F
:10115000000000000000000000000000000000008F
:10116000000000000000000000000000000000007F
:10117000000000000000000000000000000000006F
:10118000000000000000000000000000000000005F
:10119000000000000000000000000000000000004F
:1011A000000000000000000000000000000000003F
:1011B000000000000000000000000000000000002F
:1011C000000000000000000000000000000000001F
:1011D000000000000000000000000000000000000F
:1011E00000000000000000000000000000000000FF
:1011F00000000000000000000000000000000000EF
:1012000010B5054C237833B9044B13B10448AFF340
:1012100000800123237010BD004700200000000063
:10122000DC45040008B5034B1BB103490348AFF389
:10123000008008BD0000000004470020DC450400D9
:10124000154B002B08BF134B9D46A3F5803A002198
:101250008B460F461348144A121A0EF011FF0F4B1B
:10126000002B00D098470E4B002B00D09847002051
:10127000002104000D000D48002802D00C48AFF3F7
:1012800000800EF093FE2000290000F053FF0EF0C6
:1012900079FE00BF000008000000042000000000EC
:1012A00000000000004700208C81002000000000AA
:1012B0000000000075DF704776DF70477CDF704705
:1012C0007FDF70478FDF704710B588B0002307932A
:1012D00007A901200EF05AFD20BB07A80EF0C6FD9D
:1012E00018BB9DF81830012262F3030362F3071361
:1012F0008DF818301422002101A80EF0C1FE0C4C0C
:1013000020460FF0A9FC0246214601A80EF090FEEF
:1013100020460FF0A1FC82B201A906A8FFF7CEFF7C
:1013200008B010BD07F014FFD7E707F011FFD8E7AA
:101330009039040008B50A8840F677239A4203D012
:101340000D4B1B782BB908BD8B88033B0B4A1380D0
:10135000F6E7094B00221A70094B198809480BF06F
:10136000DBFD112804D00028EDD007F0F1FEEAE7FC
:10137000014B01221A70E6E7EC48002020440020CF
:10138000224400205441002008B5084908480CF0C8
:10139000A2FD28B9F72106480CF0B4FD18B908BD24
:1013A00007F0D6FEF6E707F0D3FEF8E735130300A3
:1013B0003047002008B504480BF084FD00B908BD93
:1013C00007F0C6FEFBE700BFCD13030008B50146DA
:1013D00001480AF0F4FE08BD1C47002000B583B0A8
:1013E000064B019301A906480AF026FF10B903B085
:1013F0005DF804FB07F0ACFEF9E700BF051403003D
:101400001C47002010B50B78012B1AD00446022B84
:1014100025D003B110BD01F10E0249880AF09AFFF0
:1014200048B920460AF05CFF40B90123104A137006
:10143000104A1370EEE707F08BFEF2E707F088FE24
:10144000F3E78A890C48A0F8C82089680EF0F0FDFF
:101450000A4B1878FF28DDD001F0D4F8DAE7084B02
:101460001B78022BD6D1064B04221A70D2E700BF9C
:101470002C4700204C4700205047002024440020E7
:101480001C48002000B585B01022002168460EF0EF
:10149000F7FD01238DF804308DF80C300E4A6946B3
:1014A0000E480CF0AFFF70B90D4A00210B480CF04C
:1014B000AEFE58B90022012108480CF0C6FE40B922
:1014C00005B05DF804FB07F043FEEDE707F040FED2
:1014D000F0E707F03DFEF3E74D160300F04800206B
:1014E0009839040008B504480CF0CEFF00B908BDD7
:1014F00007F02EFEFBE700BFF048002010B582B0D9
:1015000004460388103B462B4BD8DFE803F0244009
:101510004A524A4A4A4A4A4A4A4C4A4A4A5D4A67F1
:101520004A4A4A4A4A4A4A4A4A4A4A4A4A4A4A4A1B
:101530004A4A4A4A4A4A4A4A4A75874A4A4A4A4AA3
:101540004A4A4A4A4A4A4A4A4A4A4A4A4A4A4A4AFB
:101550004A4A4A4A7E008188354B1980354B002221
:101560001A7035480BF0D8FC112809D060B9C82290
:10157000A18832480CF0D3FC98B107F0E9FD10E0E7
:101580002C4B01221A70F2E707F0E2FDEFE7002191
:101590002B4B19704FF4337227480EF071FDFFF793
:1015A000A1FF02B010BD037A012BFAD1FFF79AFF19
:1015B000F7E700231A4685218088FFF781FE00287F
:1015C000EFD007F0C5FDECE700F108018088FFF7D8
:1015D00071FE0028E5D007F0BBFDE2E700238DF89F
:1015E00004308DF8053001A98088FFF76BFE0028D4
:1015F000D7D007F0ADFDD4E713218088FFF75CFE5C
:101600000028CED007F0A4FDCBE713218088FFF798
:1016100053FE0028C5D007F09BFDC2E7094B01220D
:101620001A70094B1878FF28BBD000F0EBFFB8E721
:1016300022440020EC480020544100203047002084
:101640002C4700204C4700202444002008B5037894
:10165000042B06D0062B06D1406820B107F078FD98
:1016600001E0FFF73FFF08BD08B50CF01EFE08BD06
:1016700008B5FFF729FEFFF787FEFFF79BFEFFF790
:10168000ADFEFFF7FFFEFFF72DFF08BD08B5084BC5
:101690001B7813B9FFF7E8FF08BD1321054B188825
:1016A000FFF70AFE0028F7D007F052FDF4E700BF6D
:1016B0002C4700202244002018B310B5B4B00446D3
:1016C000104808F011FE08B134B010BDCC22002142
:1016D00001A80EF0D5FC2246C82101A80FF048FA57
:1016E000ADF8CC0001A9074808F00CFE30B9064B54
:1016F0001878FF28E8D000F085FFE5E707F028FD1F
:10170000F5E770475C460400244400200FB400B5A0
:10171000B5B01C4808F0E8FD20B135B05DF804EB29
:1017200004B07047CC22002101A80EF0A9FC37AB11
:101730000093369AC82101A80FF0BCFB80B2ADF827
:10174000CC00C31CC72B0ED8431C9BB234AA104438
:101750000D2200F8CC2C5A1CADF8CC2034AA13442E
:101760000A2203F8CC2C01A9064808F0CBFD30B9B9
:10177000054B1878FF28D0D000F044FFCDE707F0E4
:10178000E7FCF5E75C4604002444002010B500F0B7
:1017900085FF5A4B18705A4BB3F8C81059B11B78D3
:1017A000442B3FD0552B2CD03E2B18D0CC220021DF
:1017B00053480EF065FC534BB3F8C830002B53D19F
:1017C000514808F007FE00284ED100224D494E48EE
:1017D00008F008FE002847D007F0BAFC44E04B4868
:1017E00005F03AFAE2E7052005F01EFE0134444B0D
:1017F000B3F8C830A342D9DD414B1B78552BF5D146
:10180000F1E70024F3E76FF0040005F00DFE01346A
:101810003B4BB3F8C830A342C8DD394B1B78442B8F
:10182000F5D1F0E70024F3E70A4636491944384871
:101830000AF06AFD034680B9364A12786AB1314926
:10184000B1F8CA20344800880244A1F8CA2004E054
:101850002C492F480AF058FD0346002B2ED0132B9D
:101860004AD12C4B00221A702C4B1B78002B43D0F2
:10187000244BB3F8C820002A3ED0264B1B78002BFF
:101880003AD0254B19881F4BB3F8CA30C81882428A
:10189000CADC002BDCD0D21A92B21A4919441C4877
:1018A0000AF032FD03460028D7D11A4A1278002ADE
:1018B000D3D0144A0021A2F8CA10CEE7114BB3F8D6
:1018C000CA30002BD0D1164A1388013313800D4B38
:1018D0000022A3F8C820A3F8CA200B4808F07AFD1C
:1018E0000028C1D100220749074808F07BFD0028E5
:1018F000BAD007F02DFCB7E710BD00BF244400208C
:1019000050470020204800205C460400514700203A
:101910001C4700204C470020204400202C4700207A
:101920004E4700200649074A074B9B1A03DD043B3C
:10193000C858D050FBDC00F07BF8FFF781FC0000BA
:101940008C4604005041002000470020FEE7FEE7DF
:10195000FEE7FEE7FEE7FEE7FEE7FEE7FEE7FEE75F
:10196000BFF34F8F0549CA6802F4E062044B13438A
:10197000CB60BFF34F8F00BFFDE700BF00ED00E07D
:101980000400FA050120704701207047064B1B68D0
:10199000082B01D000207047044B1B680BB10020BE
:1019A00070470120704700BF300100103401001063
:1019B000064B1B68082B01D000207047044B1B68A6
:1019C0000BB1002070470120704700BF30010010AC
:1019D00034010010064B1B68082B01D00020704713
:1019E000044B1B680BB1002070470120704700BFFB
:1019F0003001001034010010064B1B68082B01D089
:101A000000207047044B1B680BB100207047012079
:101A1000704700BF300100103401001001207047F2
:101A2000014B024A1A607047284400200090D003FE
:101A300008B5FFF7A7FF40B14FF080430022C3F87D
:101A40000C21C3F81021C3F83825FFF79DFF0028AB
:101A500046D04FF08052D2F804146F4BC3F82015D3
:101A6000D2F80814C3F82415D2F80C14C3F82815BA
:101A7000D2F81014C3F82C15D2F81414C3F830158A
:101A8000D2F81814C3F83415D2F81C14C3F8401552
:101A9000D2F82014C3F84415D2F82414C3F848151A
:101AA000D2F82814C3F84C15D2F82C14C3F85015EA
:101AB000D2F83014C3F85415D2F83414C3F86015B2
:101AC000D2F83814C3F86415D2F83C14C3F868157A
:101AD000D2F84014C3F86C15D2F84424C3F870252A
:101AE000FFF754FF10B14D4B4D4A1A60FFF760FFEE
:101AF00018B14C4BFB22C3F81825FFF76BFF48B118
:101B000049490B6823F00F03484A126802F00F029C
:101B100013430B60FFF770FF18B1454B4FF4007291
:101B20001A60FFF77BFF60B14FF08043D3F80034B9
:101B300013F0010F05D04FF080436FF00102C3F89E
:101B400000243C4AD2F8883043F47003C2F888304D
:101B5000BFF34F8FBFF36F8F4FF01023D3F80C32CA
:101B600013F0010F0ED14FF01023D3F80032002BE9
:101B700029DB4FF01023D3F80432002B23DBFFF7CF
:101B80004FFF08BD2C4B0122C3F804252A4BD3F884
:101B90000034002BFAD04FF01022D2F80C3223F090
:101BA0000103C2F80C32244BD3F80034002BFAD0D6
:101BB000214B0022C3F804251F4BD3F80034002B1F
:101BC000FAD0FFF7CDFE1C4B0122C3F804251A4BB7
:101BD000D3F80034002BFAD04FF010231222C3F8B0
:101BE0000022154BD3F80034002BFAD04FF010230D
:101BF0001222C3F80422104BD3F80034002BFAD081
:101C00000D4B0022C3F804250B4BD3F80034002BF6
:101C1000FAD0FFF7A5FE00BF00C000408C56004080
:101C20004881030000F00040E40E0040580200101C
:101C30004096024000ED00E000E0014010DF7047F8
:101C400011DF7047074B9B682BB1064A136823F4DA
:101C5000800313607047044B4FF48002C3F8802068
:101C6000704700BF6C81002000E100E010B582B039
:101C700004460A49684608F005FC019B43B11A680E
:101C800059682046904730B1684608F005FCF4E7F3
:101C9000002002B010BD1120FBE700BFD0390400C6
:101CA00010B582B004460849684608F0EBFB019B7A
:101CB0003BB11A68596820469047684608F0ECFB2B
:101CC000F5E702B010BD00BFE839040008B50E4BBF
:101CD00093F816335A09EC23134113F0010F0DD07A
:101CE0000A4B9B682BB1094A136843F480031360C5
:101CF00008E0054B4FF480021A6003E042F2020054
:101D000007F026FA08BD00BF00E100E06C8100206A
:101D100010B582B01C4B1B787BBB1C4B01221A7088
:101D20000020FFF7A3FF11282BD00020FFF7B8FFFA
:101D3000174B1B68019300238DF803300DF103004E
:101D400007F062FE134A144901A8FFF777FF044623
:101D5000B0FA80F040090C4B18709DF8030007F0B2
:101D60007FFE5CB90023094A13700C4A1370FFF719
:101D7000ADFF0120FFF794FF00E00824204602B0E9
:101D800010BD0024FAE700BF355200203452002075
:101D9000CC390400A43904003D2003003652002051
:101DA00030B583B0154B1B7813B30120144B18705A
:101DB000FFF75CFF11281FD00220FFF771FF0025FD
:101DC0008DF807500DF1070007F01EFEFFF738FFF2
:101DD00004460A4B1D709DF8070007F041FE44B908
:101DE000074B1D70FFF72EFF0320FFF759FF00E0A0
:101DF0000824204603B030BD0024FAE73552002005
:101E00003452002008B5074B1B7843B1064B1B78B2
:101E100013B1FFF7C5FF08BDFFF77AFFFBE7082006
:101E2000F9E700BF3452002035520020014B1878EA
:101E3000704700BF3552002000B583B0074968469F
:101E400008F020FB019B33B11A6858689047684638
:101E500008F022FBF6E703B05DF804FBDC39040070
:101E600008B5FFF7E9FF08BD08B5054A0021084697
:101E700007F0A2F900B908BD07F06AF9FBE700BF57
:101E8000611E0300C1DF7047124B1B7803B300B51E
:101E90008FB009E01A68596802A89047684608F0B0
:101EA000FBFA019B002BF5D102AA0DF135010DA81B
:101EB000FFF7E8FF20B90849684608F0E3FAF0E7C1
:101EC000052802D10FB05DF804FB07F041F9F9E7EE
:101ED000704700BF37520020F439040000B583B0CA
:101EE00000238DF807300DF1070007F08DFDF1EEAE
:101EF000103A23F09F03E1EE103ABFF35F8F064BD9
:101F00004022C3F884219DF8070007F0A9FD08F0DE
:101F100093F903B05DF804FB00E100E069B9024603
:101F20001F2803D900F01F020B4901E04FF0A04128
:101F300001239340C1F80C35704702461F2803D98E
:101F400000F01F02044901E04FF0A041012393403B
:101F5000C1F80835704700BF0003005003461F2832
:101F600008D900F01F03054AD2F81005D84000F048
:101F7000010070474FF0A042F6E700BF0003005099
:101F8000BFF34F8F0549CA6802F4E062044B134364
:101F9000CB60BFF34F8F00BFFDE700BF00ED00E057
:101FA0000400FA05014B1870704700BF585200201A
:101FB000704708B500F00AFA00B908BD052000F026
:101FC0003FFBFAE708B5012807D902280ED107F030
:101FD000E9FC58B107F0BCF808E005F082FCFFF717
:101FE00055FB07F0DFFC18B9FFF7DAFE012008BD4A
:101FF00007F0AEF8F8E708B508F040FE38B94FF042
:10200000A0430022C3F85C27C3F8342708BD07F0BB
:102010009FF8F4E708B50449032005F0A5FF00B9CF
:1020200008BD07F095F8FBE7A51F030008B5FFF70B
:102030006FFE00B908BD07F08BF8FBE770B584B000
:102040000B4614461F4AC2F8E400C2F8E010FD2116
:1020500082F8E81044F20102904219D007D8012812
:1020600003D041F20102904226D104B070BD44F287
:102070000202904220D122886368134C0092134AD6
:10208000D22120460EF074FD2046FFF73FFBECE71F
:10209000A668304608F0ACFB0B4D238802936368BA
:1020A0000193009033460A4AD22128460EF060FD83
:1020B0002846FFF72BFBD8E7064AD22102480EF04C
:1020C00057FDD2E7004000200C400020003A0400F9
:1020D0001C3A0400383A040008B5044681690748F0
:1020E000FFF714FB0648FD2380F80C31202221461F
:1020F000EC300DF09DFFFFF743FF00BF503A0400A6
:102100000040002008B5064B1B780E2B00D008BD00
:10211000022008F0B9F8024B00221A70F7E700BF5E
:102120005852002008B5024B18780AF003F808BD91
:10213000AC53002010B58CB0494A05AB07CA83E800
:1021400007004849184609F091FF00284BD146483E
:1021500009F0C6FF002849D109F0B4FFFFF74BFF93
:1021600000F000FB414A0121414807F0D1FB002863
:102170003FD1002205213F4807F0E0FB00283BD17A
:102180003D4B93F80C31FD2B39D008F03FF8002877
:102190005FD13A4A1421082006F0E8FF00285BD1FD
:1021A000FFF738FF4FF0A0434022C3F8082500F0A6
:1021B0007BF8FFF73BFFFFF75BFA0022304931481D
:1021C00000F046F900223049304800F041F9002281
:1021D0002F49304800F03CF900212F4800F0FCF86E
:1021E00000200CB010BD06F0B3FFB0E706F0B0FF62
:1021F000B2E706F0ADFFBCE706F0AAFFC0E727484C
:10220000FFF784FA264901A804F08FFC1A4C0A2231
:10221000D4F8041108A804F0ACFC08A901A804F043
:10222000F4FC08A804F03AFC1E4901A804F0F3FCF1
:10223000616801A804F0FDFC0198FFF767FA242209
:10224000002104F1EC000DF01BFF01A804F026FCB6
:102250009BE706F07DFF9CE706F07AFFA0E700BF52
:10226000D43A0400B11F0300AC530020B31F030095
:10227000E03A040038520020004000205C52002068
:10228000A03A0400216D0300B43A0400E56C030099
:10229000C43A0400F96C0300376D0300643A04008B
:1022A000783A0400943A040010B584B0074B6C46A9
:1022B0000FCB84E80F002146054808F015FA08B94D
:1022C00004B010BD06F044FFFAE700BFE43A040092
:1022D000F43A040008B5024808F026FA08BD00BF29
:1022E000F43A040010B582B0009313460A46014642
:1022F000054808F035FA044610B9204602B010BD72
:1023000006F026FFF9E700BFF43A04001F2808D9B9
:1023100000F01F00044A012303FA00F0C2F8080588
:1023200070474FF0A042F6E7000300501F2808D97D
:1023300000F01F00044A012303FA00F0C2F80C0564
:1023400070474FF0A042F6E70003005008B5024B7B
:102350009B6AFFF7C1FE08BD00ED00E0D0ED067AF4
:1023600090ED077A37EE877AD0ED086A37EE267A55
:1023700080ED007AF1EE677A36EEA67A77EEC77ACC
:10238000C0ED017AC0ED026A01B9704708B50C22B0
:10239000002110440DF074FE08BD000008B500EBEC
:1023A0008000074B4FF48072064901EB002106487C
:1023B00007F072FE00B908BD06F0CAFEFBE700BFD9
:1023C000000029170055002088540020014B186890
:1023D000704700BF7C540020F8B5174B174A5A6469
:1023E000174E184B00AF0122044604200D463070F2
:1023F0001A60FFF7D3FF72B632784FF4A06302FB86
:102400000333114A134483F30988104B83F308887C
:10241000EFF3148303F0040343F0020383F31488FF
:1024200062B608F047F82846A0470020BD46BDE840
:10243000F84006F08DBE00BF006E00200C3B04008B
:10244000805400207C54002000550020000004200F
:102450002DE9F04182B0002844D00E4615460746CB
:1024600000248DF807400DF1070007F0CDFA032C8A
:1024700013D8224623011D48C35813B10134E4B2D6
:10248000F5E70146200101EB0418013202EB82025C
:10249000174B03EB02220A5001E04FF000089DF8B1
:1024A000070007F0DDFAB8F1000F1DD0D8F80020C2
:1024B000A2F13003C8F80030C8F804600021C8F861
:1024C0000810022142F8041C42F8087C42F8305CF3
:1024D0004FF00041E140074807F000FB204602B002
:1024E000BDE8F081FF24F9E7FF24F7E7006E002044
:1024F000005500208C54002010B50446214B18785C
:1025000007F020FED0B9204B1978204B03EB0113C4
:102510009B68002B15DB09011C4B5C501C4B1B6896
:102520001BB3194A11784A1C13FA02F218D0B2FAF6
:1025300082F20A440132144B1A7019E006F008FEC8
:10254000E1E74FF0004323FA01F1C943104807F0D7
:10255000D3FA0D4B1B781B010C4A0021D150DDE74B
:10256000B3FA83F3084A137002E0074B04221A708F
:10257000054C2078FFF712FF23781B01034AD0583F
:1025800010BD00BF8854002080540020006E002041
:102590008C54002008B5034B1B6803B908BD07F035
:1025A00089FFFBE77C54002010B501281FD0114B98
:1025B0001A78114B03EB0213D8600E4B19780E4BAF
:1025C00003EB0113D868012813D94FF0004424FA13
:1025D00001F1C943094807F08FFA064B197824FA2C
:1025E00001F1074807F07AFAFFF7D4FFE5E7022088
:1025F000DDE710BD80540020006E00208C540020C8
:102600008454002038B50546000100F1080309484C
:1026100018440021043007F046FA4FF00044EC4023
:10262000E143054807F068FA2146044807F056FAE6
:1026300038BD00BF006E0020845400208C54002060
:10264000F8B50646134B1F68002409E0250108353C
:1026500011482844891B043007F025FA0134E4B2FC
:10266000032C16D80C4B03EB0413D9684FF000432E
:10267000E3403B42F2D0B142E8D82046FFF7C2FF28
:1026800025010835044828440121043007F00BFADD
:10269000E4E7F8BD84540020006E0020014B187858
:1026A000704700BF80540020F0EE407AB0EE600A20
:1026B000F4EEE07AF1EE10FA01D8B0EE670A704756
:1026C000B4EEE00AF1EE10FA01D8B0EE600A7047FD
:1026D00008B52DED048BB0EE618AB4EE601AF1EE10
:1026E00010FA2AD0F0EE428A30EE600A31EE601A1B
:1026F000C0EE017A32EE619A29EE279A39EE219ADC
:10270000F0EE420AB0EE610AFFF7CEFFF0EE409A1B
:10271000B4EEC90AF1EE10FA01DCF0EE499AF0EEDF
:10272000680AB0EE480AFFF7CBFFB4EEE90AF1EE13
:1027300010FA04D4B0EE690A01E0B0EE610ABDEC13
:10274000048B08BD01230022994209DD10B4C45C4A
:10275000624001339942FADCD0B25DF8044B704715
:10276000D0B2704708B507F0A3F800B908BD06F06D
:10277000EFFCFBE738B507F023F904460A4D29685A
:1027800007F024F92C604FF4FA4303FB00F010F536
:1027900080402CBF01230023C00B40EA4340034B81
:1027A0001A681044186038BD546E0020506E002026
:1027B00010B5044638B14FF47A40034B43F001039F
:1027C0009847013CF7D110BD203B040010B9024BE3
:1027D00001221A70704700BF6C6E0020642800D977
:1027E000642011B1094B01221A8038B1084B1B88B3
:1027F000834203D0054B01221A8003E010B9034B3A
:1028000001221A80024B1880704700BF6A6E0020B8
:10281000586E0020037803B1704710B504460121BB
:10282000406808F0A3FE28B90023084A1380002B53
:1028300003DD10BD06F08CFCF6E7626832F8132069
:102840000249088802440A800133F0E7606E0020E4
:1028500010B584B01E4B53F8042B03926C4693E8DA
:10286000070003C400238DF803308DF802300522E1
:102870008DF804208DF8053006228DF807208DF89C
:1028800008308DF800308DF80130124903A808F0A7
:10289000C3FD80B96946002008F016FE70B9012119
:1028A0000D4808F063FE60B901210C4808F05EFE97
:1028B00050B904B010BD06F04BFCEBE706F048FC45
:1028C000EDE706F045FCEFE706F042FCF1E700BF5C
:1028D000283B040015280300646E0020666E00206B
:1028E00000B585B00A4B4FF48062C3F80C2501ABEC
:1028F000084A07CA83E80700074A1946074809F04B
:102900009BFA10B905B05DF804FB06F021FCF9E76D
:1029100000030050383B0400CD2703002C44002066
:1029200008B5124B0322C3F834274FF40051C3F803
:102930000C15C3F83C274FF40041C3F80C154FF0B9
:10294000A0410C20C1F87C07C3F828274FF480620F
:10295000C3F80C2508F030F820B9FFF779FFFFF72E
:10296000BFFF08BD06F0F4FBF7E700BF000300500F
:10297000014BB3F900007047686E00200B4BB3F9B0
:10298000003041F2707000FB03F000280BDB801276
:102990004FF47A7303FB00F0054B83FB0023C01751
:1029A000C0EB6310704700F2FF30F0E7606E00206C
:1029B000398EE33808B51F20FFF7D0FAB0FA80F05F
:1029C000400908BD10B584B0214BB3F9003013B1F4
:1029D000204B1B7853B11F4B1B781BB11C4BB3F919
:1029E00000307BB908F02AFE04B010BDFFF7C2FE2C
:1029F000194B1B68C01AB0F52F7FECD9154B01227B
:102A00001A70E8E7134B00221A706C46134B0FCB79
:102A100084E80F00124B1B886FEA43436FEA53436D
:102A2000104A13800223012221460F4809F082FA3E
:102A3000044648B9002CD7D1054B00221A80FFF775
:102A400099FE054B1860CFE706F082FBF2E700BF66
:102A50006A6E00206C6E00205C6E0020443B040017
:102A6000686E0020706E00202C44002038B50028CD
:102A70002ADB002564282BDC80B2254B1B78AB4277
:102A800000D00121FFF7AAFE04460820FFF73EFC14
:102A90002920FFF73BFC0C20FFF738FC1C4B1D7076
:102AA000C4B135B300212D20FFF738FA01212F20C2
:102AB000FFF734FA6342174A13802920FFF736FCE8
:102AC000FFF780FF204638BD404200B20125D1E724
:102AD0006420D2E700212D20FFF720FA00212F20CB
:102AE000FFF71CFA0B4B00221A800820FFF71EFC90
:102AF000E6E701212D20FFF711FA00212F20FFF733
:102B00000DFA044B1C800C20FFF710FCD8E700BF27
:102B10006D6E0020686E00200A2927D938B5054659
:102B20001446037803F07F031370437803F00F0318
:102B30005370837803F07F039370C37803F003032B
:102B4000D370037903F07F03137105320221C0882B
:102B500001F064F82B7AE3716B7A2372AB7A03F09D
:102B60003F036372EB7AA372002038BD6FF0090057
:102B700070470A2827D938B50D4614460B7803F05C
:102B80007F0313704B7803F00F0353708B7803F0BF
:102B90007F039370CB7803F00303D3700B7903F0BA
:102BA0007F0313710531022001F048F8E080EB79D2
:102BB00023722B7A63726B7A03F03F03A372AB7AB2
:102BC000E372002038BD6FF00900704710B584B083
:102BD0000C460B2301AA012102F0B8FD08B104B094
:102BE00010BD224601A90B20FFF7C3FFF7E7162906
:102BF0004CD938B5044615460378137043785370A2
:102C000083789370C378D37003791371437903F099
:102C10000F03537183799371C37903F03F03D37129
:102C2000037A03F00303137209320221408900F092
:102C3000F5FF05F10B020221B4F90C0001F00BF8CD
:102C400005F10D020221B4F90E0001F004F805F1BE
:102C50000F020221208A00F0E1FFB4F9120005F111
:102C600011020221C0F30C0000F0F5FF05F1130280
:102C70000221B4F9140000F0EEFF05F11502022163
:102C8000B4F9160000F0E7FF002038BD6FF009002E
:102C90007047162847D938B50D4614460B7813707F
:102CA0004B7853708B789370CB78D3700B7913710A
:102CB0004B7903F00F0353718B799371CB7903F048
:102CC0003F03D3710B7A03F003031372093102201F
:102CD00000F0B4FF608105F10B01022000F0CBFF92
:102CE000A08105F10D01022000F0C5FFE08105F192
:102CF0000F01022000F0A2FF208205F11101022045
:102D000000F0B9FFC0F30C00608205F1130102204E
:102D100000F0B1FFA08205F11501022000F0ABFF29
:102D2000E082002038BD6FF00900704710B586B012
:102D30000C4617236A460D2102F008FD08B106B0C3
:102D400010BD224669461720FFF7A3FFF7E71F29AA
:102D500068D938B5054614460221008800F05EFFA8
:102D6000AB7803F00103A370EB7803F00F03E3707B
:102D70002B7903F00F0323716B7903F01F03637149
:102D8000AB7903F07F03A371EB7903F07F03E37169
:102D90002B7A03F0010323726B7A6372AB7A03F030
:102DA0000103A372EB7A03F00303E3722B7B03F0BE
:102DB0001F0323736B7B03F003036373AB7B03F08D
:102DC0000303A373EB7B03F00703E3732B7C03F094
:102DD0001F0323746B7C03F001036374AB7CA37447
:102DE000EB7CE3742B7D23756B7D6375AB7DA375E5
:102DF000EB7DE37504F118020221288B00F00EFF31
:102E0000AB7EA376EB7EE3762B7F03F00F03237775
:102E10006B7F6377AB7F03F00F03A377EB7FE377E1
:102E2000002038BD6FF00900704715293FD938B52B
:102E30000546144603781370437853708378937073
:102E4000C37803F07F03D370808804320221C0F37B
:102E50000B0000F0E3FEAB7903F07F03A371EB7985
:102E6000E3712B7A23726B7A03F001036372AB7AFE
:102E700003F00703E37204F10C020221A88900F0B9
:102E8000CDFE04F10E020221E88900F0C7FE04F134
:102E900010020221288A00F0C1FEAB7CA374EB7CF7
:102EA000E3742B7D23756B7D6375002038BD6FF057
:102EB0000900704716293DD938B5054614460378F0
:102EC00003F00F03137043785370837803F00F03FC
:102ED0009370C378D370037903F00F0313714379B0
:102EE0005371837903F03F039371C37903F00F03A8
:102EF000D371037A1372437A03F03F0353720A3299
:102F00000221408900F08AFE04F10C020221A88906
:102F100000F084FEAB7BA373EB7BE37304F112023E
:102F20000421286900F0BBFE2B7D03F00103A3758B
:102F3000002038BD6FF00900704711293CD938B521
:102F400004461546037803F0030302F8013B02210F
:102F5000408800F063FEEA1C0221A08800F05EFEBB
:102F6000A37903F001036B71E37903F00703AB71FD
:102F7000237AEB71637A2B72A37A03F07F036B726F
:102F8000E37A03F07F03AB72237B03F00303EB725E
:102F9000637B03F003032B73A37B03F00F036B73BB
:102FA000E37BAB73237CEB73637C2B74A37C03F018
:102FB00003036B74002038BD6FF0090070470429CB
:102FC00013D9037803F001031370437803F001036E
:102FD0005370837803F001039370C37803F0030305
:102FE000D37003791371002070476FF009007047A8
:102FF00010B582B0044608466A460521FFF7DFFF98
:1030000008B102B010BD05236A468321204602F0B4
:1030100096FBF6E72B2840F2898038B50D4614461A
:103020000B7803F03F0313704B7853708B7803F0E9
:103030000F039370CB78D3700431022000F0FEFDB3
:10304000A080A91D022000F0F9FDE08005F1080133
:10305000022000F0F3FD208105F10A01022000F0BA
:10306000EDFD608105F10C01022000F0E7FDA0817B
:1030700005F10E01022000F0E1FDE08105F11001F3
:10308000022000F0DBFD208205F11201022000F099
:10309000D5FD608205F11401022000F0CFFDA08271
:1030A00005F11601022000F0C9FDE08205F11801CA
:1030B000022000F0C3FD208305F11A01022000F078
:1030C000BDFD608305F11C01022000F0B7FDA08367
:1030D00005F11E01022000F0B1FDE08305F12001A1
:1030E000022000F0ABFD208405F12201022000F057
:1030F000A5FD608405F12401022000F09FFDA0845D
:1031000005F12601022000F099FDE08405F1280177
:10311000022000F093FD208595F82A3084F82A30AB
:1031200095F82B3084F82B30002038BD6FF0090063
:103130007047202835D938B50D461446042000F0D4
:10314000BEFD2060291D042000F0B9FD606005F17E
:103150000801042000F0BFFDA06005F10C0104206F
:1031600000F0ADFDE06005F11001042000F0A7FDC6
:10317000206105F11401042000F0A1FD606105F15A
:103180001801042000F0A7FDA06105F11C01042036
:1031900000F095FDE06195F8203084F820300020A3
:1031A00038BD6FF009007047372840F2D38038B53A
:1031B0000D461446022000F041FD2080AB7803F05C
:1031C0007F03A370EB7803F03F03E3702B7903F0E8
:1031D000030323716B7903F001036371AB7903F08F
:1031E0003F03A371EB7903F03F03E37105F108019D
:1031F000022000F023FDC0F309002081AB7A03F028
:103200000303A372EB7A03F00303E3722B7B03F057
:103210000F0323736B7B03F007036373AB7B03F034
:103220000103A373EB7B03F00303E3732B7C237491
:103230006B7C637405F11201022000F0FFFCC0F307
:103240000B00608205F11601022000F0F7FCA0825D
:1032500005F11801022000F0F1FCE082AB7E03F0E2
:1032600001032376EB7E03F0070363762B7FA376BF
:103270006B7FE376AB7F03F07F032377EB7F03F075
:103280007F03637795F8203003F00303A37795F865
:10329000213003F00F03E37795F8223084F82030D3
:1032A00095F8233084F8213095F8243084F82230C2
:1032B00095F8253003F0010384F8233095F8263083
:1032C00003F0030384F8243095F8273003F01F033C
:1032D00084F8253095F8283003F01F0384F8263051
:1032E00095F8293003F01F0384F8273095F82A3029
:1032F00003F0010384F8283095F82B3003F0010324
:1033000084F8293095F82C3003F0030384F82A3030
:1033100095F82D3003F03F0384F82B3005F12E0192
:10332000042000F0CCFCC0F31100E06205F1320192
:10333000042000F0C4FC206395F8363003F001034C
:1033400084F8343095F8373003F0010384F83530D1
:10335000002038BD6FF009007047302840F29F8090
:1033600038B50D4614460B7813704B7853708B7834
:1033700093700331022000F061FCA0806B7903F0B0
:103380007F03A371AB7903F00703E371EB7903F0DB
:10339000070323722B7A03F03F0363726B7A03F007
:1033A0003F03A372AB7A03F00103E372EB7A03F0FD
:1033B0007F0323732B7B03F0010363736B7B03F0A9
:1033C0003F03A373AB7B03F03F03E373EB7B2374F7
:1033D0002B7C63746B7CA374AB7CE374EB7C2375F4
:1033E0002B7D63756B7DA375AB7DE375EB7D2376DC
:1033F0002B7E63766B7EA376AB7EE376EB7E2377C4
:103400002B7F63776B7FA377AB7FE377EB7F84F8CA
:10341000203095F8203084F8213095F8213084F858
:10342000223095F8223084F8233095F8233084F840
:10343000243095F8243084F8253095F8253084F828
:10344000263095F8263084F8273095F8273084F810
:10345000283095F8283084F8293095F8293084F8F8
:103460002A3095F82A3084F82B3095F82B3084F8E0
:103470002C3095F82C3084F82D3095F82D3084F8C8
:103480002E3095F82E3084F82F3095F82F3084F8B0
:10349000303095F8303084F83130002038BD6FF08E
:1034A0000900704710B58EB00C46312301AA40F2D6
:1034B0000F1102F04BF908B10EB010BD224601A960
:1034C0003120FFF74AFFF7E7082303700B2343700F
:1034D0004FF47A7343604FF4206303814FF4A06389
:1034E00043814FF4A053838100207047034600209E
:1034F000187012225A700F229A700222DA7048F65F
:10350000A0425A600C221A81704738B50C46458992
:103510000D60B0F90C10A180B0F90E20E280438953
:10352000A360B0F90C30A381B0F90E30E381002321
:103530006382402323751DB963680BB9237401E0CE
:1035400001232374237C012B03D00023E38200207A
:1035500038BD4023284600F0E1FBE082F7E74FF456
:10356000206303804FF47A73436043F2C82383607F
:10357000C360082303742823437409238374002041
:103580007047034648F20302028048F2010242807B
:1035900048F2410282800E2098710A21D9710622D8
:1035A0001A7258729972DA720221197321225A73AF
:1035B0000020D88118744FF4B4725A829A82DA8249
:1035C000C0221A835A839A8308229A771022DA77C4
:1035D000012283F8202083F8211083F8222083F829
:1035E000231083F824004FF42061D984198548F210
:1035F0003001D9624FF47A7119634FF4FA6159635B
:1036000099634FF21861196443F2C8215964DA636F
:103610004FF4FA529A6470472DE9F0470446089F28
:10362000099D4FF4206020800020A070E070207180
:103630006071A071E07120726072A072E072112658
:1036400026734FF0020C84F80DC0A07384F80FC0ED
:103650004FF0080884F810806074AE7FA674EE7F87
:10366000E67495F82060267501266675A075E075EC
:1036700020834FF0FF0E84F81AE095F8109084F83C
:103680001B9095F80C9084F81C906077A077E077F9
:10369000087048704FF0200981F802900B24CC701C
:1036A000B5F80EA0A1F804A081F806C04FF00D0AED
:1036B00081F807A095F80DA081F808A048728E72D5
:1036C0008881C8814FF40C4AA1F810A088744FF08B
:1036D000380A81F813A081F814E04E7510701A2191
:1036E0005170907082F803901671CC2151719471D1
:1036F000D671F521117209215172B5F81490A2F812
:103700000A90B5F81A90A2F80C9082F80E804FF04B
:10371000780882F80F80106110751E7058809880AC
:10372000987195F82120DA711C725972EA799A72AF
:10373000AA7ADA721E7395F824205A7395F823201A
:103740009A73C722DA7383F810E0DB225A7483F885
:1037500012C07870BE70FE7021233B71BDE8F08707
:10376000F0B583B014461D46099E0196089F009748
:10377000FFF752FF88B90722A27105236372F18A0D
:103780006181B18BA1810821A1733821E1732A7273
:103790006B72337AAB72F37AEB7203B0F0BDF0B5B3
:1037A00083B014461D46099E0196089F0097FFF7B7
:1037B00033FF88B90F22A2710D236372718A618170
:1037C000318BA1810821A173B821E1732A726B7238
:1037D000B379AB72737AEB7203B0F0BD70B582B09F
:1037E0000D461C46079E0196069E0096FFF714FFA5
:1037F00018B90223AB723B23637402B070BD70B57D
:1038000082B00D461C46079E0196069E0096FFF765
:1038100003FF18B90223AB725B23637402B070BD5F
:10382000F0B583B014461D46089F099E0196009787
:10383000FFF7F2FE70B9A8742071B1226271E071D5
:10384000D42323724FF4C063236196F82230EB71C6
:1038500040233B7103B0F0BDF0B583B014461D4664
:10386000089F099E01960097FFF77AFF78B9A87420
:103870000123237184226271E371B12323724FF417
:10388000C063236196F82230EB7140233B7103B093
:10389000F0BDF0B583B014461D46089F099E019601
:1038A0000097FFF77CFF70B9A874207197226271AE
:1038B000E071B12323724FF4C063236196F8223084
:1038C000EB7140233B7103B0F0BD70B582B00C4684
:1038D0001D46079E0196069E0096FFF7A1FF08B1C0
:1038E00002B070BD089A2946204600F00CFBF7E7AD
:1038F00070B582B00C461D46079E0196069E009646
:10390000FFF7AAFF08B102B070BD089A2946204609
:1039100000F0F9FAF7E770B582B00C461D46079E35
:103920000196069E0096FFF7B4FF08B102B070BD85
:10393000089A2946204600F0E6FAF7E7F0B583B08A
:1039400014461D46089F099E01960097FFF764FEE6
:1039500058B9A8742071B1226271E071D423237226
:1039600096F82230EB7110233B7103B0F0BD30B5F7
:1039700083B0069C079D01950094FFF74DFE08B9A2
:103980000123637003B030BD012380F82830022387
:1039900080F829300A2380F82A304FF4E663436226
:1039A000704780F82C10002380F82D30022280F818
:1039B0002E2080F82F3080F8301080F8313080F8D9
:1039C000322080F83330704790F8CC3113F0F00F8C
:1039D0000CD1032380F83030002380F831300222EC
:1039E00080F8322080F833300020704790F8313072
:1039F000FF2B12D0013380F8313090F8323083F051
:103A0000020380F8323090F83030033B052B2FD87A
:103A1000DFE803F0072E2E192024802380F83130B0
:103A2000EBE790F8C63113F0020F08D0062380F8B8
:103A30003030002380F8313080F83330D4E7082369
:103A400080F83030F5E7002380F83130082380F823
:103A50003030C9E7082380F83030C5E790F83330BC
:103A600083F0010380F83330082380F83030BBE75F
:103A7000032380F83030002380F83130022280F8B0
:103A8000322080F83330AFE710B4034690F8CF21EE
:103A900002F01F0190F8D14190F8CE2190F8CC01AE
:103AA00010F0200F19D0120902F0020293F8300032
:103AB00006280CD093F83110A1420CD06FF0110001
:103AC00093F83230934209D06FF0120006E01229C9
:103AD00007D1002002E00020F2E700205DF8044B4F
:103AE00070476FF01000F9E790F8CC3113F0F00F49
:103AF0000CD1032380F82C30002380F82D300222D3
:103B000080F82E2080F82F300020704790F82D305C
:103B1000FF2B1AD0013380F82D3090F82E3083F02F
:103B2000020380F82E3090F82C30032B11D0042B98
:103B30001CD0032380F82C30002380F82D30022283
:103B400080F82E2080F82F30DEE7802380F82D309B
:103B5000E3E790F82F3083F0010380F82F30012342
:103B600080F82D30042380F82C30CDE790F82F30EA
:103B700083F0010380F82F30C6E7037C0B70437C91
:103B80004B70837C8B70C37CCB70037D0B71437D4A
:103B90004B71837D8B71C37DCB71037E0B72437E32
:103BA0004B72837E8B72C37ECB72037F0B73437F1A
:103BB0004B73837F8B73C37FCB7390F820300B7470
:103BC00090F821304B7490F822308B7490F82330A9
:103BD000CB7490F824300B7590F825304B7590F825
:103BE00026308B7590F82730CB7590F828300B76FF
:103BF00090F829304B7690F82A308B7690F82B305D
:103C0000CB7690F82C300B7790F82D304B7790F8DE
:103C10002E308B7790F82F30CB77704700238B4274
:103C20000BD210B4CC1A013C1055000A01339BB2E0
:103C30008B42F7D35DF8044B704770470246002073
:103C4000531E9BB232B111F8012B42EA002080B220
:103C50001A46F5E7704700238B420BD210B4CC1AFA
:103C6000013C1055001201339BB28B42F7D35DF833
:103C7000044B70477047024691F90030002B0ADB75
:103C80000020531E9BB24AB1000200B211F8012B72
:103C900010431A46F5E74FF0FF30F2E77047002374
:103CA0008B420BD210B4CC1A013C1055000A0133E0
:103CB0009BB28B42F7D35DF8044B704770470246C6
:103CC0000020531E9BB22AB111F8012B42EA0020BA
:103CD0001A46F6E77047024691F90030002B09DBDF
:103CE0000020531E9BB242B111F8012B42EA002082
:103CF0001A46F6E74FF0FF30F3E7704738B50D4648
:103D000000F0C2F90446284600F0C3F904EBC404ED
:103D10002402A40904FB00F0800938BD10B400019E
:103D2000164C84FB00C4C017C0EBA414002919DB97
:103D30000021002A19DB00200A1852010F4981FBDB
:103D40000201D217C2EBA112224402FB03F313F1CA
:103D500010000DD440110A4A93420BDC80B25DF88A
:103D6000044B7047494209B2E3E7504200B2E3E72F
:103D70001F30EFE74FF6FF70F1E700BFD34D621041
:103D8000EFFF1F004B0803EB0030B0FBF1F0704772
:103D9000A0FB010110F5006341F100001B0B43EA99
:103DA0000050704770B10138002330F0FF0203D09B
:103DB000400801339BB2F8E71B029BB253FA80F034
:103DC00080B270470020704708B5FFF7DBFFFFF7B0
:103DD000E9FF08BDC3B2000A03FA00F001307047E2
:103DE00010B50C46FFF7F6FF2146FFF7D1FF10BDD7
:103DF0002DE9F843099CCBB381460F4616469846F9
:103E0000A1791846FFF77AFF054601464846FFF7B5
:103E1000B9FFFF2800D9FF20089BD87129463846F2
:103E2000FFF7D2FFC0F307232370607029463046A6
:103E3000FFF7CAFFC0F3072323716071617A404620
:103E4000FFF75CFF054601463846FFF7BDFFC0F3AC
:103E50000723A370E07029463046FFF7B5FFC0F393
:103E60000723E37120720020BDE8F8836FF00E0095
:103E7000FAE7072805D9C900C9B2081A71381070C5
:103E80007047C1F10F01C9B2C900C9B2084410702E
:103E900070470309137000F00F00087070470901A4
:103EA000C9B20144117070470346032280F8E4222E
:103EB000002083F8E50283F8E60283F8E70283F83E
:103EC000E80283F8E90283F8EA02C3F8EC02A3F8F7
:103ED000F00270470346FF2280F8E622002280F8B5
:103EE000EA22C0F8EC22A0F8F02290F8E8220AB109
:103EF00080F8632193F8E9220AB183F86021002059
:103F000083F88D01704703460120507000209070A7
:103F10008B224A744FF448421A8202229A727047E6
:103F200090F8632180F8E82290F8603180F8E93257
:103F300002F07F0280F8632103F0030390F8E4228B
:103F40009200D2B2134480F86031012380F88D31A1
:103F500090F8AE3280F8EA3280F88731002070475E
:103F6000B0F8DE31B0F8D6211344B3F5803F01D369
:103F70004FF6FF731B04B0F8D221BAB1B3FBF2F3D2
:103F8000C0F8EC32B0F8642112047BB1B2FBF3F359
:103F9000B3F5803F01D34FF6FF739BB2A0F8F03228
:103FA000A0F89431022380F88E3108E04FF40043EA
:103FB000A0F8F032A0F89431022380F88E3100206E
:103FC000704770B582B005460E4600238DF8073065
:103FD0000DF10702E52101F0CFFB04469DF8073003
:103FE00013F0010F08D00123337003212846FFF797
:103FF000D8FC204602B070BD002333700221284651
:10400000FFF7CFFCF5E770B582B005460E464FF4DA
:10401000966101F0E1FB044618B16CB1204602B094
:1040200070BD0523019301230093E5223146284604
:1040300001F0D8FB0446F0E703212846FFF7B1FC66
:10404000ECE710B582B0044600238DF80730037802
:1040500093B100239DF807209AB993B90DF1070198
:104060002046FFF7AEFF03460028F3D10521204686
:1040700001F0ACFB0346EDE74FF4FA71FFF7C3FF25
:104080000346184602B010BD4FF0804393FBF0F09A
:1040900070470130C0B2400000F0FE00704710F0E1
:1040A000800F07D100F007030B70C0F17F00C01034
:1040B00010707047C34303F0070308330B70803858
:1040C000C0101070704710B504460022114601F070
:1040D00044FB10B130B158B110BD6421204601F04D
:1040E0007BFBF7E701220021204601F036FBF2E7D7
:1040F0002046FFF7A6FFEFE7B0F8B43233B14161D5
:1041000001FB03F1C0F8AC11002070476FF00E0006
:104110007047B0F8B42232B1D0F8AC31B3FBF2F34F
:104120000B60002070476FF00E00704730B583B011
:104130000446084611461A46B4F85E3163B1A060E1
:10414000E160226104F5CE75019504F5C274009416
:10415000FFF74EFE03B030BD6FF00E00FAE72DE919
:10416000F0410446B0F85E0170B3884617461E461B
:1041700094F8A211FFF7C2FD0546014694F88B01A1
:10418000FFF706FEC8F8000094F89C3194F89D01F2
:1041900000EB0320294680B2FFF722FE386094F836
:1041A000A03194F8A10100EB0320294680B2FFF76B
:1041B00017FE3060D8F80030A3603B68E3603368D6
:1041C00023610020BDE8F0816FF00E00FAE70729B7
:1041D00012D810B471B101238B40DCB290F8C53114
:1041E0002340137059B143FA01F1117000205DF8BA
:1041F000044B70470124F1E76FF003007047002083
:10420000F5E790F9703123F0100301F01001194324
:1042100080F870110020704738B505460C4600F252
:10422000C31209786078FFF724FE05F5E272E178A1
:10423000A078FFF734FE002038BD38B505460C469F
:104240000A46013190F8C301FFF729FFE21CA11CC7
:1042500095F8C401FFF71DFE002038BD70B582B08F
:1042600005460C4600268DF807608DF806600DF1B6
:1042700007020DF1060190F82A02FFF710FF9DF8E2
:10428000073023709DF80630637095F82B321A09B9
:10429000E27003F00F03A370304602B070BD70B53A
:1042A000044600F5AC71FEF791FC0546D0B105B3AC
:1042B00075B3B4F85E31B3F5805F03D24BF6CC43EF
:1042C000A4F85E3165B3B4F8A2304BB994F89E30CF
:1042D0001B0184F8A23094F89F301B0184F8A330AE
:1042E000284670BD04F142012046FEF71FFD054639
:1042F000DDE704F5FD7631462046FFF7D3F80546A5
:104300000028D5D104F1F0013046FFF736FCCFE7A5
:1043100004F52D72DE21204601F039FA0546C8E782
:1043200004F19E012046FFF799FF0546CBE70139CE
:10433000252944D8DFE801F0131313131323232393
:10434000434343434343434313234343434343438D
:104350004343434343434343434343333333B0F83B
:10436000CA101180D0F8D0201A60D0F8D830009A46
:104370001360D0F8E430019A136000207047B0F861
:10438000CC101180D0F8D4201A60D0F8DC30009A1C
:104390001360D0F8E830019A136000207047B0F83D
:1043A000CC101180D0F8D4201A60D0F8E030009AF8
:1043B0001360D0F8EC30019A1360002070476FF062
:1043C000030070472DE9F04F89B004460D46059271
:1043D000069300F5B27600F5C27700F5CE7800F5C9
:1043E000DA7900F5E47A00F1A40B00F5397307934C
:1043F0004170129BC360139B0361149B43610321B3
:10440000FFF7CFFA013D252D00F2B180DFE805F07E
:104410001325303B46515C67AFAFAFAFAFAFAFAF27
:10442000727DAFAFAFAFAFAFAFAFAFAFAFAFAFAF0B
:10443000AFAFAF8895A2CDF804B0CDF800A04B4641
:10444000424639463046FFF7E7F8002840F09180B1
:10445000059BA4F8643123838BE0CDF804B0CDF83C
:1044600000A04B46424639463046FFF779F9ECE763
:10447000CDF804B0CDF800A04B4642463946304650
:10448000FFF78DF9E1E7CDF804B0CDF800A04B4679
:10449000424639463046FFF7A1F9D6E7CDF804B0D9
:1044A000CDF800A04B46424639463046FFF7A7F903
:1044B000CBE7CDF804B0CDF800A04B4642463946D4
:1044C0003046FFF7ADF9C0E7CDF804B0CDF800A055
:1044D0004B46424639463046FFF7BEF9B5E7CDF8C0
:1044E00004B0CDF800A04B46424639463046FFF7AF
:1044F000D0F9AAE7CDF804B0CDF800A04B4642466B
:1045000039463046FFF733FA9FE7CDF804B0CDF8CF
:1045100000A04B46424639463046FFF70FFA94E773
:10452000079B0293CDF804B0CDF800A04B4642465D
:1045300039463046FFF7DCF987E7079B0293CDF851
:1045400004B0CDF800A04B46424639463046FFF74E
:10455000BCF97AE7079B0293CDF804B0CDF800A030
:104560004B46424639463046FFF7D5F96DE76FF0C6
:10457000030018B148B109B0BDE8F08F139B129A3F
:1045800006992046FFF7D2FDF4E714992046FFF77D
:10459000B3FDF0E7B0F8A6310B8000207047A0F81B
:1045A000A61100207047B0F8A8310B80002070479A
:1045B000A0F8A8110020704790F8603103F00303C1
:1045C00003EB810380F860310020704730B585B07F
:1045D00004460D466221FFF7E4F90023237001220F
:1045E0006270A370E27022714FF47A72A2604FF48D
:1045F000FA62E26043F2C8222261642262614FF4EF
:104600002062228384F8213040F2DB73A4F89C30CE
:104610002046FFF7B9F90DBB04F58870FEF754FF8B
:1046200004F59070FEF762FF04F5967104F1420004
:10463000FEF76BFF04F5A270FEF791FF04F1A400F2
:10464000FEF79FFF20212046FFF7B6FF054648B141
:104650002046FFF729FC284605B030BD2046FFF76D
:104660001EFED9E76369029323690193E36800930F
:10467000A368228B61782046FFF7A4FE0546E7E792
:104680002DE9F04FC3B00446164600F5AC7004F1B6
:10469000420B04F5B273009304F5C273019304F561
:1046A000CE7A04F5DA7904F5E478A17094F9CC3186
:1046B00003F00F03194384F8CC11B4F84231A4F885
:1046C0007C3194F8E632FF2B19D0D4F8E43223F091
:1046D0007F4323F0FF03B3F5807F14D0D4F8E43296
:1046E00023F07F4323F0FF03654A934224D0731ED7
:1046F000052B37D8DFE803F03432302E382C002376
:1047000084F8E632E1E794F8863184F8E732202332
:1047100084F8863194F8C53113F0600F08D1B4F8ED
:1047200058309B00A4F85430042ED7D80526D5E77E
:104730000023A4F85430F7E794F8E73284F8863180
:1047400006260125C5F18807BFB2002202AB12E0A0
:104750000125F7E72425F5E74425F3E75A25F1E796
:104760007125EFE78325EDE70D25EBE7002103F841
:10477000011B013292B2BA42F8D3052E35D800207F
:10478000042E01D9002839D0032E01D900283FD0AA
:10479000022E01D9002845D0012E01D900284BD086
:1047A000C6B1B8B9C5F1710292B294F8CC3113F028
:1047B000200F09D094F82E3043F0010184F8B41191
:1047C00084F8C01184F8C63102AB1A44122148465D
:1047D000FEF7B3FB002839D0002841D0002846D08E
:1047E000002848D043B0BDE8F08FC5F1010202AB0C
:1047F00013FA82F20B21FEF78FF9C1E7C5F10D0222
:1048000002AB13FA82F217215846FEF7F0F9BBE724
:10481000C5F1240202AB13FA82F220210098FEF7C0
:1048200096FAB5E7C5F1440202AB13FA82F21621FB
:104830000198FEF7FAFAAFE7C5F15A0202AB13FA94
:1048400082F217215046FEF735FBA9E7C5F1830236
:1048500002AB13FA82F205214046FEF7B0FBBBE73C
:104860003B4602AA2946204600F069FFB6E72046EB
:10487000FFF7AAF8B4E72046FFF736F9B2E700BF22
:104880000001010038B5044690F9CC3103F00F0364
:1048900043F0800380F8CC3100F5E471FEF7A8FB0B
:1048A000054694F8CC3103F00F0384F8CC31032192
:1048B0002046FFF776F894F8E532012B01D0284620
:1048C00038BD2046FFF706FBF9E7F0B5C1B00C464E
:1048D00000F5E77500F5227600F52B7701290ED05B
:1048E00002290ED186236A46882100F02FFF012C71
:1048F00000D940B104B168B190B141B0F0BD4D23D1
:10490000F1E72C23EFE73A460DF14E013820FEF790
:104910004BFCEFE732460BA92120FEF70AFCEBE740
:104920002A4669462C20FEF775FBE6E708B5032208
:10493000FFF7A6FE08BD000070B4CC789C701C1D6B
:1049400000250AE04E7806F01F0684F83E60ADB1FF
:10495000012D45D040340135EDB2012D68D82570C8
:1049600000266660CE78002EECD14E7806F01F0649
:10497000092EE7D1132684F83E60E8E78E78072EEB
:1049800025D0082E26D08E8826820E8AA685CE8A2D
:10499000E6850E8926864E897601B6F5803F01D3DD
:1049A0004FF6FF7626878E896687CE8906FB00F64E
:1049B00016F5806611D446F3CF26A6875668666240
:1049C0009668A662D668666116682662C2E74E8A55
:1049D0002682DAE78E8A2682D7E706F2FF76EAE7B2
:1049E0000E8B26824E8BA6854FF6FF76E6858E8B44
:1049F0002686CE8B7601B6F5803F01D34FF6FF7643
:104A000026870E8C66874E8C00FB06F616F58066B0
:104A10000BD446F3CF26A687566966629669A662CE
:104A2000D66966611669266294E706F2FF76F0E7BA
:104A30000022DA70497801F01F01112908D80122FB
:104A40008A400448024203D0D970002283F84220F1
:104A500070BC70470E200200F8B50446164600F5FB
:104A60003D77FFF732FF054698B194F8E532012B08
:104A700019D094F82C3084F8F43294F8303084F85B
:104A8000F5328422394630460BF0D2FA5DB328461F
:104A9000F8BD3B4604F5227204F5E771B4F89C00BA
:104AA000FFF74AFFE1E715B994F8E6327BB11DB98B
:104AB00094F8E632012B12D094F8E632FF2BD8D0CE
:104AC000002DD6D12046FFF74BFA0546D1E7204608
:104AD000FFF726FA0546012384F8E632ECE70223C5
:104AE00084F8E632E8E72046FEF7CEFF0546CEE73B
:104AF000A1F50041382900F25881DFE811F03900B2
:104B00003E00430048004D00520057005C00610029
:104B100066006B00700075007A007F0084008900D9
:104B20008E00930098009D00A200A700AC00B10089
:104B3000B600BB00C000C500CA00CF00D400D90039
:104B4000DE00E300E800ED00F200F700FC000101E8
:104B500006010B01100115011A011F012401290191
:104B60002E01330138013D01420147014C01510141
:104B7000B0F8A430136000207047B0F8A63013607E
:104B800000207047B0F8A83013600020704790F8FC
:104B9000B03013600020704790F8B13013600020EF
:104BA0007047B0F8B230136000207047B0F89C3006
:104BB00013600020704790F8B430136000207047F5
:104BC000B0F8B630136000207047B0F8B83013600A
:104BD00000207047B0F8BA30136000207047B0F87A
:104BE000BC30136000207047B0F8BE301360002066
:104BF0007047B0F8C03013600020704790F8C230A2
:104C000013600020704790F8C33013600020704795
:104C100090F8C43013600020704790F84031136062
:104C20000020704790F8C53013600020704790F85E
:104C3000C73013600020704790F8C8301360002020
:104C40007047B0F93E3113600020704790F8AA30E9
:104C500013600020704790F8AB301360002070475D
:104C600090F8AC3013600020704790F8AD301360BE
:104C70000020704790F8AE3013600020704790F825
:104C8000AF3013600020704790F8C63013600020EA
:104C9000704790F8603113600020704790F8103131
:104CA00013600020704790F81131136000207047A6
:104CB000D0F81431136000207047B0F81831136039
:104CC00000207047B0F81A31136000207047B0F828
:104CD0001C31136000207047B0F84431136000208D
:104CE0007047D0F84831136000207047D0F8503139
:104CF000136000207047D0F84C31136000207047DB
:104D000090F8543113600020704790F855311360CB
:104D10000020704790F8563113600020704790F8DB
:104D2000213113600020704790F822311360002079
:104D30007047B0F82831136000207047B0F8CA30CF
:104D4000136000207047B0F8CC301360002070472B
:104D5000D0F8D030136000207047D0F8D430136002
:104D600000207047D0F8D830136000207047D0F88A
:104D7000DC30136000207047D0F8E430136000206E
:104D80007047D0F8E83013600020704790F8E432A4
:104D9000136000207047D0F8E030136000207047A7
:104DA000D0F8EC301360002070476FF000431360C0
:104DB0006FF003007047000084B01F4B1B68ADF814
:104DC0000C301B0C8DF80E301C4B1B68ADF80830F6
:104DD0001B0C8DF80A301A4B1B68ADF804301B0C05
:104DE0008DF806300123137099420BD002290BD1A4
:104DF00004280BD0082817D003280ED06FF0070026
:104E000004B070470023F3E70223F1E704A90B4441
:104E100013F8043C13700020F2E704A90B4413F8C4
:104E2000083C13700020EBE704A90B4413F80C3C7A
:104E300013700020E4E700BF543B0400583B04001B
:104E40005C3B040058B3072926D0B2F93C10B1F5F9
:104E5000967F07DB41F69A1303FB01F121B94FF46A
:104E6000C8000EE04FF4F011138F4A080C4800FB05
:104E70000323B3FBF1F319040A4AB2EB034F08D33F
:104E8000501AC0F30740322808D9642828BF64208C
:104E900070474FF44810F4E73220704732207047D3
:104EA000CDCC300033B37500031F0F2B17D8DFE8CC
:104EB00003F00C0A0E1912141616101616161616F2
:104EC00008180A207047042070470220704701200C
:104ED0007047092070470320704700207047FF206B
:104EE000704706207047F0B589B005460C4611465C
:104EF0001F46032C12D0082C0ED020260DF11F02C5
:104F00002046FFF759FF58B1B0B100B9AE7008B9EB
:104F100085F87C4309B0F0BD4026EFE74026EDE779
:104F200004AB019305AB009306AB07AA9DF81F10D5
:104F30002846FFF7FCF9E7E70297049B0193059BDE
:104F40000093069BBDF81C209DF81F102846FFF714
:104F500039FADAE708B521B1012908D06FF003006A
:104F600008BDC2F38F31FFF71AFB0020F8E7C2F348
:104F70004F21FFF71DFB0020F2E770B584B0044617
:104F800003A9FFF75AF994F87C6394F87F5350B162
:104F900080B198B1C0B1F0B140B360B308B984F842
:104FA0007E5304B070BD02AB01AA69462046FFF7EC
:104FB000D6F8EDE72046FFF765FCEAE74FF4FA7113
:104FC000204600F009FCE5E763692A4631462046A1
:104FD000FFF789FFDFE7029B019A00992046FFF760
:104FE000A5F80028D8D1029B2361D5E703A9204664
:104FF000FFF712F9D1E70622A1782046FFF740FB20
:10500000CCE708B54FF4FA71FEF7FDFF08BD2DE9B6
:10501000F04184B090F87C634B1EDBB2022B3ED88B
:1050200004460D46012B16D9032769462046FFF793
:1050300004F9D4F81480034678B1B3B12BB984F8DD
:105040007E7384F87F7384F87D53B3B10BB3184635
:1050500004B0BDE8F0810F46E7E703AB02AA01A95F
:105060002046FFF77CF80346E7E743463A463146D9
:105070002046FFF738FF0346E0E7039B029A0199B9
:105080002046FFF753F803460028DFD1039A226138
:10509000DCE769462046FFF7BFF80346D7E76FF025
:1050A0000303D4E708B58B01034AA2FB032301EBFA
:1050B0009311FFF721F808BDD34D621010B582B0EF
:1050C0000C4601A9FFF725F8019B9A010349A1FBB2
:1050D0000212A3EB9213236002B010BDD34D6210F5
:1050E000012917D870B506460C4615462AB101F1BC
:1050F000E00300EB83039A6800E00022214630467B
:10510000FFF728FF28B9003D18BF0125344484F873
:10511000845370BD6FF003007047012905D808441F
:1051200090F88433137000207047002313706FF0E1
:1051300003007047012917D870B505460C4616467E
:10514000431893F884332BB9E03400EB8400826079
:10515000002070BDFFF7FEFE0028FAD104F1E00147
:1051600005EB8104A660F4E76FF00300704770B5AB
:1051700006460121FFF72AFA044628B9012386F8DA
:105180007833082386F87C330025012D0AD84CB9E2
:10519000012229463046FFF7A3FF044364B20135DC
:1051A000EDB2F2E714B14CB1204670BD4FF490124D
:1051B00000213046FFF7BEFF0446F4E74FF480427B
:1051C00001213046FFF7B6FF0446EDE770B582B027
:1051D000044616460D4629B1012917D06FF0030089
:1051E00002B070BD01A9FFF7D5F9BDF804309B03EB
:1051F0000028F5D193B905F1E00304EB83039B6824
:1052000033602C44002384F88433E9E70DF1060170
:10521000FFF7C9F9BDF806305B02E9E7336005F135
:10522000E00204EB820293602C44012384F884336F
:10523000D6E700002DE9F04182B007460846164641
:105240001D46089C5B68236095F83E8008F01F08A7
:105250002A464146FFF7F6FD6071AB8D5B02A36005
:105260002B8E5B02E3602B8A23822B8F5B026361B0
:10527000B5F93C3023830023A3760D2E47D004D903
:10528000112E06D00023E37605E0013EF6B2022E91
:10529000F8D80523E376E37E1BB94046FFF704FE0A
:1052A000E0762B8F5B02C7F89033AB8D5B02C7F8BB
:1052B00094336A4600213846FFF788FF0DF1070254
:1052C00000213846FFF729FF9DF80730012B21D038
:1052D000002387F886336A4601213846FFF776FFB8
:1052E0000DF1070201213846FFF717FF9DF807303F
:1052F000012B16D0002387F88733B4F91820E37EFA
:105300000BB9002A14DB002002B0BDE8F0810D23A8
:10531000E376C0E7B8F1060F01D00023D9E70123F7
:10532000D7E7B8F1040F01D00023E4E70123E2E757
:10533000044B5B689A4202DA0E23E376E3E700232C
:105340002383E0E73444002008B5FEF740FF08BDA2
:1053500070B586B006460D46454B994229D96FF087
:1053600003046CB3A4B3F4B996F87C33042B37D0A0
:10537000082B58D0032B44D03E49012300226FF064
:105380000704AA426DD2AA1A6CB98A426CD8B2FB41
:10539000F3F30493039A02993046FEF7C7FE0446DE
:1053A00008B9049B33610CB9C6F88053204606B097
:1053B00070BD0DF117020521FFF7C6FF0446D0E7C7
:1053C0000DF1160206213046FFF7BEFF0446C9E77D
:1053D00004AB03AA02A93046FEF7C1FE0446C2E7A9
:1053E0009DF81730012B32D09DF81630012B04D0D8
:1053F000204901234FF47A72C3E71E4941F28832F3
:10540000BFE79DF81730012B26D09DF81630012BF1
:1054100004D01949022345F26042B2E7164902233B
:1054200046F2E872ADE701AA48F236013046FFF7CE
:105430005FFB019B002B08DDF52202FB03F2F53236
:1054400002F6DC520C4902239BE7F522F8E70949F2
:10545000012341F2883294E70749022346F2E872B9
:105460008FE76FF003049EE76FF003049BE700BF34
:105470008096980070640800E0C8100038B50446B3
:105480000D464FF47A730322FFF72DFD78B90323FD
:1054900084F87E3384F87F33EB1EDBB2012B01D915
:1054A000082D06D14AF228012046FFF751FF30B1FE
:1054B00038BD48F235212046FFF74AFFF7E74FF4A1
:1054C0007A712046FFF7EEFDF2E708B5032280F877
:1054D00078232021817080F87F2380F87E2380F854
:1054E0007D230821FFF7CAFF08BD70B586B00646C8
:1054F0000D4600238DF817308DF816300493039372
:1055000002930B600DF117020521FFF71DFF044602
:1055100068B1A4B1002C54D196F87C33042B16D07A
:10552000082B39D0032B23D06FF007044CE00DF18A
:10553000160206213046FFF707FF0446E9E703ABF2
:1055400004AA02A93046FEF70AFE0446E2E79DF8E7
:105550001730012B07D09DF81630012B03D0039B89
:1055600003F57A732EE0039B03F59C53083329E07F
:105570009DF81730012B09D09DF81630012B05D06E
:10558000039B03F5285330335B001BE0039B03F5BB
:105590004F5334335B0015E001AA48F23601304620
:1055A000FFF7A6FA019A002A09DDF52303FB02F3AF
:1055B000F53303F6DC53039A03EB420302E0F523D1
:1055C000F7E7002304B92B60204606B070BD000049
:1055D00030B583B0044690F87833032B19D00DD939
:1055E000052B0ED8042B10D2A5786FF0020048B31B
:1055F00010B9042384F8783303B030BD022BF3D8FC
:1056000003E0623BDBB2012BEED8A5786FF00D0012
:10561000EDE78578402D01D00020E8E701A9FFF7EC
:1056200064FF019B0C4AA2FB03239B09019369467B
:105630002046FFF743FD019B0433009A934207D8AD
:105640000020D4E7062229462046FFF719F8CFE7C5
:105650006FF00300CCE700BFD34D621008B581782E
:1056600090F87E2390F87F339A4202D0FFF785FCB2
:1056700008BDFFF75BF9FBE730B5A5B005460C4662
:105680001C22FF2120460AF0FBFC03AA0221284627
:10569000FFF7E2F908B125B030BD9DF80E30237157
:1056A000009404AB9DF80F2001212846FFF7C2FDAE
:1056B000F1E7000070B582B00546084611461C4669
:1056C000030A0C4E337070702246B01C0AF0B0FC16
:1056D000009602348DF8044005F0FE058DF8055063
:1056E00000208DF80600034601226946FCF7FAFD0A
:1056F00002B070BD746E002010B586B014460A0A60
:105700008DF814208DF8151005AA019202228DF84B
:10571000082000F0FE018DF8091000208DF80A0025
:1057200003948DF8103041F001018DF811108DF8BF
:105730001200034601A9FCF7D5FD06B010BD08B55F
:1057400090F89803FFF7B6FF002008BD08B590F861
:105750009803FFF7D1FF002008BD00B583B08DF896
:10576000072001230DF1070290F89803FFF7A2FF2D
:1057700040B203B05DF804FB08B5012390F898032C
:10578000FFF7BAFF00B908BD4FF0FF30FBE710B5D7
:1057900082B014460023ADF80430022301AA90F829
:1057A0009803FFF7A9FF034630B99DF804109DF850
:1057B000052002EB0122228058B202B010BD10B5C4
:1057C0000446FCF7D7FF2060002010BD08B508464E
:1057D000FCF7EEFF002008BD08B50120FCF7E8FF4C
:1057E000002008BD2DE9F04F85B006460F469146D2
:1057F00098469DF838A0DDF83CB00024039402944C
:105800008DF8074003A8FFF7DAFF254623460CE092
:1058100001251BE059463046FFF7D8FF044602A891
:10582000FFF7CDFF029B039A9B1ABCB9BB4215D26E
:10583000A5B90DF1070249463046FFF79DFF044622
:105840009DF807300AEA03034345E1D0002CE6D176
:10585000002DE4D1BBF1000FE1D0DBE705B91CB1AD
:10586000204605B0BDE8F08F6FF00604F8E710B5EC
:105870000446002380F80831B0F8F2100A4600F020
:10588000EFFEB4F8F2100A4604F13C0000F0E8FE26
:10589000B4F8F2100A4604F1B40000F0E1FEB4F8E6
:1058A000F2100A4604F1A00000F0DAFEB4F8F2109B
:1058B0000A4604F1DC0000F0D3FEB4F8F0100A460A
:1058C00004F1C80000F0CCFEB4F8F2100A4604F16E
:1058D000280000F0C5FE0122B4F8F21004F16400C3
:1058E00000F0BEFE0122B4F8F21004F18C0000F0CA
:1058F000B7FE0122B4F8F21004F1780000F0B0FE17
:10590000B4F8F020B4F8F21004F1500000F0A8FE52
:10591000B4F8F220B4F8F01004F1140000F0A0FE86
:1059200010BD70477047704770472DE9F843044633
:10593000814248D00D46D1F804900F68A9EB0706C4
:10594000B010A368D4F80080A3EB08039B10B3EB5E
:10595000A60F18D36268A2EB0802B0EBA20F39D9E8
:10596000BB18BB4203D0394640460AF06FFB29689A
:1059700060682368C31A19446B685A1A99421FD089
:105980000AF064FB1CE018B3B0F1005F1ED2800087
:105990000AF0B6FA05463846FFF7C5FF07464846FF
:1059A000FFF7C1FFC21B874203D0394628460AF0E1
:1059B0004DFB206808B10AF092FA25603544A560D5
:1059C00023681E4466602046BDE8F8830AF0B5FAF5
:1059D0000025E0E73846FFF7A6FF05464846FFF7F3
:1059E000A2FF07464046FFF79FFF7A1BBD42E7D064
:1059F00029460AF02BFBE3E72DE9F04F83B0074679
:105A0000814200F0888089464E680C68A6EB040B42
:105A10004FEAAB00794A02FB00F0BB68D7F8008080
:105A2000A3EB08039B1002FB03F3834214D37D68AE
:105A3000A5EB0805AB10714D05FB03F5A8426ED927
:105A4000002D40F39C8021464046FFF76EFF0C344A
:105A500008F10C08013DF3E770B1694B984209D891
:105A600000EB400080000AF04BFA01902146B2465C
:105A7000019C12E00AF061FA00230193F6E70AF0B4
:105A80005CFA00251CE04A46314628460AF0DEFA58
:105A90004D44656008F10C010C348846514522D014
:105AA0004E680B68F61A002323606360A360B01091
:105AB000E7D0B0F1005FE2D280000AF021FA05469B
:105AC000256065602E44A660D8F80490D8F80000E0
:105AD000FFF729FF06464846FFF725FFA0EB06091A
:105AE0008642D0D1D4E73C687D6800E00C34A54202
:105AF00005D020680028F9D00AF0F1F9F6E73868F7
:105B000008B10AF0ECF9019B3B6003EB0B00B860B5
:105B10003B685B447B60384603B0BDE8F08F454688
:105B20002046FFF7FEFE81463046FFF7FAFE0646A6
:105B30004046FFF7F7FE0446A6EB0906B3102F4ECA
:105B400006FB03F6002E08DD49462046FFF7EDFE72
:105B500009F10C090C34013EF4E72846FFF7E2FE98
:105B6000201A28447D6801E004F10C000446A84294
:105B7000CED000680028F7D00AF0B1F9F4E7D9F8E0
:105B800000207C683B68E31A02EB0308D9F8049014
:105B90000DE00AF0D2F900251DE0524631462846B4
:105BA0000AF054FA5544656008F10C080C34C145FC
:105BB000AED0D8F80460D8F80030F61A002323607D
:105BC0006360A360B010E6D0B0F1005FE1D2800066
:105BD0000AF096F90546256065602E44A660D8F85F
:105BE00004A0D8F80000FFF79EFE06465046FFF7D7
:105BF0009AFEA0EB060A8642CFD1D3E7ABAAAAAAA7
:105C0000AAAAAA0A2DE9F0439BB004460D4606A8AD
:105C100000F08CFB04F18C0804F1640221460BA80F
:105C200000F0BEFD0B9BC4F88C300C9BC4F8903088
:105C300004F194070DA93846FFF7DEFE0D9EDDF84E
:105C4000389002E00AF04BF90C36B14503D03068C9
:105C50000028F7D1F8E70D9808B10AF040F9AB69D0
:105C6000002B53D0EB69002B50D001A800F05EFB55
:105C700005F1180204F1280110A800F091FD109B15
:105C80000193119B029312A903A8FFF7B5FE129D81
:105C9000139E00E00C35AE4205D028680028F9D0EC
:105CA0000AF01DF9F6E7129808B10AF018F901AAEE
:105CB000414615A800F016FD159BC4F88C30169BC4
:105CC000C4F8903017A93846FFF796FE179C189D28
:105CD00002E00AF004F90C34A54203D02068002841
:105CE000F7D1F8E7179808B10AF0F9F8039C049D7A
:105CF00002E00AF0F4F80C34A54203D02068002832
:105D0000F7D1F8E7039808B10AF0E9F8089C099D73
:105D100002E00AF0E4F80C34A54203D02068002821
:105D2000F7D1F8E7089808B10AF0D9F81BB0BDE838
:105D3000F08300002DE9F04FFFB00446884690F84C
:105D4000083113B9012380F8083141462046FFF796
:105D500059FF24A800F0EAFA214629A800F064FDC2
:105D6000299B24932A9B25932BA926A8FFF744FE61
:105D70002B9D2C9E02E00AF0B2F80C35AE4203D007
:105D800028680028F7D1F8E72B9808B10AF0A7F89F
:105D900004F1A00504F1B40221462EA800F000FD94
:105DA0002E9BC4F8A0302F9BC4F8A43004F1A807A0
:105DB00030A93846FFF720FE309EDDF8C49002E09F
:105DC0000AF08DF80C36B14503D030680028F7D1C1
:105DD000F8E7309808B10AF082F824AA294633A8D7
:105DE00000F0DEFC339BC4F8A030349BC4F8A43030
:105DF00035A93846FFF700FE359EDDF8D89000E063
:105E00000C36B14505D030680028F9D00AF067F8A3
:105E1000F6E7359808B10AF062F804F1DC02294689
:105E200038A800F05FFC389BC4F8A030399BC4F858
:105E3000A4303AA93846FFF7DFFD3A9E3B9F02E0C7
:105E40000AF04DF80C36B74203D030680028F7D17D
:105E5000F8E73A9808B10AF042F8DFEDA10A9FEDA1
:105E6000A10A284600F0C7FA1FA800F05FFA04F163
:105E7000140739463DA800F0D7FC3D9B1F933E9B7D
:105E800020933FA921A8FFF7B7FD3F9EDDF80091C1
:105E900002E00AF024F80C36B14503D0306800283F
:105EA000F7D1F8E73F9808B10AF019F804F1500665
:105EB0001FAA294642A800F073FC429B2365439B1E
:105EC000636504F1580A44A95046FFF795FDDDF8D3
:105ED0001091DDF814B103E00AF001F809F10C09A2
:105EE000CB4504D0D9F800000028F5D1F6E7449856
:105EF00008B109F0F4FF1AA800F018FA3246394642
:105F000047A800F04DFC479B1A93489B1B9349A957
:105F10001CA8FFF771FDDDF82491DDF828B103E03E
:105F200009F0DDFF09F10C09CB4504D0D9F80000D8
:105F30000028F5D1F6E7499808B109F0D0FF04F13F
:105F4000C8021AA94CA800F0CDFB4C9B1A934D9B9C
:105F50001B934EA91CA8FFF74FFDDDF83891DDF823
:105F60003CB103E009F0BBFF09F10C09CB4504D0BB
:105F7000D9F800000028F5D1F6E74E9808B109F0ED
:105F8000AEFF15A800F0D2F91AA951A800F072FCD2
:105F9000519B1593529B169353A917A8FFF72CFDFD
:105FA000DDF84C91DDF850B103E009F098FF09F1FC
:105FB0000C09CB4504D0D9F800000028F5D1F6E74C
:105FC000539808B109F08BFF15AA314656A800F086
:105FD000E7FB569B2365579B636558A95046FFF71F
:105FE0000BFDDDF86091DDF864A103E009F077FFB7
:105FF00009F10C09CA4504D0D9F800000028F5D1F0
:10600000F6E7589808B109F06AFF10A800F08EF979
:106010000BA800F08BF904F18C0239465BA800F064
:10602000BFFB5B9B10935C9B11935DA912A8FFF7CC
:10603000E3FCDDF87491DDF878A103E009F04FFF8F
:1060400009F10C09CA4504D0D9F800000028F5D19F
:10605000F6E75D9808B109F042FF10AA08F10401C3
:1060600060A800F06EFB609B0B93619B0C9362A990
:106070000DA8FFF7C1FCDDF88881DDF88C9103E005
:1060800009F02DFF08F10C08C14504D0D8F8000034
:106090000028F5D1F6E7629808B109F020FF04F175
:1060A000780A0BAA314665A800F07AFB659BA367C6
:1060B000669BE36767A904F18000FFF79DFCDDF8AC
:1060C0009C81DDF8A09101E008F10C08C1450BD0DE
:1060D000D8F800000028F7D009F001FFF4E700BF6E
:1060E000A5D468537D1D9026679808B109F0F7FE86
:1060F00004F16409D4F88C306366D4F89030A36658
:1061000004F16C0804F194014046FFF775FC524617
:1061100049466AA800F0E6FA6A9B63666B9BA36631
:106120006CA94046FFF768FCDDF8B081DDF8B4915A
:1061300003E009F0D4FE08F10C08C14504D0D8F8FA
:1061400000000028F5D1F6E76C9808B109F0C7FE09
:1061500006A800F0EBF801A800F0E8F8B4F8F21097
:106160000A4601A800F07CFAB7EE000A01A800F088
:10617000F9F83A4631466FA800F012FB6F9B069380
:10618000709B079371A908A8FFF736FC719E729F58
:1061900002E009F0A4FE0C36B74203D030680028B4
:1061A000F7D1F8E7719808B109F099FE06AA01A99C
:1061B00074A800F0C6FA749B0193759B029376A9AC
:1061C00003A8FFF719FC769E779F02E009F087FE8F
:1061D0000C36B74203D030680028F7D1F8E776983C
:1061E00008B109F07CFE2A4601A979A800F0D8FA86
:1061F000799BC4F8B4307A9BC4F8B8307BA904F119
:10620000BC00FFF7F9FB7B9C7C9D00E00C34A542B1
:1062100005D020680028F9D009F061FEF6E77B98E8
:1062200008B109F05CFE039C049D02E009F057FEF2
:106230000C34A54203D020680028F7D1F8E7039872
:1062400008B109F04CFE089C099D02E009F047FEE8
:106250000C34A54203D020680028F7D1F8E708984D
:1062600008B109F03CFE0D9C0E9D02E009F037FEDE
:106270000C34A54203D020680028F7D1F8E70D9828
:1062800008B109F02CFE129C139D02E009F027FED4
:106290000C34A54203D020680028F7D1F8E7129803
:1062A00008B109F01CFE179C189D02E009F017FECA
:1062B0000C34A54203D020680028F7D1F8E71798DE
:1062C00008B109F00CFE1C9C1D9D02E009F007FEC0
:1062D0000C34A54203D020680028F7D1F8E71C98B9
:1062E00008B109F0FCFD219C229D02E009F0F7FDB8
:1062F0000C34A54203D020680028F7D1F8E7219894
:1063000008B109F0ECFD269C279D02E009F0E7FDAD
:106310000C34A54203D020680028F7D1F8E726986E
:1063200008B109F0DCFD7FB0BDE8F08F002202600B
:1063300042608260C260026170477047836801EB0F
:10634000410153F8213003EB820383ED000A7047CB
:10635000836801EB410153F8213003EB820393ED95
:10636000000A7047002103688B4221D9002342684C
:106370009A421BD930B413E0013103688B4213D920
:1063800000230AE010EE105A826801EB410452F833
:10639000242002EB83021560013342689A42EBD954
:1063A0009942EFD00025EFE730BC70470131DAE7C2
:1063B0007047002103688B421CD9002342689A422F
:1063C00016D910B4826801EB410452F8242002EB84
:1063D000830282ED000A013342689A42F2D8013109
:1063E00003688B4201D90023F6E75DF8044B704740
:1063F0000131DFE77047002103688B422ED900226C
:106400004368934228D910B410E0013103688B42ED
:106410001FD9002207E0F4EEE70AF1EE10FA01D5E9
:10642000C3ED000A013243689342EED9836801EB61
:10643000410453F8243003EB8203D3ED007AF0EEED
:10644000E77AB4EEE70AF1EE10FAE4DD83ED000A34
:10645000E8E75DF8044B70470131CDE77047000075
:1064600008B59FED020AFFF7A4FF08BD0000000079
:106470002DE9F04784B081460C46154683680668CE
:106480009B1B9B10734A02FB03F38B4211D347689B
:10649000BB1B9A106F4B03FB02F3994275D8002C7B
:1064A00000F0C38029463046FFF73FFA013C0C3626
:1064B000F5E7694B994210D8A1B1674B99420FD8C3
:1064C00001EB4100800009F01BFD0646019604EB3C
:1064D000440306EB8303039313E0604809F030FDA7
:1064E00009F02BFD0026F1E709F027FD00271BE04E
:1064F00052464146384609F0A9FD57447760013CB1
:106500000C3624B36A682B68A2EB030800233360BF
:106510007360B3605FEAA800E8D0B0F1005FE3D237
:10652000800009F0EDFC07463760776007EB080351
:10653000B360D5F804A02868FFF7F5F98046504607
:10654000FFF7F1F9A0EB080A8045D1D1D5E7019B0F
:10655000D9F800400194D9F804500295C9F80030E8
:10656000C9F80460039BC9F8083000E00C34A54268
:1065700005D020680028F9D009F0B1FCF6E70198B1
:10658000002863D009F0ABFC60E03046FFF7CAF9A1
:1065900006463846FFF7C6F90746B74205D02946F2
:1065A0003046FFF7C2F90C36F7E7D9F80460D9F89E
:1065B0000030F31A9B10274A02FB13440CE009F049
:1065C000BCFC00271BE052464146384609F03EFD20
:1065D00057447760013C0C3624B36A682B68A2EB01
:1065E0000308002333607360B3605FEAA800E8D05B
:1065F000B0F1005FE3D2800009F082FC074637600B
:10660000776007EB0803B360D5F804A02868FFF7AC
:106610008AF980465046FFF786F9A0EB080A8045C4
:10662000D1D1D5E7C9F8046010E0D9F80450AE42E2
:106630000CD0344600E00C34A54205D02068002878
:10664000F9D009F04CFCF6E7C9F8046004B0BDE8E5
:10665000F08700BFABAAAAAAAAAAAA0A603B0400B4
:1066600070B584B0B2F1005F18D205460E461446EC
:106670000023019302930393AAB1B2F1005F10D2F9
:10668000900009F03DFC019000EB84030393234646
:106690005BB1002240F8042B013BF9E70A4809F0FE
:1066A0004FFC09F04AFC0020EDE7029001AA3146B8
:1066B00005F10800FFF7DCFE2E606C60019808B160
:1066C00009F00DFC04B070BD603B040010B5044639
:1066D0000160426000238360C3600361FFF7C0FF75
:1066E000204610BDF8B507460E4615464A680968AB
:1066F000FFF7ECFF4FF0000C01E00CF1010C3368E8
:106700009C451CD200236A689342F6D2B2680CEB17
:106710004C04A400115901EB8301AA68125902EB41
:106720008302B868045904EB8304D1ED007A92ED3A
:10673000007A77EE877AC4ED007A0133E3E73846D2
:10674000F8BDF8B507460E4615464A680968FFF7D2
:10675000BDFF4FF0000C01E00CF1010C33689C45CB
:106760001CD200236A689342F6D2B2680CEB4C0448
:10677000A400115901EB8301AA68125902EB8302AC
:10678000B868045904EB8304D1ED007A92ED007AE5
:1067900077EEC77AC4ED007A0133E3E73846F8BDF7
:1067A0002DE9F04106460C46154652680968FFF788
:1067B0008DFF4FF0000C2FE001376B689F4229D20C
:1067C000B2680CEB4C039B001846D358B90003EB9E
:1067D000870300221A60002362689A42ECD9A268FB
:1067E000125802EB830EAA6803EB430852F82820E4
:1067F0000A44DEED007A92ED007A27EE877AB268DD
:1068000012580A44D2ED007A77EE877AC2ED007A08
:106810000133E1E70CF1010C23689C4501D200270C
:10682000CBE73046BDE8F081F8B507460E460A686A
:106830004968FFF74BFF002500E001353368AB42A4
:1068400015D9002372689A42F7D9B26805EB450161
:1068500052F8214004EB8304BA6803EB430152F879
:10686000212002EB8502216811600133EAE73846F6
:10687000F8BD00002DE9F04186B006460D460C68D3
:1068800022462146FFF722FF29684A0001A8FFF7A8
:106890001DFF002725E03819834219D00133B3EBDF
:1068A000440F1DD207EB47029200039988584FEA24
:1068B000830C00EB830000210160A342EBD2A968A6
:1068C0008858604403998958614400680860E2E789
:1068D00003998A5894444FF07E52CCF80020DDE7AB
:1068E0000137A74201D20023D9E7651E00E03D46EB
:1068F00055B36F1E039A07EB47039B001846D35806
:1069000093ED007A05EB4505AD00AC465359D3ED48
:10691000007AB4EEE77AF1EE10FAE8D50023B3EB93
:10692000440FE4D2039951F80C2002EB830215685E
:10693000095801EB830109681160039A125802EBB0
:10694000830215600133EAE7AE4633E00130A0422E
:106950002ED28645FAD0039A00EB40039B009C465A
:10696000D35803EB8E0393ED007A0EEB4E039B009E
:106970001F46D35803EB8E03D3ED007AC7EE276A88
:106980002B46B3EB440FE1D20399CA5902EB8302C1
:10699000D2ED007A26EEA77A51F80C2002EB8302A2
:1069A000D2ED007A77EEC77AC2ED007A0133E8E7DC
:1069B0000EF1010EA64501D22846C8E7A84607E019
:1069C0002048FAF7A3FEDFED206A12E008F1010883
:1069D000A04522D208EB48039B001F46039AD358D8
:1069E00003EB8803D3ED006AF5EE406AF1EE10FA8E
:1069F000E6D02B46A342E9D21A190399C95901EBF3
:106A00008201B268D25902EB830291ED007AC7EE9F
:106A1000267AC2ED007A0133ECE7039C049D00E086
:106A20000C34A54205D020680028F9D009F057FAA7
:106A3000F6E7039808B109F052FA304606B0BDE80F
:106A4000F08100BF943B04007F96184B30B405469C
:106A5000084600240AE0DBB23733DBB22146035597
:106A6000B5FBF2F3AA420BD801341D46B5FBF2F395
:106A700002FB1353092BEED8DBB23033DBB2EDE768
:106A80000131002343549C4206DDC25C015DC154C8
:106A900002550133013CF6E730BC704710B504469F
:106AA000006809F0AFFA204610BD38B504460D461F
:106AB000013100680AF000F818B12060656001201B
:106AC00038BD0020FCE743688B4201D301207047AA
:106AD00010B50446FFF7E9FF00B910BDA36813B96C
